8=FIX.4.4|9=135|35=A|34=1|49=0c6ba5672f96498abe52990b491f002c|52=20260505-02:55:20.626|56=SERVER|1=main|98=0|108=30|141=Y|553=Group16|554=CqNO5I7KfygR|10=193|8=FIX.4.4|9=100|35=0|34=2|49=0c6ba5672f96498abe52990b491f002c|52=20260505-02:55:50.589|56=SERVER|1=main|553=Group16|10=169|8=FIX.4.4|9=100|35=0|34=3|49=0c6ba5672f96498abe52990b491f002c|52=20260505-02:56:20.508|56=SERVER|1=main|553=Group16|10=159|8=FIX.4.4|9=100|35=0|34=4|49=0c6ba5672f96498abe52990b491f002c|52=20260505-02:56:50.013|56=SERVER|1=main|553=Group16|10=154|8=FIX.4.4|9=100|35=0|34=5|49=0c6ba5672f96498abe52990b491f002c|52=20260505-02:57:20.083|56=SERVER|1=main|553=Group16|10=160|8=FIX.4.4|9=100|35=0|34=6|49=0c6ba5672f96498abe52990b491f002c|52=20260505-02:57:50.097|56=SERVER|1=main|553=Group16|10=169|8=FIX.4.4|9=100|35=0|34=7|49=0c6ba5672f96498abe52990b491f002c|52=20260505-02:58:20.131|56=SERVER|1=main|553=Group16|10=157|8=FIX.4.4|9=100|35=0|34=8|49=0c6ba5672f96498abe52990b491f002c|52=20260505-02:58:50.130|56=SERVER|1=main|553=Group16|10=160|8=FIX.4.4|9=100|35=0|34=9|49=0c6ba5672f96498abe52990b491f002c|52=20260505-02:59:20.872|56=SERVER|1=main|553=Group16|10=172|8=FIX.4.4|9=101|35=0|34=10|49=0c6ba5672f96498abe52990b491f002c|52=20260505-02:59:50.547|56=SERVER|1=main|553=Group16|10=215|8=FIX.4.4|9=101|35=0|34=11|49=0c6ba5672f96498abe52990b491f002c|52=20260505-03:00:20.081|56=SERVER|1=main|553=Group16|10=193|8=FIX.4.4|9=101|35=0|34=12|49=0c6ba5672f96498abe52990b491f002c|52=20260505-03:00:50.357|56=SERVER|1=main|553=Group16|10=203|8=FIX.4.4|9=101|35=0|34=13|49=0c6ba5672f96498abe52990b491f002c|52=20260505-03:01:20.244|56=SERVER|1=main|553=Group16|10=197|8=FIX.4.4|9=101|35=0|34=14|49=0c6ba5672f96498abe52990b491f002c|52=20260505-03:01:50.282|56=SERVER|1=main|553=Group16|10=203|8=FIX.4.4|9=101|35=0|34=15|49=0c6ba5672f96498abe52990b491f002c|52=20260505-03:02:20.027|56=SERVER|1=main|553=Group16|10=199|8=FIX.4.4|9=101|35=0|34=16|49=0c6ba5672f96498abe52990b491f002c|52=20260505-03:02:50.029|56=SERVER|1=main|553=Group16|10=205|8=FIX.4.4|9=101|35=0|34=17|49=0c6ba5672f96498abe52990b491f002c|52=20260505-03:03:20.638|56=SERVER|1=main|553=Group16|10=210|8=FIX.4.4|9=101|35=0|34=18|49=0c6ba5672f96498abe52990b491f002c|52=20260505-03:03:50.520|56=SERVER|1=main|553=Group16|10=204|8=FIX.4.4|9=101|35=0|34=19|49=0c6ba5672f96498abe52990b491f002c|52=20260505-03:04:20.374|56=SERVER|1=main|553=Group16|10=210|8=FIX.4.4|9=101|35=0|34=20|49=0c6ba5672f96498abe52990b491f002c|52=20260505-03:04:50.241|56=SERVER|1=main|553=Group16|10=198|8=FIX.4.4|9=101|35=0|34=21|49=0c6ba5672f96498abe52990b491f002c|52=20260505-03:05:20.004|56=SERVER|1=main|553=Group16|10=194|8=FIX.4.4|9=101|35=0|34=22|49=0c6ba5672f96498abe52990b491f002c|52=20260505-03:05:50.041|56=SERVER|1=main|553=Group16|10=199|8=FIX.4.4|9=101|35=0|34=23|49=0c6ba5672f96498abe52990b491f002c|52=20260505-03:06:20.004|56=SERVER|1=main|553=Group16|10=197|8=FIX.4.4|9=101|35=0|34=24|49=0c6ba5672f96498abe52990b491f002c|52=20260505-03:06:50.695|56=SERVER|1=main|553=Group16|10=217|8=FIX.4.4|9=101|35=0|34=25|49=0c6ba5672f96498abe52990b491f002c|52=20260505-03:07:20.092|56=SERVER|1=main|553=Group16|10=207|8=FIX.4.4|9=101|35=0|34=26|49=0c6ba5672f96498abe52990b491f002c|52=20260505-03:07:50.418|56=SERVER|1=main|553=Group16|10=213|8=FIX.4.4|9=101|35=0|34=27|49=0c6ba5672f96498abe52990b491f002c|52=20260505-03:08:20.186|56=SERVER|1=main|553=Group16|10=214|8=FIX.4.4|9=101|35=0|34=28|49=0c6ba5672f96498abe52990b491f002c|52=20260505-03:08:50.056|56=SERVER|1=main|553=Group16|10=214|8=FIX.4.4|9=101|35=0|34=29|49=0c6ba5672f96498abe52990b491f002c|52=20260505-03:09:20.043|56=SERVER|1=main|553=Group16|10=209|8=FIX.4.4|9=101|35=0|34=30|49=0c6ba5672f96498abe52990b491f002c|52=20260505-03:09:50.279|56=SERVER|1=main|553=Group16|10=215|8=FIX.4.4|9=101|35=0|34=31|49=0c6ba5672f96498abe52990b491f002c|52=20260505-03:10:20.327|56=SERVER|1=main|553=Group16|10=199|8=FIX.4.4|9=101|35=0|34=32|49=0c6ba5672f96498abe52990b491f002c|52=20260505-03:10:50.012|56=SERVER|1=main|553=Group16|10=194|8=FIX.4.4|9=101|35=0|34=33|49=0c6ba5672f96498abe52990b491f002c|52=20260505-03:11:20.323|56=SERVER|1=main|553=Group16|10=198|8=FIX.4.4|9=101|35=0|34=34|49=0c6ba5672f96498abe52990b491f002c|52=20260505-03:11:50.179|56=SERVER|1=main|553=Group16|10=211|8=FIX.4.4|9=101|35=0|34=35|49=0c6ba5672f96498abe52990b491f002c|52=20260505-03:12:20.041|56=SERVER|1=main|553=Group16|10=198|8=FIX.4.4|9=101|35=0|34=36|49=0c6ba5672f96498abe52990b491f002c|52=20260505-03:12:50.238|56=SERVER|1=main|553=Group16|10=210|8=FIX.4.4|9=101|35=0|34=37|49=0c6ba5672f96498abe52990b491f002c|52=20260505-03:13:20.167|56=SERVER|1=main|553=Group16|10=210|8=FIX.4.4|9=101|35=0|34=38|49=0c6ba5672f96498abe52990b491f002c|52=20260505-03:13:50.291|56=SERVER|1=main|553=Group16|10=212|8=FIX.4.4|9=101|35=0|34=39|49=0c6ba5672f96498abe52990b491f002c|52=20260505-03:14:20.152|56=SERVER|1=main|553=Group16|10=207|8=FIX.4.4|9=101|35=0|34=40|49=0c6ba5672f96498abe52990b491f002c|52=20260505-03:14:50.050|56=SERVER|1=main|553=Group16|10=199|8=FIX.4.4|9=101|35=0|34=41|49=0c6ba5672f96498abe52990b491f002c|52=20260505-03:15:20.044|56=SERVER|1=main|553=Group16|10=201|8=FIX.4.4|9=101|35=0|34=42|49=0c6ba5672f96498abe52990b491f002c|52=20260505-03:15:50.020|56=SERVER|1=main|553=Group16|10=199|8=FIX.4.4|9=101|35=0|34=43|49=0c6ba5672f96498abe52990b491f002c|52=20260505-03:16:20.577|56=SERVER|1=main|553=Group16|10=215|8=FIX.4.4|9=101|35=0|34=44|49=0c6ba5672f96498abe52990b491f002c|52=20260505-03:16:50.530|56=SERVER|1=main|553=Group16|10=208|8=FIX.4.4|9=101|35=0|34=45|49=0c6ba5672f96498abe52990b491f002c|52=20260505-03:17:20.291|56=SERVER|1=main|553=Group16|10=211|8=FIX.4.4|9=101|35=0|34=46|49=0c6ba5672f96498abe52990b491f002c|52=20260505-03:17:50.163|56=SERVER|1=main|553=Group16|10=213|8=FIX.4.4|9=101|35=0|34=47|49=0c6ba5672f96498abe52990b491f002c|52=20260505-03:18:20.093|56=SERVER|1=main|553=Group16|10=214|8=FIX.4.4|9=101|35=0|34=48|49=0c6ba5672f96498abe52990b491f002c|52=20260505-03:18:50.033|56=SERVER|1=main|553=Group16|10=212|8=FIX.4.4|9=101|35=0|34=49|49=0c6ba5672f96498abe52990b491f002c|52=20260505-03:19:20.041|56=SERVER|1=main|553=Group16|10=210|8=FIX.4.4|9=101|35=0|34=50|49=0c6ba5672f96498abe52990b491f002c|52=20260505-03:19:50.339|56=SERVER|1=main|553=Group16|10=215|8=FIX.4.4|9=101|35=0|34=51|49=0c6ba5672f96498abe52990b491f002c|52=20260505-03:20:20.050|56=SERVER|1=main|553=Group16|10=195|8=FIX.4.4|9=101|35=0|34=52|49=0c6ba5672f96498abe52990b491f002c|52=20260505-03:20:50.047|56=SERVER|1=main|553=Group16|10=205|8=FIX.4.4|9=101|35=0|34=53|49=0c6ba5672f96498abe52990b491f002c|52=20260505-03:21:20.263|56=SERVER|1=main|553=Group16|10=204|8=FIX.4.4|9=101|35=0|34=54|49=0c6ba5672f96498abe52990b491f002c|52=20260505-03:21:50.032|56=SERVER|1=main|553=Group16|10=202|8=FIX.4.4|9=101|35=0|34=55|49=0c6ba5672f96498abe52990b491f002c|52=20260505-03:22:20.037|56=SERVER|1=main|553=Group16|10=206|8=FIX.4.4|9=101|35=0|34=56|49=0c6ba5672f96498abe52990b491f002c|52=20260505-03:22:50.257|56=SERVER|1=main|553=Group16|10=214|8=FIX.4.4|9=101|35=0|34=57|49=0c6ba5672f96498abe52990b491f002c|52=20260505-03:23:20.589|56=SERVER|1=main|553=Group16|10=221|8=FIX.4.4|9=101|35=0|34=58|49=0c6ba5672f96498abe52990b491f002c|52=20260505-03:23:50.254|56=SERVER|1=main|553=Group16|10=214|8=FIX.4.4|9=101|35=0|34=59|49=0c6ba5672f96498abe52990b491f002c|52=20260505-03:24:20.301|56=SERVER|1=main|553=Group16|10=206|8=FIX.4.4|9=101|35=0|34=60|49=0c6ba5672f96498abe52990b491f002c|52=20260505-03:24:50.294|56=SERVER|1=main|553=Group16|10=212|8=FIX.4.4|9=101|35=0|34=61|49=0c6ba5672f96498abe52990b491f002c|52=20260505-03:25:20.221|56=SERVER|1=main|553=Group16|10=201|8=FIX.4.4|9=101|35=0|34=62|49=0c6ba5672f96498abe52990b491f002c|52=20260505-03:25:50.084|56=SERVER|1=main|553=Group16|10=212|8=FIX.4.4|9=101|35=0|34=63|49=0c6ba5672f96498abe52990b491f002c|52=20260505-03:26:20.579|56=SERVER|1=main|553=Group16|10=220|8=FIX.4.4|9=101|35=0|34=64|49=0c6ba5672f96498abe52990b491f002c|52=20260505-03:26:50.514|56=SERVER|1=main|553=Group16|10=213|8=FIX.4.4|9=101|35=0|34=65|49=0c6ba5672f96498abe52990b491f002c|52=20260505-03:27:20.667|56=SERVER|1=main|553=Group16|10=221|8=FIX.4.4|9=101|35=0|34=66|49=0c6ba5672f96498abe52990b491f002c|52=20260505-03:27:50.014|56=SERVER|1=main|553=Group16|10=211|8=FIX.4.4|9=101|35=0|34=67|49=0c6ba5672f96498abe52990b491f002c|52=20260505-03:28:20.137|56=SERVER|1=main|553=Group16|10=216|8=FIX.4.4|9=101|35=0|34=68|49=0c6ba5672f96498abe52990b491f002c|52=20260505-03:28:50.160|56=SERVER|1=main|553=Group16|10=216|8=FIX.4.4|9=101|35=0|34=69|49=0c6ba5672f96498abe52990b491f002c|52=20260505-03:29:20.061|56=SERVER|1=main|553=Group16|10=215|8=FIX.4.4|9=101|35=0|34=70|49=0c6ba5672f96498abe52990b491f002c|52=20260505-03:29:50.148|56=SERVER|1=main|553=Group16|10=216|8=FIX.4.4|9=101|35=0|34=71|49=0c6ba5672f96498abe52990b491f002c|52=20260505-03:30:20.088|56=SERVER|1=main|553=Group16|10=209|8=FIX.4.4|9=101|35=0|34=72|49=0c6ba5672f96498abe52990b491f002c|52=20260505-03:30:50.733|56=SERVER|1=main|553=Group16|10=210|8=FIX.4.4|9=101|35=0|34=73|49=0c6ba5672f96498abe52990b491f002c|52=20260505-03:31:20.005|56=SERVER|1=main|553=Group16|10=201|8=FIX.4.4|9=101|35=0|34=74|49=0c6ba5672f96498abe52990b491f002c|52=20260505-03:31:50.333|56=SERVER|1=main|553=Group16|10=209|8=FIX.4.4|9=101|35=0|34=75|49=0c6ba5672f96498abe52990b491f002c|52=20260505-03:32:20.102|56=SERVER|1=main|553=Group16|10=202|8=FIX.4.4|9=101|35=0|34=76|49=0c6ba5672f96498abe52990b491f002c|52=20260505-03:32:50.037|56=SERVER|1=main|553=Group16|10=213|8=FIX.4.4|9=101|35=0|34=77|49=0c6ba5672f96498abe52990b491f002c|52=20260505-03:33:20.089|56=SERVER|1=main|553=Group16|10=219|8=FIX.4.4|9=101|35=0|34=78|49=0c6ba5672f96498abe52990b491f002c|52=20260505-03:33:50.400|56=SERVER|1=main|553=Group16|10=210|8=FIX.4.4|9=101|35=0|34=79|49=0c6ba5672f96498abe52990b491f002c|52=20260505-03:34:20.244|56=SERVER|1=main|553=Group16|10=215|8=FIX.4.4|9=101|35=0|34=80|49=0c6ba5672f96498abe52990b491f002c|52=20260505-03:34:50.061|56=SERVER|1=main|553=Group16|10=207|8=FIX.4.4|9=101|35=0|34=81|49=0c6ba5672f96498abe52990b491f002c|52=20260505-03:35:20.413|56=SERVER|1=main|553=Group16|10=207|8=FIX.4.4|9=101|35=0|34=82|49=0c6ba5672f96498abe52990b491f002c|52=20260505-03:35:50.055|56=SERVER|1=main|553=Group16|10=213|8=FIX.4.4|9=101|35=0|34=83|49=0c6ba5672f96498abe52990b491f002c|52=20260505-03:36:20.077|56=SERVER|1=main|553=Group16|10=216|8=FIX.4.4|9=101|35=0|34=84|49=0c6ba5672f96498abe52990b491f002c|52=20260505-03:36:50.101|56=SERVER|1=main|553=Group16|10=208|8=FIX.4.4|9=101|35=0|34=85|49=0c6ba5672f96498abe52990b491f002c|52=20260505-03:37:20.008|56=SERVER|1=main|553=Group16|10=213|8=FIX.4.4|9=101|35=0|34=86|49=0c6ba5672f96498abe52990b491f002c|52=20260505-03:37:50.028|56=SERVER|1=main|553=Group16|10=219|8=FIX.4.4|9=101|35=0|34=87|49=0c6ba5672f96498abe52990b491f002c|52=20260505-03:38:20.680|56=SERVER|1=main|553=Group16|10=222|8=FIX.4.4|9=101|35=0|34=88|49=0c6ba5672f96498abe52990b491f002c|52=20260505-03:38:50.410|56=SERVER|1=main|553=Group16|10=217|8=FIX.4.4|9=101|35=0|34=89|49=0c6ba5672f96498abe52990b491f002c|52=20260505-03:39:20.299|56=SERVER|1=main|553=Group16|10=231|8=FIX.4.4|9=101|35=0|34=90|49=0c6ba5672f96498abe52990b491f002c|52=20260505-03:39:50.028|56=SERVER|1=main|553=Group16|10=216|8=FIX.4.4|9=101|35=0|34=91|49=0c6ba5672f96498abe52990b491f002c|52=20260505-03:40:20.745|56=SERVER|1=main|553=Group16|10=212|8=FIX.4.4|9=101|35=0|34=92|49=0c6ba5672f96498abe52990b491f002c|52=20260505-03:40:50.182|56=SERVER|1=main|553=Group16|10=211|8=FIX.4.4|9=101|35=0|34=93|49=0c6ba5672f96498abe52990b491f002c|52=20260505-03:41:20.393|56=SERVER|1=main|553=Group16|10=214|8=FIX.4.4|9=101|35=0|34=94|49=0c6ba5672f96498abe52990b491f002c|52=20260505-03:41:50.543|56=SERVER|1=main|553=Group16|10=215|8=FIX.4.4|9=101|35=0|34=95|49=0c6ba5672f96498abe52990b491f002c|52=20260505-03:42:20.343|56=SERVER|1=main|553=Group16|10=212|