[2026-04-29 13:10:12] [DEBUG] [TO ADMIN] 8=FIX.4.4|9=102|35=5|34=652|49=0c6ba5672f96498abe52990b491f002c|52=20260429-06:10:12.231|56=SERVER|1=main|553=Group16|10=009|
[2026-04-29 13:10:12] [INFO] Session created: FIX.4.4:0c6ba5672f96498abe52990b491f002c->SERVER
[2026-04-29 13:10:12] [DEBUG] FIXSessionManager initialized config=/tmp/paperbroker_rervuz92.cfg username=Group16
[2026-04-29 13:10:12] [DEBUG] RestSession initialized with base_url: https://papertrade.algotrade.vn/accounting
[2026-04-29 13:10:12] [DEBUG] Registered handler for event 'fix:logon'. Total handlers: 1
[2026-04-29 13:10:12] [DEBUG] Registered handler for event 'fix:order:accepted'. Total handlers: 2
[2026-04-29 13:10:12] [DEBUG] Registered handler for event 'fix:order:filled'. Total handlers: 3
[2026-04-29 13:10:12] [INFO] Starting FIX session...
[2026-04-29 13:10:12] [DEBUG] POST https://papertrade.algotrade.vn/accounting/api/fix-account-info/get-fix-id payload_keys=['username', 'password']
[2026-04-29 13:10:12] [DEBUG] [TO ADMIN] 8=FIX.4.4|9=135|35=A|34=1|49=0c6ba5672f96498abe52990b491f002c|52=20260429-06:10:12.295|56=SERVER|1=main|98=0|108=30|141=Y|553=Group16|554=CqNO5I7KfygR|10=196|
[2026-04-29 13:10:12] [DEBUG] [FROM ADMIN] 8=FIX.4.4|9=99|35=A|34=1|49=SERVER|52=20260429-06:10:12.760|56=0c6ba5672f96498abe52990b491f002c|98=0|108=30|141=Y|10=114|
[2026-04-29 13:10:12] [INFO] Logon success: FIX.4.4:0c6ba5672f96498abe52990b491f002c->SERVER
[2026-04-29 13:10:12] [INFO] Order manager session set: FIX.4.4:0c6ba5672f96498abe52990b491f002c->SERVER
[2026-04-29 13:10:12] [DEBUG] Emitting event 'fix:logon' to 1 handler(s)
[2026-04-29 13:10:14] [DEBUG] POST https://papertrade.algotrade.vn/accounting/api/fix-account-info/get-fix-id succeeded status_code=200
[2026-04-29 13:10:14] [INFO] event=fix_id_resolved username=Group16 fixAccountID=95bf1129dd2c4e4a96720ec3bfdceb06
[2026-04-29 13:10:14] [INFO] Initialized KafkaMarketDataClient: 52.77.119.94:9092, merge_updates=True
[2026-04-29 13:10:14] [INFO] Subscribed to HNXDS:VN30F2605 (topic: real.HNXDS.VN30F2605)
[2026-04-29 13:10:14] [INFO] Starting Kafka consumer for topics: ['real.HNXDS.VN30F2605']
[2026-04-29 13:10:15] [INFO] Kafka consumer thread started
[2026-04-29 13:10:15] [INFO] Kafka consumer started
[2026-04-29 13:10:42] [DEBUG] [TO ADMIN] 8=FIX.4.4|9=100|35=0|34=2|49=0c6ba5672f96498abe52990b491f002c|52=20260429-06:10:42.096|56=SERVER|1=main|553=Group16|10=163|
[2026-04-29 13:10:43] [DEBUG] [FROM ADMIN] 8=FIX.4.4|9=81|35=0|34=2|49=SERVER|52=20260429-06:10:43.325|56=0c6ba5672f96498abe52990b491f002c|10=020|
[2026-04-29 13:11:12] [DEBUG] [TO ADMIN] 8=FIX.4.4|9=100|35=0|34=3|49=0c6ba5672f96498abe52990b491f002c|52=20260429-06:11:12.274|56=SERVER|1=main|553=Group16|10=160|
[2026-04-29 13:11:13] [DEBUG] [FROM ADMIN] 8=FIX.4.4|9=81|35=0|34=3|49=SERVER|52=20260429-06:11:13.325|56=0c6ba5672f96498abe52990b491f002c|10=019|
[2026-04-29 13:11:42] [DEBUG] [TO ADMIN] 8=FIX.4.4|9=100|35=0|34=4|49=0c6ba5672f96498abe52990b491f002c|52=20260429-06:11:42.278|56=SERVER|1=main|553=Group16|10=168|
[2026-04-29 13:11:43] [DEBUG] [FROM ADMIN] 8=FIX.4.4|9=81|35=0|34=4|49=SERVER|52=20260429-06:11:43.325|56=0c6ba5672f96498abe52990b491f002c|10=023|
[2026-04-29 13:12:12] [DEBUG] [TO ADMIN] 8=FIX.4.4|9=100|35=0|34=5|49=0c6ba5672f96498abe52990b491f002c|52=20260429-06:12:12.029|56=SERVER|1=main|553=Group16|10=161|
[2026-04-29 13:12:13] [DEBUG] [FROM ADMIN] 8=FIX.4.4|9=81|35=0|34=5|49=SERVER|52=20260429-06:12:13.325|56=0c6ba5672f96498abe52990b491f002c|10=022|
[2026-04-29 13:12:42] [DEBUG] [TO ADMIN] 8=FIX.4.4|9=100|35=0|34=6|49=0c6ba5672f96498abe52990b491f002c|52=20260429-06:12:42.280|56=SERVER|1=main|553=Group16|10=164|
[2026-04-29 13:12:43] [DEBUG] [FROM ADMIN] 8=FIX.4.4|9=81|35=0|34=6|49=SERVER|52=20260429-06:12:43.325|56=0c6ba5672f96498abe52990b491f002c|10=026|
[2026-04-29 13:13:12] [DEBUG] [TO ADMIN] 8=FIX.4.4|9=100|35=0|34=7|49=0c6ba5672f96498abe52990b491f002c|52=20260429-06:13:12.245|56=SERVER|1=main|553=Group16|10=164|
[2026-04-29 13:13:13] [DEBUG] [FROM ADMIN] 8=FIX.4.4|9=81|35=0|34=7|49=SERVER|52=20260429-06:13:13.325|56=0c6ba5672f96498abe52990b491f002c|10=025|
[2026-04-29 13:13:42] [DEBUG] [TO ADMIN] 8=FIX.4.4|9=100|35=0|34=8|49=0c6ba5672f96498abe52990b491f002c|52=20260429-06:13:42.159|56=SERVER|1=main|553=Group16|10=172|
[2026-04-29 13:13:43] [DEBUG] [FROM ADMIN] 8=FIX.4.4|9=81|35=0|34=8|49=SERVER|52=20260429-06:13:43.325|56=0c6ba5672f96498abe52990b491f002c|10=029|
[2026-04-29 13:14:12] [DEBUG] [TO ADMIN] 8=FIX.4.4|9=100|35=0|34=9|49=0c6ba5672f96498abe52990b491f002c|52=20260429-06:14:12.020|56=SERVER|1=main|553=Group16|10=158|
[2026-04-29 13:14:13] [DEBUG] [FROM ADMIN] 8=FIX.4.4|9=81|35=0|34=9|49=SERVER|52=20260429-06:14:13.325|56=0c6ba5672f96498abe52990b491f002c|10=028|
[2026-04-29 13:14:42] [DEBUG] [TO ADMIN] 8=FIX.4.4|9=101|35=0|34=10|49=0c6ba5672f96498abe52990b491f002c|52=20260429-06:14:42.021|56=SERVER|1=main|553=Group16|10=203|
[2026-04-29 13:14:43] [DEBUG] [FROM ADMIN] 8=FIX.4.4|9=82|35=0|34=10|49=SERVER|52=20260429-06:14:43.325|56=0c6ba5672f96498abe52990b491f002c|10=072|
[2026-04-29 13:15:12] [DEBUG] [TO ADMIN] 8=FIX.4.4|9=101|35=0|34=11|49=0c6ba5672f96498abe52990b491f002c|52=20260429-06:15:12.309|56=SERVER|1=main|553=Group16|10=211|
[2026-04-29 13:15:13] [DEBUG] [FROM ADMIN] 8=FIX.4.4|9=82|35=0|34=11|49=SERVER|52=20260429-06:15:13.325|56=0c6ba5672f96498abe52990b491f002c|10=071|
[2026-04-29 13:15:42] [DEBUG] [TO ADMIN] 8=FIX.4.4|9=101|35=0|34=12|49=0c6ba5672f96498abe52990b491f002c|52=20260429-06:15:42.073|56=SERVER|1=main|553=Group16|10=213|
[2026-04-29 13:15:43] [DEBUG] [FROM ADMIN] 8=FIX.4.4|9=82|35=0|34=12|49=SERVER|52=20260429-06:15:43.325|56=0c6ba5672f96498abe52990b491f002c|10=075|
[2026-04-29 13:16:12] [DEBUG] [TO ADMIN] 8=FIX.4.4|9=101|35=0|34=13|49=0c6ba5672f96498abe52990b491f002c|52=20260429-06:16:12.179|56=SERVER|1=main|553=Group16|10=219|
[2026-04-29 13:16:13] [DEBUG] [FROM ADMIN] 8=FIX.4.4|9=82|35=0|34=13|49=SERVER|52=20260429-06:16:13.325|56=0c6ba5672f96498abe52990b491f002c|10=074|
[2026-04-29 13:16:42] [DEBUG] [TO ADMIN] 8=FIX.4.4|9=101|35=0|34=14|49=0c6ba5672f96498abe52990b491f002c|52=20260429-06:16:42.202|56=SERVER|1=main|553=Group16|10=210|
[2026-04-29 13:16:44] [DEBUG] [FROM ADMIN] 8=FIX.4.4|9=82|35=0|34=14|49=SERVER|52=20260429-06:16:43.325|56=0c6ba5672f96498abe52990b491f002c|10=078|
[2026-04-29 13:17:12] [DEBUG] [TO ADMIN] 8=FIX.4.4|9=101|35=0|34=15|49=0c6ba5672f96498abe52990b491f002c|52=20260429-06:17:12.251|56=SERVER|1=main|553=Group16|10=213|
[2026-04-29 13:17:14] [DEBUG] [FROM ADMIN] 8=FIX.4.4|9=82|35=0|34=15|49=SERVER|52=20260429-06:17:13.325|56=0c6ba5672f96498abe52990b491f002c|10=077|
[2026-04-29 13:17:42] [DEBUG] [TO ADMIN] 8=FIX.4.4|9=101|35=0|34=16|49=0c6ba5672f96498abe52990b491f002c|52=20260429-06:17:42.171|56=SERVER|1=main|553=Group16|10=218|
[2026-04-29 13:17:44] [DEBUG] [FROM ADMIN] 8=FIX.4.4|9=82|35=0|34=16|49=SERVER|52=20260429-06:17:43.325|56=0c6ba5672f96498abe52990b491f002c|10=081|
[2026-04-29 13:18:12] [DEBUG] [TO ADMIN] 8=FIX.4.4|9=101|35=0|34=17|49=0c6ba5672f96498abe52990b491f002c|52=20260429-06:18:12.029|56=SERVER|1=main|553=Group16|10=219|
[2026-04-29 13:18:14] [DEBUG] [FROM ADMIN] 8=FIX.4.4|9=82|35=0|34=17|49=SERVER|52=20260429-06:18:13.325|56=0c6ba5672f96498abe52990b491f002c|10=080|
[2026-04-29 13:18:42] [DEBUG] [TO ADMIN] 8=FIX.4.4|9=101|35=0|34=18|49=0c6ba5672f96498abe52990b491f002c|52=20260429-06:18:42.091|56=SERVER|1=main|553=Group16|10=222|
[2026-04-29 13:18:44] [DEBUG] [FROM ADMIN] 8=FIX.4.4|9=82|35=0|34=18|49=SERVER|52=20260429-06:18:43.325|56=0c6ba5672f96498abe52990b491f002c|10=084|
[2026-04-29 13:19:12] [DEBUG] [TO ADMIN] 8=FIX.4.4|9=101|35=0|34=19|49=0c6ba5672f96498abe52990b491f002c|52=20260429-06:19:12.652|56=SERVER|1=main|553=Group16|10=224|
[2026-04-29 13:19:14] [DEBUG] [FROM ADMIN] 8=FIX.4.4|9=82|35=0|34=19|49=SERVER|52=20260429-06:19:13.325|56=0c6ba5672f96498abe52990b491f002c|10=083|
[2026-04-29 13:19:42] [DEBUG] [TO ADMIN] 8=FIX.4.4|9=101|35=0|34=20|49=0c6ba5672f96498abe52990b491f002c|52=20260429-06:19:42.297|56=SERVER|1=main|553=Group16|10=224|
[2026-04-29 13:19:43] [DEBUG] [FROM ADMIN] 8=FIX.4.4|9=82|35=0|34=20|49=SERVER|52=20260429-06:19:43.325|56=0c6ba5672f96498abe52990b491f002c|10=078|
[2026-04-29 13:20:12] [DEBUG] [TO ADMIN] 8=FIX.4.4|9=101|35=0|34=21|49=0c6ba5672f96498abe52990b491f002c|52=20260429-06:20:12.201|56=SERVER|1=main|553=Group16|10=199|
[2026-04-29 13:20:13] [DEBUG] [FROM ADMIN] 8=FIX.4.4|9=82|35=0|34=21|49=SERVER|52=20260429-06:20:13.325|56=0c6ba5672f96498abe52990b491f002c|10=068|
[2026-04-29 13:20:42] [DEBUG] [TO ADMIN] 8=FIX.4.4|9=101|35=0|34=22|49=0c6ba5672f96498abe52990b491f002c|52=20260429-06:20:42.433|56=SERVER|1=main|553=Group16|10=210|
[2026-04-29 13:20:43] [DEBUG] [FROM ADMIN] 8=FIX.4.4|9=82|35=0|34=22|49=SERVER|52=20260429-06:20:43.325|56=0c6ba5672f96498abe52990b491f002c|10=072|
[2026-04-29 13:21:12] [DEBUG] [TO ADMIN] 8=FIX.4.4|9=101|35=0|34=23|49=0c6ba5672f96498abe52990b491f002c|52=20260429-06:21:12.080|56=SERVER|1=main|553=Group16|10=207|
[2026-04-29 13:21:13] [DEBUG] [FROM ADMIN] 8=FIX.4.4|9=82|35=0|34=23|49=SERVER|52=20260429-06:21:13.325|56=0c6ba5672f96498abe52990b491f002c|10=071|
[2026-04-29 13:21:42] [DEBUG] [TO ADMIN] 8=FIX.4.4|9=101|35=0|34=24|49=0c6ba5672f96498abe52990b491f002c|52=20260429-06:21:42.000|56=SERVER|1=main|553=Group16|10=203|
[2026-04-29 13:21:43] [DEBUG] [FROM ADMIN] 8=FIX.4.4|9=82|35=0|34=24|49=SERVER|52=20260429-06:21:43.325|56=0c6ba5672f96498abe52990b491f002c|10=075|
[2026-04-29 13:22:12] [DEBUG] [TO ADMIN] 8=FIX.4.4|9=101|35=0|34=25|49=0c6ba5672f96498abe52990b491f002c|52=20260429-06:22:12.023|56=SERVER|1=main|553=Group16|10=207|
[2026-04-29 13:22:13] [DEBUG] [FROM ADMIN] 8=FIX.4.4|9=82|35=0|34=25|49=SERVER|52=20260429-06:22:13.325|56=0c6ba5672f96498abe52990b491f002c|10=074|
[2026-04-29 13:22:42] [DEBUG] [TO ADMIN] 8=FIX.4.4|9=101|35=0|34=26|49=0c6ba5672f96498abe52990b491f002c|52=20260429-06:22:42.467|56=SERVER|1=main|553=Group16|10=223|
[2026-04-29 13:22:43] [DEBUG] [FROM ADMIN] 8=FIX.4.4|9=82|35=0|34=26|49=SERVER|52=20260429-06:22:43.325|56=0c6ba5672f96498abe52990b491f002c|10=078|
[2026-04-29 13:23:12] [DEBUG] [TO ADMIN] 8=FIX.4.4|9=101|35=0|34=27|49=0c6ba5672f96498abe52990b491f002c|52=20260429-06:23:12.327|56=SERVER|1=main|553=Group16|10=217|
[2026-04-29 13:23:13] [DEBUG] [FROM ADMIN] 8=FIX.4.4|9=82|35=0|34=27|49=SERVER|52=20260429-06:23:13.325|56=0c6ba5672f96498abe52990b491f002c|10=077|
[2026-04-29 13:23:42] [DEBUG] [TO ADMIN] 8=FIX.4.4|9=101|35=0|34=28|49=0c6ba5672f96498abe52990b491f002c|52=20260429-06:23:42.452|56=SERVER|1=main|553=Group16|10=220|
[2026-04-29 13:23:43] [DEBUG] [FROM ADMIN] 8=FIX.4.4|9=82|35=0|34=28|49=SERVER|52=20260429-06:23:43.325|56=0c6ba5672f96498abe52990b491f002c|10=081|
[2026-04-29 13:24:12] [DEBUG] [TO ADMIN] 8=FIX.4.4|9=101|35=0|34=29|49=0c6ba5672f96498abe52990b491f002c|52=20260429-06:24:12.335|56=SERVER|1=main|553=Group16|10=219|
[2026-04-29 13:24:13] [DEBUG] [FROM ADMIN] 8=FIX.4.4|9=82|35=0|34=29|49=SERVER|52=20260429-06:24:13.325|56=0c6ba5672f96498abe52990b491f002c|10=080|
[2026-04-29 13:24:42] [DEBUG] [TO ADMIN] 8=FIX.4.4|9=101|35=0|34=30|49=0c6ba5672f96498abe52990b491f002c|52=20260429-06:24:42.082|56=SERVER|1=main|553=Group16|10=213|
[2026-04-29 13:24:43] [DEBUG] [FROM ADMIN] 8=FIX.4.4|9=82|35=0|34=30|49=SERVER|52=20260429-06:24:43.325|56=0c6ba5672f96498abe52990b491f002c|10=075|
[2026-04-29 13:25:12] [DEBUG] [TO ADMIN] 8=FIX.4.4|9=101|35=0|34=31|49=0c6ba5672f96498abe52990b491f002c|52=20260429-06:25:12.619|56=SERVER|1=main|553=Group16|10=218|
[2026-04-29 13:25:13] [DEBUG] [FROM ADMIN] 8=FIX.4.4|9=82|35=0|34=31|49=SERVER|52=20260429-06:25:13.325|56=0c6ba5672f96498abe52990b491f002c|10=074|
[2026-04-29 13:25:42] [DEBUG] [TO ADMIN] 8=FIX.4.4|9=101|35=0|34=32|49=0c6ba5672f96498abe52990b491f002c|52=20260429-06:25:42.383|56=SERVER|1=main|553=Group16|10=220|
[2026-04-29 13:25:43] [DEBUG] [FROM ADMIN] 8=FIX.4.4|9=82|35=0|34=32|49=SERVER|52=20260429-06:25:43.325|56=0c6ba5672f96498abe52990b491f002c|10=078|
[2026-04-29 13:26:12] [DEBUG] [TO ADMIN] 8=FIX.4.4|9=101|35=0|34=33|49=0c6ba5672f96498abe52990b491f002c|52=20260429-06:26:12.279|56=SERVER|1=main|553=Group16|10=223|
[2026-04-29 13:26:13] [DEBUG] [FROM ADMIN] 8=FIX.4.4|9=82|35=0|34=33|49=SERVER|52=20260429-06:26:13.325|56=0c6ba5672f96498abe52990b491f002c|10=077|
[2026-04-29 13:26:42] [DEBUG] [TO ADMIN] 8=FIX.4.4|9=101|35=0|34=34|49=0c6ba5672f96498abe52990b491f002c|52=20260429-06:26:42.114|56=SERVER|1=main|553=Group16|10=215|
[2026-04-29 13:26:43] [DEBUG] [FROM ADMIN] 8=FIX.4.4|9=82|35=0|34=34|49=SERVER|52=20260429-06:26:43.325|56=0c6ba5672f96498abe52990b491f002c|10=081|
[2026-04-29 13:27:12] [DEBUG] [TO ADMIN] 8=FIX.4.4|9=101|35=0|34=35|49=0c6ba5672f96498abe52990b491f002c|52=20260429-06:27:12.256|56=SERVER|1=main|553=Group16|10=221|
[2026-04-29 13:27:13] [DEBUG] [FROM ADMIN] 8=FIX.4.4|9=82|35=0|34=35|49=SERVER|52=20260429-06:27:13.326|56=0c6ba5672f96498abe52990b491f002c|10=081|
[2026-04-29 13:27:42] [DEBUG] [TO ADMIN] 8=FIX.4.4|9=101|35=0|34=36|49=0c6ba5672f96498abe52990b491f002c|52=20260429-06:27:42.214|56=SERVER|1=main|553=Group16|10=219|
[2026-04-29 13:27:43] [DEBUG] [FROM ADMIN] 8=FIX.4.4|9=82|35=0|34=36|49=SERVER|52=20260429-06:27:43.325|56=0c6ba5672f96498abe52990b491f002c|10=084|
[2026-04-29 13:28:12] [DEBUG] [TO ADMIN] 8=FIX.4.4|9=101|35=0|34=37|49=0c6ba5672f96498abe52990b491f002c|52=20260429-06:28:12.072|56=SERVER|1=main|553=Group16|10=220|
[2026-04-29 13:28:14] [DEBUG] [FROM ADMIN] 8=FIX.4.4|9=82|35=0|34=37|49=SERVER|52=20260429-06:28:13.325|56=0c6ba5672f96498abe52990b491f002c|10=083|
[2026-04-29 13:28:42] [DEBUG] [TO ADMIN] 8=FIX.4.4|9=101|35=0|34=38|49=0c6ba5672f96498abe52990b491f002c|52=20260429-06:28:42.559|56=SERVER|1=main|553=Group16|10=234|
[2026-04-29 13:28:44] [DEBUG] [FROM ADMIN] 8=FIX.4.4|9=82|35=0|34=38|49=SERVER|52=20260429-06:28:43.325|56=0c6ba5672f96498abe52990b491f002c|10=087|
[2026-04-29 13:29:12] [DEBUG] [TO ADMIN] 8=FIX.4.4|9=101|35=0|34=39|49=0c6ba5672f96498abe52990b491f002c|52=20260429-06:29:12.394|56=SERVER|1=main|553=Group16|10=230|
[2026-04-29 13:29:14] [DEBUG] [FROM ADMIN] 8=FIX.4.4|9=82|35=0|34=39|49=SERVER|52=20260429-06:29:13.325|56=0c6ba5672f96498abe52990b491f002c|10=086|
[2026-04-29 13:29:42] [DEBUG] [TO ADMIN] 8=FIX.4.4|9=101|35=0|34=40|49=0c6ba5672f96498abe52990b491f002c|52=20260429-06:29:42.553|56=SERVER|1=main|553=Group16|10=222|
[2026-04-29 13:29:44] [DEBUG] [FROM ADMIN] 8=FIX.4.4|9=82|35=0|34=40|49=SERVER|52=20260429-06:29:43.325|56=0c6ba5672f96498abe52990b491f002c|10=081|
[2026-04-29 13:30:12] [DEBUG] [TO ADMIN] 8=FIX.4.4|9=101|35=0|34=41|49=0c6ba5672f96498abe52990b491f002c|52=20260429-06:30:12.399|56=SERVER|1=main|553=Group16|10=220|
[2026-04-29 13:30:14] [DEBUG] [FROM ADMIN] 8=FIX.4.4|9=82|35=0|34=41|49=SERVER|52=20260429-06:30:13.325|56=0c6ba5672f96498abe52990b491f002c|10=071|
[2026-04-29 13:30:42] [DEBUG] [TO ADMIN] 8=FIX.4.4|9=101|35=0|34=42|49=0c6ba5672f96498abe52990b491f002c|52=20260429-06:30:42.134|56=SERVER|1=main|553=Group16|10=211|
[2026-04-29 13:30:44] [DEBUG] [FROM ADMIN] 8=FIX.4.4|9=82|35=0|34=42|49=SERVER|52=20260429-06:30:43.326|56=0c6ba5672f96498abe52990b491f002c|10=076|
[2026-04-29 13:31:12] [DEBUG] [TO ADMIN] 8=FIX.4.4|9=101|35=0|34=43|49=0c6ba5672f96498abe52990b491f002c|52=20260429-06:31:12.131|56=SERVER|1=main|553=Group16|10=207|
[2026-04-29 13:31:14] [DEBUG] [FROM ADMIN] 8=FIX.4.4|9=82|35=0|34=43|49=SERVER|52=20260429-06:31:13.325|56=0c6ba5672f96498abe52990b491f002c|10=074|
[2026-04-29 13:31:42] [DEBUG] [TO ADMIN] 8=FIX.4.4|9=101|35=0|34=44|49=0c6ba5672f96498abe52990b491f002c|52=20260429-06:31:42.045|56=SERVER|1=main|553=Group16|10=215|
[2026-04-29 13:31:44] [DEBUG] [FROM ADMIN] 8=FIX.4.4|9=82|35=0|34=44|49=SERVER|52=20260429-06:31:43.325|56=0c6ba5672f96498abe52990b491f002c|10=078|
[2026-04-29 13:32:12] [DEBUG] [TO ADMIN] 8=FIX.4.4|9=101|35=0|34=45|49=0c6ba5672f96498abe52990b491f002c|52=20260429-06:32:12.417|56=SERVER|1=main|553=Group16|10=217|
[2026-04-29 13:32:13] [DEBUG] [FROM ADMIN] 8=FIX.4.4|9=82|35=0|34=45|49=SERVER|52=20260429-06:32:13.325|56=0c6ba5672f96498abe52990b491f002c|10=077|
[2026-04-29 13:32:42] [DEBUG] [TO ADMIN] 8=FIX.4.4|9=101|35=0|34=46|49=0c6ba5672f96498abe52990b491f002c|52=20260429-06:32:42.169|56=SERVER|1=main|553=Group16|10=225|
[2026-04-29 13:32:43] [DEBUG] [FROM ADMIN] 8=FIX.4.4|9=82|35=0|34=46|49=SERVER|52=20260429-06:32:43.325|56=0c6ba5672f96498abe52990b491f002c|10=081|
[2026-04-29 13:33:12] [DEBUG] [TO ADMIN] 8=FIX.4.4|9=101|35=0|34=47|49=0c6ba5672f96498abe52990b491f002c|52=20260429-06:33:12.056|56=SERVER|1=main|553=Group16|10=219|
[2026-04-29 13:33:13] [DEBUG] [FROM ADMIN] 8=FIX.4.4|9=82|35=0|34=47|49=SERVER|52=20260429-06:33:13.325|56=0c6ba5672f96498abe52990b491f002c|10=080|
[2026-04-29 13:33:42] [DEBUG] [TO ADMIN] 8=FIX.4.4|9=101|35=0|34=48|49=0c6ba5672f96498abe52990b491f002c|52=20260429-06:33:42.000|56=SERVER|1=main|553=Group16|10=212|
[2026-04-29 13:33:43] [DEBUG] [FROM ADMIN] 8=FIX.4.4|9=82|35=0|34=48|49=SERVER|52=20260429-06:33:43.325|56=0c6ba5672f96498abe52990b491f002c|10=084|
[2026-04-29 13:34:12] [DEBUG] [TO ADMIN] 8=FIX.4.4|9=101|35=0|34=49|49=0c6ba5672f96498abe52990b491f002c|52=20260429-06:34:12.033|56=SERVER|1=main|553=Group16|10=217|
[2026-04-29 13:34:13] [DEBUG] [FROM ADMIN] 8=FIX.4.4|9=82|35=0|34=49|49=SERVER|52=20260429-06:34:13.325|56=0c6ba5672f96498abe52990b491f002c|10=083|
[2026-04-29 13:34:42] [DEBUG] [TO ADMIN] 8=FIX.4.4|9=101|35=0|34=50|49=0c6ba5672f96498abe52990b491f002c|52=20260429-06:34:42.231|56=SERVER|1=main|553=Group16|10=212|
[2026-04-29 13:34:43] [DEBUG] [FROM ADMIN] 8=FIX.4.4|9=82|35=0|34=50|49=SERVER|52=20260429-06:34:43.325|56=0c6ba5672f96498abe52990b491f002c|10=078|
[2026-04-29 13:35:12] [DEBUG] [TO ADMIN] 8=FIX.4.4|9=101|35=0|34=51|49=0c6ba5672f96498abe52990b491f002c|52=20260429-06:35:12.177|56=SERVER|1=main|553=Group16|10=220|
[2026-04-29 13:35:13] [DEBUG] [FROM ADMIN] 8=FIX.4.4|9=82|35=0|34=51|49=SERVER|52=20260429-06:35:13.326|56=0c6ba5672f96498abe52990b491f002c|10=078|
[2026-04-29 13:35:42] [DEBUG] [TO ADMIN] 8=FIX.4.4|9=101|35=0|34=52|49=0c6ba5672f96498abe52990b491f002c|52=20260429-06:35:42.001|56=SERVER|1=main|553=Group16|10=210|
[2026-04-29 13:35:43] [DEBUG] [FROM ADMIN] 8=FIX.4.4|9=82|35=0|34=52|49=SERVER|52=20260429-06:35:43.325|56=0c6ba5672f96498abe52990b491f002c|10=081|
[2026-04-29 13:36:12] [DEBUG] [TO ADMIN] 8=FIX.4.4|9=101|35=0|34=53|49=0c6ba5672f96498abe52990b491f002c|52=20260429-06:36:12.027|56=SERVER|1=main|553=Group16|10=217|
[2026-04-29 13:36:13] [DEBUG] [FROM ADMIN] 8=FIX.4.4|9=82|35=0|34=53|49=SERVER|52=20260429-06:36:13.325|56=0c6ba5672f96498abe52990b491f002c|10=080|
[2026-04-29 13:36:42] [DEBUG] [TO ADMIN] 8=FIX.4.4|9=101|35=0|34=54|49=0c6ba5672f96498abe52990b491f002c|52=20260429-06:36:42.172|56=SERVER|1=main|553=Group16|10=222|
[2026-04-29 13:36:43] [DEBUG] [FROM ADMIN] 8=FIX.4.4|9=82|35=0|34=54|49=SERVER|52=20260429-06:36:43.326|56=0c6ba5672f96498abe52990b491f002c|10=085|
[2026-04-29 13:37:12] [DEBUG] [TO ADMIN] 8=FIX.4.4|9=101|35=0|34=55|49=0c6ba5672f96498abe52990b491f002c|52=20260429-06:37:12.628|56=SERVER|1=main|553=Group16|10=227|
[2026-04-29 13:37:13] [DEBUG] [FROM ADMIN] 8=FIX.4.4|9=82|35=0|34=55|49=SERVER|52=20260429-06:37:13.325|56=0c6ba5672f96498abe52990b491f002c|10=083|
[2026-04-29 13:37:42] [DEBUG] [TO ADMIN] 8=FIX.4.4|9=101|35=0|34=56|49=0c6ba5672f96498abe52990b491f002c|52=20260429-06:37:42.404|56=SERVER|1=main|553=Group16|10=223|
[2026-04-29 13:37:43] [DEBUG] [FROM ADMIN] 8=FIX.4.4|9=82|35=0|34=56|49=SERVER|52=20260429-06:37:43.325|56=0c6ba5672f96498abe52990b491f002c|10=087|
[2026-04-29 13:38:12] [DEBUG] [TO ADMIN] 8=FIX.4.4|9=101|35=0|34=57|49=0c6ba5672f96498abe52990b491f002c|52=20260429-06:38:12.194|56=SERVER|1=main|553=Group16|10=228|
[2026-04-29 13:38:13] [DEBUG] [FROM ADMIN] 8=FIX.4.4|9=82|35=0|34=57|49=SERVER|52=20260429-06:38:13.325|56=0c6ba5672f96498abe52990b491f002c|10=086|
[2026-04-29 13:38:42] [DEBUG] [TO ADMIN] 8=FIX.4.4|9=101|35=0|34=58|49=0c6ba5672f96498abe52990b491f002c|52=20260429-06:38:42.305|56=SERVER|1=main|553=Group16|10=226|
[2026-04-29 13:38:43] [DEBUG] [FROM ADMIN] 8=FIX.4.4|9=82|35=0|34=58|49=SERVER|52=20260429-06:38:43.325|56=0c6ba5672f96498abe52990b491f002c|10=090|
[2026-04-29 13:39:12] [DEBUG] [TO ADMIN] 8=FIX.4.4|9=101|35=0|34=59|49=0c6ba5672f96498abe52990b491f002c|52=20260429-06:39:12.018|56=SERVER|1=main|553=Group16|10=226|
[2026-04-29 13:39:13] [DEBUG] [FROM ADMIN] 8=FIX.4.4|9=82|35=0|34=59|49=SERVER|52=20260429-06:39:13.325|56=0c6ba5672f96498abe52990b491f002c|10=089|
[2026-04-29 13:39:42] [DEBUG] [TO ADMIN] 8=FIX.4.4|9=101|35=0|34=60|49=0c6ba5672f96498abe52990b491f002c|52=20260429-06:39:42.108|56=SERVER|1=main|553=Group16|10=221|
[2026-04-29 13:39:43] [DEBUG] [FROM ADMIN] 8=FIX.4.4|9=82|35=0|34=60|49=SERVER|52=20260429-06:39:43.325|56=0c6ba5672f96498abe52990b491f002c|10=084|
[2026-04-29 13:40:12] [DEBUG] [TO ADMIN] 8=FIX.4.4|9=101|35=0|34=61|49=0c6ba5672f96498abe52990b491f002c|52=20260429-06:40:12.165|56=SERVER|1=main|553=Group16|10=214|
[2026-04-29 13:40:13] [DEBUG] [FROM ADMIN] 8=FIX.4.4|9=82|35=0|34=61|49=SERVER|52=20260429-06:40:13.325|56=0c6ba5672f96498abe52990b491f002c|10=074|
[2026-04-29 13:40:42] [DEBUG] [TO ADMIN] 8=FIX.4.4|9=101|35=0|34=62|49=0c6ba5672f96498abe52990b491f002c|52=20260429-06:40:42.122|56=SERVER|1=main|553=Group16|10=211|
[2026-04-29 13:40:44] [DEBUG] [FROM ADMIN] 8=FIX.4.4|9=82|35=0|34=62|49=SERVER|52=20260429-06:40:43.325|56=0c6ba5672f96498abe52990b491f002c|10=078|
[2026-04-29 13:41:12] [DEBUG] [TO ADMIN] 8=FIX.4.4|9=101|35=0|34=63|49=0c6ba5672f96498abe52990b491f002c|52=20260429-06:41:12.053|56=SERVER|1=main|553=Group16|10=213|
[2026-04-29 13:41:14] [DEBUG] [FROM ADMIN] 8=FIX.4.4|9=82|35=0|34=63|49=SERVER|52=20260429-06:41:13.325|56=0c6ba5672f96498abe52990b491f002c|10=077|
[2026-04-29 13:41:42] [DEBUG] [TO ADMIN] 8=FIX.4.4|9=101|35=0|34=64|49=0c6ba5672f96498abe52990b491f002c|52=20260429-06:41:42.109|56=SERVER|1=main|553=Group16|10=219|
[2026-04-29 13:41:44] [DEBUG] [FROM ADMIN] 8=FIX.4.4|9=82|35=0|34=64|49=SERVER|52=20260429-06:41:43.325|56=0c6ba5672f96498abe52990b491f002c|10=081|
[2026-04-29 13:42:12] [DEBUG] [TO ADMIN] 8=FIX.4.4|9=101|35=0|34=65|49=0c6ba5672f96498abe52990b491f002c|52=20260429-06:42:12.058|56=SERVER|1=main|553=Group16|10=221|
[2026-04-29 13:42:14] [DEBUG] [FROM ADMIN] 8=FIX.4.4|9=82|35=0|34=65|49=SERVER|52=20260429-06:42:13.325|56=0c6ba5672f96498abe52990b491f002c|10=080|
[2026-04-29 13:43:01] [DEBUG] [TO ADMIN] 8=FIX.4.4|9=110|35=1|34=66|49=0c6ba5672f96498abe52990b491f002c|52=20260429-06:43:01.864|56=SERVER|1=main|112=TEST|553=Group16|10=245|
[2026-04-29 13:43:14] [DEBUG] [FROM ADMIN] 8=FIX.4.4|9=82|35=0|34=66|49=SERVER|52=20260429-06:42:43.325|56=0c6ba5672f96498abe52990b491f002c|10=084|
[2026-04-29 13:43:14] [DEBUG] [FROM ADMIN] 8=FIX.4.4|9=91|35=1|34=67|49=SERVER|52=20260429-06:42:56.325|56=0c6ba5672f96498abe52990b491f002c|112=TEST|10=108|
[2026-04-29 13:43:14] [DEBUG] [TO ADMIN] 8=FIX.4.4|9=110|35=0|34=67|49=0c6ba5672f96498abe52990b491f002c|52=20260429-06:43:14.153|56=SERVER|1=main|112=TEST|553=Group16|10=240|
[2026-04-29 13:43:14] [DEBUG] [FROM ADMIN] 8=FIX.4.4|9=91|35=0|34=68|49=SERVER|52=20260429-06:43:12.315|56=0c6ba5672f96498abe52990b491f002c|112=TEST|10=100|
[2026-04-29 13:43:43] [DEBUG] [FROM ADMIN] 8=FIX.4.4|9=82|35=0|34=69|49=SERVER|52=20260429-06:43:42.325|56=0c6ba5672f96498abe52990b491f002c|10=087|
[2026-04-29 13:43:44] [DEBUG] [TO ADMIN] 8=FIX.4.4|9=101|35=0|34=68|49=0c6ba5672f96498abe52990b491f002c|52=20260429-06:43:44.487|56=SERVER|1=main|553=Group16|10=236|
[2026-04-29 13:44:12] [DEBUG] [FROM ADMIN] 8=FIX.4.4|9=82|35=0|34=70|49=SERVER|52=20260429-06:44:12.325|56=0c6ba5672f96498abe52990b491f002c|10=077|
[2026-04-29 13:44:14] [DEBUG] [TO ADMIN] 8=FIX.4.4|9=101|35=0|34=69|49=0c6ba5672f96498abe52990b491f002c|52=20260429-06:44:14.174|56=SERVER|1=main|553=Group16|10=228|
[2026-04-29 13:44:43] [DEBUG] [FROM ADMIN] 8=FIX.4.4|9=82|35=0|34=71|49=SERVER|52=20260429-06:44:42.325|56=0c6ba5672f96498abe52990b491f002c|10=081|
[2026-04-29 13:44:44] [DEBUG] [TO ADMIN] 8=FIX.4.4|9=101|35=0|34=70|49=0c6ba5672f96498abe52990b491f002c|52=20260429-06:44:44.033|56=SERVER|1=main|553=Group16|10=217|
[2026-04-29 13:45:13] [DEBUG] [FROM ADMIN] 8=FIX.4.4|9=82|35=0|34=72|49=SERVER|52=20260429-06:45:12.325|56=0c6ba5672f96498abe52990b491f002c|10=080|
[2026-04-29 13:45:14] [DEBUG] [TO ADMIN] 8=FIX.4.4|9=101|35=0|34=71|49=0c6ba5672f96498abe52990b491f002c|52=20260429-06:45:14.081|56=SERVER|1=main|553=Group16|10=219|
[2026-04-29 13:45:43] [DEBUG] [FROM ADMIN] 8=FIX.4.4|9=82|35=0|34=73|49=SERVER|52=20260429-06:45:42.325|56=0c6ba5672f96498abe52990b491f002c|10=084|
[2026-04-29 13:45:44] [DEBUG] [TO ADMIN] 8=FIX.4.4|9=101|35=0|34=72|49=0c6ba5672f96498abe52990b491f002c|52=20260429-06:45:44.049|56=SERVER|1=main|553=Group16|10=227|
[2026-04-29 13:46:13] [DEBUG] [FROM ADMIN] 8=FIX.4.4|9=82|35=0|34=74|49=SERVER|52=20260429-06:46:12.325|56=0c6ba5672f96498abe52990b491f002c|10=083|
[2026-04-29 13:46:14] [DEBUG] [TO ADMIN] 8=FIX.4.4|9=101|35=0|34=73|49=0c6ba5672f96498abe52990b491f002c|52=20260429-06:46:14.126|56=SERVER|1=main|553=Group16|10=222|
[2026-04-29 13:46:43] [DEBUG] [FROM ADMIN] 8=FIX.4.4|9=82|35=0|34=75|49=SERVER|52=20260429-06:46:42.325|56=0c6ba5672f96498abe52990b491f002c|10=087|
[2026-04-29 13:46:44] [DEBUG] [TO ADMIN] 8=FIX.4.4|9=101|35=0|34=74|49=0c6ba5672f96498abe52990b491f002c|52=20260429-06:46:44.528|56=SERVER|1=main|553=Group16|10=232|
[2026-04-29 13:47:13] [DEBUG] [FROM ADMIN] 8=FIX.4.4|9=82|35=0|34=76|49=SERVER|52=20260429-06:47:12.325|56=0c6ba5672f96498abe52990b491f002c|10=086|
[2026-04-29 13:47:14] [DEBUG] [TO ADMIN] 8=FIX.4.4|9=101|35=0|34=75|49=0c6ba5672f96498abe52990b491f002c|52=20260429-06:47:14.318|56=SERVER|1=main|553=Group16|10=228|
[2026-04-29 13:47:43] [DEBUG] [FROM ADMIN] 8=FIX.4.4|9=82|35=0|34=77|49=SERVER|52=20260429-06:47:42.325|56=0c6ba5672f96498abe52990b491f002c|10=090|
[2026-04-29 13:47:44] [DEBUG] [TO ADMIN] 8=FIX.4.4|9=101|35=0|34=76|49=0c6ba5672f96498abe52990b491f002c|52=20260429-06:47:44.024|56=SERVER|1=main|553=Group16|10=226|
[2026-04-29 13:48:12] [DEBUG] [FROM ADMIN] 8=FIX.4.4|9=82|35=0|34=78|49=SERVER|52=20260429-06:48:12.325|56=0c6ba5672f96498abe52990b491f002c|10=089|
[2026-04-29 13:48:14] [DEBUG] [TO ADMIN] 8=FIX.4.4|9=101|35=0|34=77|49=0c6ba5672f96498abe52990b491f002c|52=20260429-06:48:14.186|56=SERVER|1=main|553=Group16|10=234|
[2026-04-29 13:48:43] [DEBUG] [FROM ADMIN] 8=FIX.4.4|9=82|35=0|34=79|49=SERVER|52=20260429-06:48:42.325|56=0c6ba5672f96498abe52990b491f002c|10=093|
[2026-04-29 13:48:44] [DEBUG] [TO ADMIN] 8=FIX.4.4|9=101|35=0|34=78|49=0c6ba5672f96498abe52990b491f002c|52=20260429-06:48:44.967|56=SERVER|1=main|553=Group16|10=245|
[2026-04-29 13:49:12] [DEBUG] [FROM ADMIN] 8=FIX.4.4|9=82|35=0|34=80|49=SERVER|52=20260429-06:49:12.325|56=0c6ba5672f96498abe52990b491f002c|10=083|
[2026-04-29 13:49:14] [DEBUG] [TO ADMIN] 8=FIX.4.4|9=101|35=0|34=79|49=0c6ba5672f96498abe52990b491f002c|52=20260429-06:49:14.532|56=SERVER|1=main|553=Group16|10=232|
[2026-04-29 13:49:42] [DEBUG] [FROM ADMIN] 8=FIX.4.4|9=82|35=0|34=81|49=SERVER|52=20260429-06:49:42.325|56=0c6ba5672f96498abe52990b491f002c|10=087|
[2026-04-29 13:49:44] [DEBUG] [TO ADMIN] 8=FIX.4.4|9=101|35=0|34=80|49=0c6ba5672f96498abe52990b491f002c|52=20260429-06:49:44.042|56=SERVER|1=main|553=Group16|10=223|
[2026-04-29 13:50:12] [DEBUG] [FROM ADMIN] 8=FIX.4.4|9=82|35=0|34=82|49=SERVER|52=20260429-06:50:12.325|56=0c6ba5672f96498abe52990b491f002c|10=077|
[2026-04-29 13:50:14] [DEBUG] [TO ADMIN] 8=FIX.4.4|9=101|35=0|34=81|49=0c6ba5672f96498abe52990b491f002c|52=20260429-06:50:14.214|56=SERVER|1=main|553=Group16|10=214|
[2026-04-29 13:50:42] [DEBUG] [FROM ADMIN] 8=FIX.4.4|9=82|35=0|34=83|49=SERVER|52=20260429-06:50:42.325|56=0c6ba5672f96498abe52990b491f002c|10=081|
[2026-04-29 13:50:44] [DEBUG] [TO ADMIN] 8=FIX.4.4|9=101|35=0|34=82|49=0c6ba5672f96498abe52990b491f002c|52=20260429-06:50:44.190|56=SERVER|1=main|553=Group16|10=221|
[2026-04-29 13:51:12] [DEBUG] [FROM ADMIN] 8=FIX.4.4|9=82|35=0|34=84|49=SERVER|52=20260429-06:51:12.325|56=0c6ba5672f96498abe52990b491f002c|10=080|
[2026-04-29 13:51:14] [DEBUG] [TO ADMIN] 8=FIX.4.4|9=101|35=0|34=83|49=0c6ba5672f96498abe52990b491f002c|52=20260429-06:51:14.022|56=SERVER|1=main|553=Group16|10=214|
[2026-04-29 13:51:42] [DEBUG] [FROM ADMIN] 8=FIX.4.4|9=82|35=0|34=85|49=SERVER|52=20260429-06:51:42.325|56=0c6ba5672f96498abe52990b491f002c|10=084|
[2026-04-29 13:51:44] [DEBUG] [TO ADMIN] 8=FIX.4.4|9=101|35=0|34=84|49=0c6ba5672f96498abe52990b491f002c|52=20260429-06:51:44.035|56=SERVER|1=main|553=Group16|10=222|
[2026-04-29 13:52:12] [DEBUG] [FROM ADMIN] 8=FIX.4.4|9=82|35=0|34=86|49=SERVER|52=20260429-06:52:12.325|56=0c6ba5672f96498abe52990b491f002c|10=083|
[2026-04-29 13:52:14] [DEBUG] [TO ADMIN] 8=FIX.4.4|9=101|35=0|34=85|49=0c6ba5672f96498abe52990b491f002c|52=20260429-06:52:14.592|56=SERVER|1=main|553=Group16|10=229|
[2026-04-29 13:52:42] [DEBUG] [FROM ADMIN] 8=FIX.4.4|9=82|35=0|34=87|49=SERVER|52=20260429-06:52:42.325|56=0c6ba5672f96498abe52990b491f002c|10=087|
[2026-04-29 13:52:44] [DEBUG] [TO ADMIN] 8=FIX.4.4|9=101|35=0|34=86|49=0c6ba5672f96498abe52990b491f002c|52=20260429-06:52:44.340|56=SERVER|1=main|553=Group16|10=224|
[2026-04-29 13:53:12] [DEBUG] [FROM ADMIN] 8=FIX.4.4|9=82|35=0|34=88|49=SERVER|52=20260429-06:53:12.325|56=0c6ba5672f96498abe52990b491f002c|10=086|
[2026-04-29 13:53:14] [DEBUG] [TO ADMIN] 8=FIX.4.4|9=101|35=0|34=87|49=0c6ba5672f96498abe52990b491f002c|52=20260429-06:53:14.026|56=SERVER|1=main|553=Group16|10=224|
[2026-04-29 13:53:42] [DEBUG] [FROM ADMIN] 8=FIX.4.4|9=82|35=0|34=89|49=SERVER|52=20260429-06:53:42.325|56=0c6ba5672f96498abe52990b491f002c|10=090|
[2026-04-29 13:53:44] [DEBUG] [TO ADMIN] 8=FIX.4.4|9=101|35=0|34=88|49=0c6ba5672f96498abe52990b491f002c|52=20260429-06:53:44.370|56=SERVER|1=main|553=Group16|10=230|
[2026-04-29 13:54:12] [DEBUG] [FROM ADMIN] 8=FIX.4.4|9=82|35=0|34=90|49=SERVER|52=20260429-06:54:12.325|56=0c6ba5672f96498abe52990b491f002c|10=080|
[2026-04-29 13:54:14] [DEBUG] [TO ADMIN] 8=FIX.4.4|9=101|35=0|34=89|49=0c6ba5672f96498abe52990b491f002c|52=20260429-06:54:14.438|56=SERVER|1=main|553=Group16|10=234|
[2026-04-29 13:54:42] [DEBUG] [FROM ADMIN] 8=FIX.4.4|9=82|35=0|34=91|49=SERVER|52=20260429-06:54:42.326|56=0c6ba5672f96498abe52990b491f002c|10=085|
[2026-04-29 13:54:44] [DEBUG] [TO ADMIN] 8=FIX.4.4|9=101|35=0|34=90|49=0c6ba5672f96498abe52990b491f002c|52=20260429-06:54:44.317|56=SERVER|1=main|553=Group16|10=225|
[2026-04-29 13:55:12] [DEBUG] [FROM ADMIN] 8=FIX.4.4|9=82|35=0|34=92|49=SERVER|52=20260429-06:55:12.325|56=0c6ba5672f96498abe52990b491f002c|10=083|
[2026-04-29 13:55:14] [DEBUG] [TO ADMIN] 8=FIX.4.4|9=101|35=0|34=91|49=0c6ba5672f96498abe52990b491f002c|52=20260429-06:55:14.149|56=SERVER|1=main|553=Group16|10=227|
[2026-04-29 13:55:42] [DEBUG] [FROM ADMIN] 8=FIX.4.4|9=82|35=0|34=93|49=SERVER|52=20260429-06:55:42.325|56=0c6ba5672f96498abe52990b491f002c|10=087|
[2026-04-29 13:55:44] [DEBUG] [TO ADMIN] 8=FIX.4.4|9=101|35=0|34=92|49=0c6ba5672f96498abe52990b491f002c|52=20260429-06:55:44.042|56=SERVER|1=main|553=Group16|10=223|
[2026-04-29 13:56:12] [DEBUG] [FROM ADMIN] 8=FIX.4.4|9=82|35=0|34=94|49=SERVER|52=20260429-06:56:12.325|56=0c6ba5672f96498abe52990b491f002c|10=086|
[2026-04-29 13:56:14] [DEBUG] [TO ADMIN] 8=FIX.4.4|9=101|35=0|34=93|49=0c6ba5672f96498abe52990b491f002c|52=20260429-06:56:14.249|56=SERVER|1=main|553=Group16|10=231|
[2026-04-29 13:56:43] [DEBUG] [FROM ADMIN] 8=FIX.4.4|9=82|35=0|34=95|49=SERVER|52=20260429-06:56:42.325|56=0c6ba5672f96498abe52990b491f002c|10=090|
[2026-04-29 13:56:44] [DEBUG] [TO ADMIN] 8=FIX.4.4|9=101|35=0|34=94|49=0c6ba5672f96498abe52990b491f002c|52=20260429-06:56:44.302|56=SERVER|1=main|553=Group16|10=225|
[2026-04-29 13:57:13] [DEBUG] [FROM ADMIN] 8=FIX.4.4|9=82|35=0|34=96|49=SERVER|52=20260429-06:57:12.325|56=0c6ba5672f96498abe52990b491f002c|10=089|
[2026-04-29 13:57:14] [DEBUG] [TO ADMIN] 8=FIX.4.4|9=101|35=0|34=95|49=0c6ba5672f96498abe52990b491f002c|52=20260429-06:57:14.134|56=SERVER|1=main|553=Group16|10=227|
[2026-04-29 13:57:43] [DEBUG] [FROM ADMIN] 8=FIX.4.4|9=82|35=0|34=97|49=SERVER|52=20260429-06:57:42.325|56=0c6ba5672f96498abe52990b491f002c|10=093|
[2026-04-29 13:57:44] [DEBUG] [TO ADMIN] 8=FIX.4.4|9=101|35=0|34=96|49=0c6ba5672f96498abe52990b491f002c|52=20260429-06:57:44.490|56=SERVER|1=main|553=Group16|10=236|
[2026-04-29 13:58:13] [DEBUG] [FROM ADMIN] 8=FIX.4.4|9=82|35=0|34=98|49=SERVER|52=20260429-06:58:12.325|56=0c6ba5672f96498abe52990b491f002c|10=092|
[2026-04-29 13:58:14] [DEBUG] [TO ADMIN] 8=FIX.4.4|9=101|35=0|34=97|49=0c6ba5672f96498abe52990b491f002c|52=20260429-06:58:14.189|56=SERVER|1=main|553=Group16|10=240|
[2026-04-29 13:58:43] [DEBUG] [FROM ADMIN] 8=FIX.4.4|9=82|35=0|34=99|49=SERVER|52=20260429-06:58:42.325|56=0c6ba5672f96498abe52990b491f002c|10=096|
[2026-04-29 13:58:44] [DEBUG] [TO ADMIN] 8=FIX.4.4|9=101|35=0|34=98|49=0c6ba5672f96498abe52990b491f002c|52=20260429-06:58:44.151|56=SERVER|1=main|553=Group16|10=233|
[2026-04-29 13:59:13] [DEBUG] [FROM ADMIN] 8=FIX.4.4|9=83|35=0|34=100|49=SERVER|52=20260429-06:59:12.325|56=0c6ba5672f96498abe52990b491f002c|10=126|
[2026-04-29 13:59:14] [DEBUG] [TO ADMIN] 8=FIX.4.4|9=101|35=0|34=99|49=0c6ba5672f96498abe52990b491f002c|52=20260429-06:59:14.068|56=SERVER|1=main|553=Group16|10=239|
[2026-04-29 13:59:43] [DEBUG] [FROM ADMIN] 8=FIX.4.4|9=83|35=0|34=101|49=SERVER|52=20260429-06:59:42.325|56=0c6ba5672f96498abe52990b491f002c|10=130|
[2026-04-29 13:59:44] [DEBUG] [TO ADMIN] 8=FIX.4.4|9=102|35=0|34=100|49=0c6ba5672f96498abe52990b491f002c|52=20260429-06:59:44.205|56=SERVER|1=main|553=Group16|10=011|
[2026-04-29 14:00:13] [DEBUG] [FROM ADMIN] 8=FIX.4.4|9=83|35=0|34=102|49=SERVER|52=20260429-07:00:12.325|56=0c6ba5672f96498abe52990b491f002c|10=115|
[2026-04-29 14:00:14] [DEBUG] [TO ADMIN] 8=FIX.4.4|9=102|35=0|34=101|49=0c6ba5672f96498abe52990b491f002c|52=20260429-07:00:14.442|56=SERVER|1=main|553=Group16|10=255|
[2026-04-29 14:00:43] [DEBUG] [FROM ADMIN] 8=FIX.4.4|9=83|35=0|34=103|49=SERVER|52=20260429-07:00:42.325|56=0c6ba5672f96498abe52990b491f002c|10=119|
[2026-04-29 14:00:44] [DEBUG] [TO ADMIN] 8=FIX.4.4|9=102|35=0|34=102|49=0c6ba5672f96498abe52990b491f002c|52=20260429-07:00:44.164|56=SERVER|1=main|553=Group16|10=004|
[2026-04-29 14:01:13] [DEBUG] [FROM ADMIN] 8=FIX.4.4|9=83|35=0|34=104|49=SERVER|52=20260429-07:01:12.325|56=0c6ba5672f96498abe52990b491f002c|10=118|
[2026-04-29 14:01:14] [DEBUG] [TO ADMIN] 8=FIX.4.4|9=102|35=0|34=103|49=0c6ba5672f96498abe52990b491f002c|52=20260429-07:01:14.181|56=SERVER|1=main|553=Group16|10=002|
[2026-04-29 14:01:43] [DEBUG] [FROM ADMIN] 8=FIX.4.4|9=83|35=0|34=105|49=SERVER|52=20260429-07:01:42.325|56=0c6ba5672f96498abe52990b491f002c|10=122|
[2026-04-29 14:01:44] [DEBUG] [TO ADMIN] 8=FIX.4.4|9=102|35=0|34=104|49=0c6ba5672f96498abe52990b491f002c|52=20260429-07:01:44.810|56=SERVER|1=main|553=Group16|10=005|
[2026-04-29 14:02:13] [DEBUG] [FROM ADMIN] 8=FIX.4.4|9=83|35=0|34=106|49=SERVER|52=20260429-07:02:12.325|56=0c6ba5672f96498abe52990b491f002c|10=121|
[2026-04-29 14:02:14] [DEBUG] [TO ADMIN] 8=FIX.4.4|9=102|35=0|34=105|49=0c6ba5672f96498abe52990b491f002c|52=20260429-07:02:14.453|56=SERVER|1=main|553=Group16|10=007|
[2026-04-29 14:02:43] [DEBUG] [FROM ADMIN] 8=FIX.4.4|9=83|35=0|34=107|49=SERVER|52=20260429-07:02:42.325|56=0c6ba5672f96498abe52990b491f002c|10=125|
[2026-04-29 14:02:44] [DEBUG] [TO ADMIN] 8=FIX.4.4|9=102|35=0|34=106|49=0c6ba5672f96498abe52990b491f002c|52=20260429-07:02:44.201|56=SERVER|1=main|553=Group16|10=002|
[2026-04-29 14:03:12] [DEBUG] [FROM ADMIN] 8=FIX.4.4|9=83|35=0|34=108|49=SERVER|52=20260429-07:03:12.325|56=0c6ba5672f96498abe52990b491f002c|10=124|
[2026-04-29 14:03:14] [DEBUG] [TO ADMIN] 8=FIX.4.4|9=102|35=0|34=107|49=0c6ba5672f96498abe52990b491f002c|52=20260429-07:03:14.315|56=SERVER|1=main|553=Group16|10=007|
[2026-04-29 14:03:42] [DEBUG] [FROM ADMIN] 8=FIX.4.4|9=83|35=0|34=109|49=SERVER|52=20260429-07:03:42.325|56=0c6ba5672f96498abe52990b491f002c|10=128|
[2026-04-29 14:03:44] [DEBUG] [TO ADMIN] 8=FIX.4.4|9=102|35=0|34=108|49=0c6ba5672f96498abe52990b491f002c|52=20260429-07:03:44.273|56=SERVER|1=main|553=Group16|10=014|
[2026-04-29 14:04:12] [DEBUG] [FROM ADMIN] 8=FIX.4.4|9=83|35=0|34=110|49=SERVER|52=20260429-07:04:12.325|56=0c6ba5672f96498abe52990b491f002c|10=118|
[2026-04-29 14:04:14] [DEBUG] [TO ADMIN] 8=FIX.4.4|9=102|35=0|34=109|49=0c6ba5672f96498abe52990b491f002c|52=20260429-07:04:14.130|56=SERVER|1=main|553=Group16|10=005|
[2026-04-29 14:04:42] [DEBUG] [FROM ADMIN] 8=FIX.4.4|9=83|35=0|34=111|49=SERVER|52=20260429-07:04:42.325|56=0c6ba5672f96498abe52990b491f002c|10=122|
[2026-04-29 14:04:44] [DEBUG] [TO ADMIN] 8=FIX.4.4|9=102|35=0|34=110|49=0c6ba5672f96498abe52990b491f002c|52=20260429-07:04:44.007|56=SERVER|1=main|553=Group16|10=003|
[2026-04-29 14:05:12] [DEBUG] [FROM ADMIN] 8=FIX.4.4|9=83|35=0|34=112|49=SERVER|52=20260429-07:05:12.325|56=0c6ba5672f96498abe52990b491f002c|10=121|
[2026-04-29 14:05:14] [DEBUG] [TO ADMIN] 8=FIX.4.4|9=102|35=0|34=111|49=0c6ba5672f96498abe52990b491f002c|52=20260429-07:05:14.610|56=SERVER|1=main|553=Group16|10=002|
[2026-04-29 14:05:42] [DEBUG] [FROM ADMIN] 8=FIX.4.4|9=83|35=0|34=113|49=SERVER|52=20260429-07:05:42.325|56=0c6ba5672f96498abe52990b491f002c|10=125|
[2026-04-29 14:05:44] [DEBUG] [TO ADMIN] 8=FIX.4.4|9=102|35=0|34=112|49=0c6ba5672f96498abe52990b491f002c|52=20260429-07:05:44.328|56=SERVER|1=main|553=Group16|10=012|
[2026-04-29 14:06:12] [DEBUG] [FROM ADMIN] 8=FIX.4.4|9=83|35=0|34=114|49=SERVER|52=20260429-07:06:12.325|56=0c6ba5672f96498abe52990b491f002c|10=124|
[2026-04-29 14:06:14] [DEBUG] [TO ADMIN] 8=FIX.4.4|9=102|35=0|34=113|49=0c6ba5672f96498abe52990b491f002c|52=20260429-07:06:14.038|56=SERVER|1=main|553=Group16|10=009|
[2026-04-29 14:06:42] [DEBUG] [FROM ADMIN] 8=FIX.4.4|9=83|35=0|34=115|49=SERVER|52=20260429-07:06:42.325|56=0c6ba5672f96498abe52990b491f002c|10=128|
[2026-04-29 14:06:44] [DEBUG] [TO ADMIN] 8=FIX.4.4|9=102|35=0|34=114|49=0c6ba5672f96498abe52990b491f002c|52=20260429-07:06:44.296|56=SERVER|1=main|553=Group16|10=019|
[2026-04-29 14:07:12] [DEBUG] [FROM ADMIN] 8=FIX.4.4|9=83|35=0|34=116|49=SERVER|52=20260429-07:07:12.325|56=0c6ba5672f96498abe52990b491f002c|10=127|
[2026-04-29 14:07:14] [DEBUG] [TO ADMIN] 8=FIX.4.4|9=102|35=0|34=115|49=0c6ba5672f96498abe52990b491f002c|52=20260429-07:07:14.229|56=SERVER|1=main|553=Group16|10=014|
[2026-04-29 14:07:42] [DEBUG] [FROM ADMIN] 8=FIX.4.4|9=83|35=0|34=117|49=SERVER|52=20260429-07:07:42.325|56=0c6ba5672f96498abe52990b491f002c|10=131|
[2026-04-29 14:07:44] [DEBUG] [TO ADMIN] 8=FIX.4.4|9=102|35=0|34=116|49=0c6ba5672f96498abe52990b491f002c|52=20260429-07:07:44.172|56=SERVER|1=main|553=Group16|10=015|
[2026-04-29 14:08:12] [DEBUG] [FROM ADMIN] 8=FIX.4.4|9=83|35=0|34=118|49=SERVER|52=20260429-07:08:12.325|56=0c6ba5672f96498abe52990b491f002c|10=130|
[2026-04-29 14:08:14] [DEBUG] [TO ADMIN] 8=FIX.4.4|9=102|35=0|34=117|49=0c6ba5672f96498abe52990b491f002c|52=20260429-07:08:14.042|56=SERVER|1=main|553=Group16|10=010|
[2026-04-29 14:08:42] [DEBUG] [FROM ADMIN] 8=FIX.4.4|9=83|35=0|34=119|49=SERVER|52=20260429-07:08:42.325|56=0c6ba5672f96498abe52990b491f002c|10=134|
[2026-04-29 14:08:44] [DEBUG] [TO ADMIN] 8=FIX.4.4|9=102|35=0|34=118|49=0c6ba5672f96498abe52990b491f002c|52=20260429-07:08:44.447|56=SERVER|1=main|553=Group16|10=023|
[2026-04-29 14:09:12] [DEBUG] [FROM ADMIN] 8=FIX.4.4|9=83|35=0|34=120|49=SERVER|52=20260429-07:09:12.325|56=0c6ba5672f96498abe52990b491f002c|10=124|
[2026-04-29 14:09:14] [DEBUG] [TO ADMIN] 8=FIX.4.4|9=102|35=0|34=119|49=0c6ba5672f96498abe52990b491f002c|52=20260429-07:09:14.193|56=SERVER|1=main|553=Group16|10=020|
[2026-04-29 14:09:42] [DEBUG] [FROM ADMIN] 8=FIX.4.4|9=83|35=0|34=121|49=SERVER|52=20260429-07:09:42.325|56=0c6ba5672f96498abe52990b491f002c|10=128|
[2026-04-29 14:09:44] [DEBUG] [TO ADMIN] 8=FIX.4.4|9=102|35=0|34=120|49=0c6ba5672f96498abe52990b491f002c|52=20260429-07:09:44.544|56=SERVER|1=main|553=Group16|10=015|
[2026-04-29 14:10:12] [DEBUG] [FROM ADMIN] 8=FIX.4.4|9=83|35=0|34=122|49=SERVER|52=20260429-07:10:12.325|56=0c6ba5672f96498abe52990b491f002c|10=118|
[2026-04-29 14:10:14] [DEBUG] [TO ADMIN] 8=FIX.4.4|9=102|35=0|34=121|49=0c6ba5672f96498abe52990b491f002c|52=20260429-07:10:14.171|56=SERVER|1=main|553=Group16|10=001|
[2026-04-29 14:10:42] [DEBUG] [FROM ADMIN] 8=FIX.4.4|9=83|35=0|34=123|49=SERVER|52=20260429-07:10:42.325|56=0c6ba5672f96498abe52990b491f002c|10=122|
[2026-04-29 14:10:44] [DEBUG] [TO ADMIN] 8=FIX.4.4|9=102|35=0|34=122|49=0c6ba5672f96498abe52990b491f002c|52=20260429-07:10:44.271|56=SERVER|1=main|553=Group16|10=006|
[2026-04-29 14:11:13] [DEBUG] [FROM ADMIN] 8=FIX.4.4|9=83|35=0|34=124|49=SERVER|52=20260429-07:11:12.325|56=0c6ba5672f96498abe52990b491f002c|10=121|
[2026-04-29 14:11:14] [DEBUG] [TO ADMIN] 8=FIX.4.4|9=102|35=0|34=123|49=0c6ba5672f96498abe52990b491f002c|52=20260429-07:11:14.097|56=SERVER|1=main|553=Group16|10=011|
[2026-04-29 14:11:43] [DEBUG] [FROM ADMIN] 8=FIX.4.4|9=83|35=0|34=125|49=SERVER|52=20260429-07:11:42.325|56=0c6ba5672f96498abe52990b491f002c|10=125|
[2026-04-29 14:11:44] [DEBUG] [TO ADMIN] 8=FIX.4.4|9=102|35=0|34=124|49=0c6ba5672f96498abe52990b491f002c|52=20260429-07:11:44.199|56=SERVER|1=main|553=Group16|10=018|
[2026-04-29 14:12:13] [DEBUG] [FROM ADMIN] 8=FIX.4.4|9=83|35=0|34=126|49=SERVER|52=20260429-07:12:12.326|56=0c6ba5672f96498abe52990b491f002c|10=125|
[2026-04-29 14:12:14] [DEBUG] [TO ADMIN] 8=FIX.4.4|9=102|35=0|34=125|49=0c6ba5672f96498abe52990b491f002c|52=20260429-07:12:14.002|56=SERVER|1=main|553=Group16|10=000|
[2026-04-29 14:12:43] [DEBUG] [FROM ADMIN] 8=FIX.4.4|9=83|35=0|34=127|49=SERVER|52=20260429-07:12:42.325|56=0c6ba5672f96498abe52990b491f002c|10=128|
[2026-04-29 14:12:44] [DEBUG] [TO ADMIN] 8=FIX.4.4|9=102|35=0|34=126|49=0c6ba5672f96498abe52990b491f002c|52=20260429-07:12:44.351|56=SERVER|1=main|553=Group16|10=011|
[2026-04-29 14:13:13] [DEBUG] [FROM ADMIN] 8=FIX.4.4|9=83|35=0|34=128|49=SERVER|52=20260429-07:13:12.325|56=0c6ba5672f96498abe52990b491f002c|10=127|
[2026-04-29 14:13:14] [DEBUG] [TO ADMIN] 8=FIX.4.4|9=102|35=0|34=127|49=0c6ba5672f96498abe52990b491f002c|52=20260429-07:13:14.154|56=SERVER|1=main|553=Group16|10=011|
[2026-04-29 14:13:43] [DEBUG] [FROM ADMIN] 8=FIX.4.4|9=83|35=0|34=129|49=SERVER|52=20260429-07:13:42.325|56=0c6ba5672f96498abe52990b491f002c|10=131|
[2026-04-29 14:13:44] [DEBUG] [TO ADMIN] 8=FIX.4.4|9=102|35=0|34=128|49=0c6ba5672f96498abe52990b491f002c|52=20260429-07:13:44.596|56=SERVER|1=main|553=Group16|10=025|
[2026-04-29 14:14:13] [DEBUG] [FROM ADMIN] 8=FIX.4.4|9=83|35=0|34=130|49=SERVER|52=20260429-07:14:12.325|56=0c6ba5672f96498abe52990b491f002c|10=121|
[2026-04-29 14:14:14] [DEBUG] [TO ADMIN] 8=FIX.4.4|9=102|35=0|34=129|49=0c6ba5672f96498abe52990b491f002c|52=20260429-07:14:14.282|56=SERVER|1=main|553=Group16|10=016|
[2026-04-29 14:14:43] [DEBUG] [FROM ADMIN] 8=FIX.4.4|9=83|35=0|34=131|49=SERVER|52=20260429-07:14:42.325|56=0c6ba5672f96498abe52990b491f002c|10=125|
[2026-04-29 14:14:44] [DEBUG] [TO ADMIN] 8=FIX.4.4|9=102|35=0|34=130|49=0c6ba5672f96498abe52990b491f002c|52=20260429-07:14:44.014|56=SERVER|1=main|553=Group16|10=004|
[2026-04-29 14:15:13] [DEBUG] [FROM ADMIN] 8=FIX.4.4|9=83|35=0|34=132|49=SERVER|52=20260429-07:15:12.325|56=0c6ba5672f96498abe52990b491f002c|10=124|
[2026-04-29 14:15:14] [DEBUG] [TO ADMIN] 8=FIX.4.4|9=102|35=0|34=131|49=0c6ba5672f96498abe52990b491f002c|52=20260429-07:15:14.075|56=SERVER|1=main|553=Group16|10=010|
[2026-04-29 14:15:43] [DEBUG] [FROM ADMIN] 8=FIX.4.4|9=83|35=0|34=133|49=SERVER|52=20260429-07:15:42.325|56=0c6ba5672f96498abe52990b491f002c|10=128|
[2026-04-29 14:15:44] [DEBUG] [TO ADMIN] 8=FIX.4.4|9=102|35=0|34=132|49=0c6ba5672f96498abe52990b491f002c|52=20260429-07:15:44.220|56=SERVER|1=main|553=Group16|10=006|
[2026-04-29 14:16:13] [DEBUG] [FROM ADMIN] 8=FIX.4.4|9=83|35=0|34=134|49=SERVER|52=20260429-07:16:12.325|56=0c6ba5672f96498abe52990b491f002c|10=127|
[2026-04-29 14:16:14] [DEBUG] [TO ADMIN] 8=FIX.4.4|9=102|35=0|34=133|49=0c6ba5672f96498abe52990b491f002c|52=20260429-07:16:14.740|56=SERVER|1=main|553=Group16|10=012|
[2026-04-29 14:16:43] [DEBUG] [FROM ADMIN] 8=FIX.4.4|9=83|35=0|34=135|49=SERVER|52=20260429-07:16:42.325|56=0c6ba5672f96498abe52990b491f002c|10=131|
[2026-04-29 14:16:44] [DEBUG] [TO ADMIN] 8=FIX.4.4|9=102|35=0|34=134|49=0c6ba5672f96498abe52990b491f002c|52=20260429-07:16:44.159|56=SERVER|1=main|553=Group16|10=020|
[2026-04-29 14:17:13] [DEBUG] [FROM ADMIN] 8=FIX.4.4|9=83|35=0|34=136|49=SERVER|52=20260429-07:17:12.325|56=0c6ba5672f96498abe52990b491f002c|10=130|
[2026-04-29 14:17:14] [DEBUG] [TO ADMIN] 8=FIX.4.4|9=102|35=0|34=135|49=0c6ba5672f96498abe52990b491f002c|52=20260429-07:17:14.080|56=SERVER|1=main|553=Group16|10=012|
[2026-04-29 14:17:43] [DEBUG] [FROM ADMIN] 8=FIX.4.4|9=83|35=0|34=137|49=SERVER|52=20260429-07:17:42.325|56=0c6ba5672f96498abe52990b491f002c|10=134|
[2026-04-29 14:17:44] [DEBUG] [TO ADMIN] 8=FIX.4.4|9=102|35=0|34=136|49=0c6ba5672f96498abe52990b491f002c|52=20260429-07:17:44.054|56=SERVER|1=main|553=Group16|10=017|
[2026-04-29 14:18:12] [DEBUG] [FROM ADMIN] 8=FIX.4.4|9=83|35=0|34=138|49=SERVER|52=20260429-07:18:12.325|56=0c6ba5672f96498abe52990b491f002c|10=133|
[2026-04-29 14:18:14] [DEBUG] [TO ADMIN] 8=FIX.4.4|9=102|35=0|34=137|49=0c6ba5672f96498abe52990b491f002c|52=20260429-07:18:14.008|56=SERVER|1=main|553=Group16|10=015|
[2026-04-29 14:18:42] [DEBUG] [FROM ADMIN] 8=FIX.4.4|9=83|35=0|34=139|49=SERVER|52=20260429-07:18:42.325|56=0c6ba5672f96498abe52990b491f002c|10=137|
[2026-04-29 14:18:44] [DEBUG] [TO ADMIN] 8=FIX.4.4|9=102|35=0|34=138|49=0c6ba5672f96498abe52990b491f002c|52=20260429-07:18:44.838|56=SERVER|1=main|553=Group16|10=030|
[2026-04-29 14:19:12] [DEBUG] [FROM ADMIN] 8=FIX.4.4|9=83|35=0|34=140|49=SERVER|52=20260429-07:19:12.325|56=0c6ba5672f96498abe52990b491f002c|10=127|
[2026-04-29 14:19:14] [DEBUG] [TO ADMIN] 8=FIX.4.4|9=102|35=0|34=139|49=0c6ba5672f96498abe52990b491f002c|52=20260429-07:19:14.388|56=SERVER|1=main|553=Group16|10=029|
[2026-04-29 14:19:42] [DEBUG] [FROM ADMIN] 8=FIX.4.4|9=83|35=0|34=141|49=SERVER|52=20260429-07:19:42.325|56=0c6ba5672f96498abe52990b491f002c|10=131|
[2026-04-29 14:19:44] [DEBUG] [TO ADMIN] 8=FIX.4.4|9=102|35=0|34=140|49=0c6ba5672f96498abe52990b491f002c|52=20260429-07:19:44.077|56=SERVER|1=main|553=Group16|10=019|
[2026-04-29 14:20:12] [DEBUG] [FROM ADMIN] 8=FIX.4.4|9=83|35=0|34=142|49=SERVER|52=20260429-07:20:12.325|56=0c6ba5672f96498abe52990b491f002c|10=121|
[2026-04-29 14:20:14] [DEBUG] [TO ADMIN] 8=FIX.4.4|9=102|35=0|34=141|49=0c6ba5672f96498abe52990b491f002c|52=20260429-07:20:14.277|56=SERVER|1=main|553=Group16|10=011|
[2026-04-29 14:20:42] [DEBUG] [FROM ADMIN] 8=FIX.4.4|9=83|35=0|34=143|49=SERVER|52=20260429-07:20:42.325|56=0c6ba5672f96498abe52990b491f002c|10=125|
[2026-04-29 14:20:44] [DEBUG] [TO ADMIN] 8=FIX.4.4|9=102|35=0|34=142|49=0c6ba5672f96498abe52990b491f002c|52=20260429-07:20:44.159|56=SERVER|1=main|553=Group16|10=014|
[2026-04-29 14:21:12] [DEBUG] [FROM ADMIN] 8=FIX.4.4|9=83|35=0|34=144|49=SERVER|52=20260429-07:21:12.325|56=0c6ba5672f96498abe52990b491f002c|10=124|
[2026-04-29 14:21:14] [DEBUG] [TO ADMIN] 8=FIX.4.4|9=102|35=0|34=143|49=0c6ba5672f96498abe52990b491f002c|52=20260429-07:21:14.082|56=SERVER|1=main|553=Group16|10=008|
[2026-04-29 14:21:42] [DEBUG] [FROM ADMIN] 8=FIX.4.4|9=83|35=0|34=145|49=SERVER|52=20260429-07:21:42.325|56=0c6ba5672f96498abe52990b491f002c|10=128|
[2026-04-29 14:21:44] [DEBUG] [TO ADMIN] 8=FIX.4.4|9=102|35=0|34=144|49=0c6ba5672f96498abe52990b491f002c|52=20260429-07:21:44.656|56=SERVER|1=main|553=Group16|10=019|
[2026-04-29 14:22:12] [DEBUG] [FROM ADMIN] 8=FIX.4.4|9=83|35=0|34=146|49=SERVER|52=20260429-07:22:12.325|56=0c6ba5672f96498abe52990b491f002c|10=127|
[2026-04-29 14:22:14] [DEBUG] [TO ADMIN] 8=FIX.4.4|9=102|35=0|34=145|49=0c6ba5672f96498abe52990b491f002c|52=20260429-07:22:14.354|56=SERVER|1=main|553=Group16|10=013|
[2026-04-29 14:22:42] [DEBUG] [FROM ADMIN] 8=FIX.4.4|9=83|35=0|34=147|49=SERVER|52=20260429-07:22:42.325|56=0c6ba5672f96498abe52990b491f002c|10=131|
[2026-04-29 14:22:44] [DEBUG] [TO ADMIN] 8=FIX.4.4|9=102|35=0|34=146|49=0c6ba5672f96498abe52990b491f002c|52=20260429-07:22:44.075|56=SERVER|1=main|553=Group16|10=017|
[2026-04-29 14:23:12] [DEBUG] [FROM ADMIN] 8=FIX.4.4|9=83|35=0|34=148|49=SERVER|52=20260429-07:23:12.325|56=0c6ba5672f96498abe52990b491f002c|10=130|
[2026-04-29 14:23:14] [DEBUG] [TO ADMIN] 8=FIX.4.4|9=102|35=0|34=147|49=0c6ba5672f96498abe52990b491f002c|52=20260429-07:23:14.149|56=SERVER|1=main|553=Group16|10=018|
[2026-04-29 14:23:42] [DEBUG] [FROM ADMIN] 8=FIX.4.4|9=83|35=0|34=149|49=SERVER|52=20260429-07:23:42.325|56=0c6ba5672f96498abe52990b491f002c|10=134|
[2026-04-29 14:23:44] [DEBUG] [TO ADMIN] 8=FIX.4.4|9=102|35=0|34=148|49=0c6ba5672f96498abe52990b491f002c|52=20260429-07:23:44.094|56=SERVER|1=main|553=Group16|10=021|
[2026-04-29 14:24:12] [DEBUG] [FROM ADMIN] 8=FIX.4.4|9=83|35=0|34=150|49=SERVER|52=20260429-07:24:12.325|56=0c6ba5672f96498abe52990b491f002c|10=124|
[2026-04-29 14:24:14] [DEBUG] [TO ADMIN] 8=FIX.4.4|9=102|35=0|34=149|49=0c6ba5672f96498abe52990b491f002c|52=20260429-07:24:14.186|56=SERVER|1=main|553=Group16|10=022|
[2026-04-29 14:24:42] [DEBUG] [FROM ADMIN] 8=FIX.4.4|9=83|35=0|34=151|49=SERVER|52=20260429-07:24:42.325|56=0c6ba5672f96498abe52990b491f002c|10=128|
[2026-04-29 14:24:44] [DEBUG] [TO ADMIN] 8=FIX.4.4|9=102|35=0|34=150|49=0c6ba5672f96498abe52990b491f002c|52=20260429-07:24:44.038|56=SERVER|1=main|553=Group16|10=013|
[2026-04-29 14:25:12] [DEBUG] [FROM ADMIN] 8=FIX.4.4|9=83|35=0|34=152|49=SERVER|52=20260429-07:25:12.325|56=0c6ba5672f96498abe52990b491f002c|10=127|
[2026-04-29 14:25:14] [DEBUG] [TO ADMIN] 8=FIX.4.4|9=102|35=0|34=151|49=0c6ba5672f96498abe52990b491f002c|52=20260429-07:25:14.258|56=SERVER|1=main|553=Group16|10=016|
[2026-04-29 14:25:42] [DEBUG] [FROM ADMIN] 8=FIX.4.4|9=83|35=0|34=153|49=SERVER|52=20260429-07:25:42.325|56=0c6ba5672f96498abe52990b491f002c|10=131|
[2026-04-29 14:25:44] [DEBUG] [TO ADMIN] 8=FIX.4.4|9=102|35=0|34=152|49=0c6ba5672f96498abe52990b491f002c|52=20260429-07:25:44.732|56=SERVER|1=main|553=Group16|10=017|
[2026-04-29 14:26:13] [DEBUG] [FROM ADMIN] 8=FIX.4.4|9=83|35=0|34=154|49=SERVER|52=20260429-07:26:12.325|56=0c6ba5672f96498abe52990b491f002c|10=130|
[2026-04-29 14:26:14] [DEBUG] [TO ADMIN] 8=FIX.4.4|9=102|35=0|34=153|49=0c6ba5672f96498abe52990b491f002c|52=20260429-07:26:14.123|56=SERVER|1=main|553=Group16|10=010|
[2026-04-29 14:26:43] [DEBUG] [FROM ADMIN] 8=FIX.4.4|9=83|35=0|34=155|49=SERVER|52=20260429-07:26:42.325|56=0c6ba5672f96498abe52990b491f002c|10=134|
[2026-04-29 14:26:44] [DEBUG] [TO ADMIN] 8=FIX.4.4|9=102|35=0|34=154|49=0c6ba5672f96498abe52990b491f002c|52=20260429-07:26:44.426|56=SERVER|1=main|553=Group16|10=020|
[2026-04-29 14:27:13] [DEBUG] [FROM ADMIN] 8=FIX.4.4|9=83|35=0|34=156|49=SERVER|52=20260429-07:27:12.325|56=0c6ba5672f96498abe52990b491f002c|10=133|
[2026-04-29 14:27:14] [DEBUG] [TO ADMIN] 8=FIX.4.4|9=102|35=0|34=155|49=0c6ba5672f96498abe52990b491f002c|52=20260429-07:27:14.136|56=SERVER|1=main|553=Group16|10=017|
[2026-04-29 14:27:43] [DEBUG] [FROM ADMIN] 8=FIX.4.4|9=83|35=0|34=157|49=SERVER|52=20260429-07:27:42.325|56=0c6ba5672f96498abe52990b491f002c|10=137|
[2026-04-29 14:27:44] [DEBUG] [TO ADMIN] 8=FIX.4.4|9=102|35=0|34=156|49=0c6ba5672f96498abe52990b491f002c|52=20260429-07:27:44.011|56=SERVER|1=main|553=Group16|10=013|
[2026-04-29 14:28:13] [DEBUG] [FROM ADMIN] 8=FIX.4.4|9=83|35=0|34=158|49=SERVER|52=20260429-07:28:12.325|56=0c6ba5672f96498abe52990b491f002c|10=136|
[2026-04-29 14:28:14] [DEBUG] [TO ADMIN] 8=FIX.4.4|9=102|35=0|34=157|49=0c6ba5672f96498abe52990b491f002c|52=20260429-07:28:14.007|56=SERVER|1=main|553=Group16|10=017|
[2026-04-29 14:28:43] [DEBUG] [FROM ADMIN] 8=FIX.4.4|9=83|35=0|34=159|49=SERVER|52=20260429-07:28:42.325|56=0c6ba5672f96498abe52990b491f002c|10=140|
[2026-04-29 14:28:44] [DEBUG] [TO ADMIN] 8=FIX.4.4|9=102|35=0|34=158|49=0c6ba5672f96498abe52990b491f002c|52=20260429-07:28:44.303|56=SERVER|1=main|553=Group16|10=020|
[2026-04-29 14:29:13] [DEBUG] [FROM ADMIN] 8=FIX.4.4|9=83|35=0|34=160|49=SERVER|52=20260429-07:29:12.325|56=0c6ba5672f96498abe52990b491f002c|10=130|
[2026-04-29 14:29:14] [DEBUG] [TO ADMIN] 8=FIX.4.4|9=102|35=0|34=159|49=0c6ba5672f96498abe52990b491f002c|52=20260429-07:29:14.171|56=SERVER|1=main|553=Group16|10=022|
[2026-04-29 14:29:43] [DEBUG] [FROM ADMIN] 8=FIX.4.4|9=83|35=0|34=161|49=SERVER|52=20260429-07:29:42.325|56=0c6ba5672f96498abe52990b491f002c|10=134|
[2026-04-29 14:29:44] [DEBUG] [TO ADMIN] 8=FIX.4.4|9=102|35=0|34=160|49=0c6ba5672f96498abe52990b491f002c|52=20260429-07:29:44.067|56=SERVER|1=main|553=Group16|10=021|
[2026-04-29 14:30:13] [DEBUG] [FROM ADMIN] 8=FIX.4.4|9=83|35=0|34=162|49=SERVER|52=20260429-07:30:12.325|56=0c6ba5672f96498abe52990b491f002c|10=124|
[2026-04-29 14:30:14] [DEBUG] [TO ADMIN] 8=FIX.4.4|9=102|35=0|34=161|49=0c6ba5672f96498abe52990b491f002c|52=20260429-07:30:14.490|56=SERVER|1=main|553=Group16|10=011|
[2026-04-29 14:30:43] [DEBUG] [FROM ADMIN] 8=FIX.4.4|9=83|35=0|34=163|49=SERVER|52=20260429-07:30:42.325|56=0c6ba5672f96498abe52990b491f002c|10=128|
[2026-04-29 14:30:44] [DEBUG] [TO ADMIN] 8=FIX.4.4|9=102|35=0|34=162|49=0c6ba5672f96498abe52990b491f002c|52=20260429-07:30:44.180|56=SERVER|1=main|553=Group16|10=011|
[2026-04-29 14:31:13] [DEBUG] [FROM ADMIN] 8=FIX.4.4|9=83|35=0|34=164|49=SERVER|52=20260429-07:31:12.325|56=0c6ba5672f96498abe52990b491f002c|10=127|
[2026-04-29 14:31:14] [DEBUG] [TO ADMIN] 8=FIX.4.4|9=102|35=0|34=163|49=0c6ba5672f96498abe52990b491f002c|52=20260429-07:31:14.280|56=SERVER|1=main|553=Group16|10=011|
[2026-04-29 14:31:43] [DEBUG] [FROM ADMIN] 8=FIX.4.4|9=83|35=0|34=165|49=SERVER|52=20260429-07:31:42.325|56=0c6ba5672f96498abe52990b491f002c|10=131|
[2026-04-29 14:31:44] [DEBUG] [TO ADMIN] 8=FIX.4.4|9=102|35=0|34=164|49=0c6ba5672f96498abe52990b491f002c|52=20260429-07:31:44.180|56=SERVER|1=main|553=Group16|10=014|
[2026-04-29 14:32:13] [DEBUG] [FROM ADMIN] 8=FIX.4.4|9=83|35=0|34=166|49=SERVER|52=20260429-07:32:12.325|56=0c6ba5672f96498abe52990b491f002c|10=130|
[2026-04-29 14:32:14] [DEBUG] [TO ADMIN] 8=FIX.4.4|9=102|35=0|34=165|49=0c6ba5672f96498abe52990b491f002c|52=20260429-07:32:14.003|56=SERVER|1=main|553=Group16|10=007|
[2026-04-29 14:32:43] [DEBUG] [FROM ADMIN] 8=FIX.4.4|9=83|35=0|34=167|49=SERVER|52=20260429-07:32:42.325|56=0c6ba5672f96498abe52990b491f002c|10=134|
[2026-04-29 14:32:44] [DEBUG] [TO ADMIN] 8=FIX.4.4|9=102|35=0|34=166|49=0c6ba5672f96498abe52990b491f002c|52=20260429-07:32:44.890|56=SERVER|1=main|553=Group16|10=025|
[2026-04-29 14:33:13] [DEBUG] [FROM ADMIN] 8=FIX.4.4|9=83|35=0|34=168|49=SERVER|52=20260429-07:33:12.325|56=0c6ba5672f96498abe52990b491f002c|10=133|
[2026-04-29 14:33:14] [DEBUG] [TO ADMIN] 8=FIX.4.4|9=102|35=0|34=167|49=0c6ba5672f96498abe52990b491f002c|52=20260429-07:33:14.616|56=SERVER|1=main|553=Group16|10=020|
[2026-04-29 14:33:43] [DEBUG] [FROM ADMIN] 8=FIX.4.4|9=83|35=0|34=169|49=SERVER|52=20260429-07:33:42.325|56=0c6ba5672f96498abe52990b491f002c|10=137|
[2026-04-29 14:33:44] [DEBUG] [TO ADMIN] 8=FIX.4.4|9=102|35=0|34=168|49=0c6ba5672f96498abe52990b491f002c|52=20260429-07:33:44.351|56=SERVER|1=main|553=Group16|10=020|
[2026-04-29 14:34:12] [DEBUG] [FROM ADMIN] 8=FIX.4.4|9=83|35=0|34=170|49=SERVER|52=20260429-07:34:12.325|56=0c6ba5672f96498abe52990b491f002c|10=127|
[2026-04-29 14:34:14] [DEBUG] [TO ADMIN] 8=FIX.4.4|9=102|35=0|34=169|49=0c6ba5672f96498abe52990b491f002c|52=20260429-07:34:14.156|56=SERVER|1=main|553=Group16|10=022|
[2026-04-29 14:34:42] [DEBUG] [FROM ADMIN] 8=FIX.4.4|9=83|35=0|34=171|49=SERVER|52=20260429-07:34:42.325|56=0c6ba5672f96498abe52990b491f002c|10=131|
[2026-04-29 14:34:44] [DEBUG] [TO ADMIN] 8=FIX.4.4|9=102|35=0|34=170|49=0c6ba5672f96498abe52990b491f002c|52=20260429-07:34:44.335|56=SERVER|1=main|553=Group16|10=016|
[2026-04-29 14:35:12] [DEBUG] [FROM ADMIN] 8=FIX.4.4|9=83|35=0|34=172|49=SERVER|52=20260429-07:35:12.325|56=0c6ba5672f96498abe52990b491f002c|10=130|
[2026-04-29 14:35:14] [DEBUG] [TO ADMIN] 8=FIX.4.4|9=102|35=0|34=171|49=0c6ba5672f96498abe52990b491f002c|52=20260429-07:35:14.350|56=SERVER|1=main|553=Group16|10=012|
[2026-04-29 14:35:42] [DEBUG] [FROM ADMIN] 8=FIX.4.4|9=83|35=0|34=173|49=SERVER|52=20260429-07:35:42.325|56=0c6ba5672f96498abe52990b491f002c|10=134|
[2026-04-29 14:35:44] [DEBUG] [TO ADMIN] 8=FIX.4.4|9=102|35=0|34=172|49=0c6ba5672f96498abe52990b491f002c|52=20260429-07:35:44.065|56=SERVER|1=main|553=Group16|10=019|
[2026-04-29 14:36:12] [DEBUG] [FROM ADMIN] 8=FIX.4.4|9=83|35=0|34=174|49=SERVER|52=20260429-07:36:12.325|56=0c6ba5672f96498abe52990b491f002c|10=133|
[2026-04-29 14:36:14] [DEBUG] [TO ADMIN] 8=FIX.4.4|9=102|35=0|34=173|49=0c6ba5672f96498abe52990b491f002c|52=20260429-07:36:14.082|56=SERVER|1=main|553=Group16|10=017|
[2026-04-29 14:36:42] [DEBUG] [FROM ADMIN] 8=FIX.4.4|9=83|35=0|34=175|49=SERVER|52=20260429-07:36:42.325|56=0c6ba5672f96498abe52990b491f002c|10=137|
[2026-04-29 14:36:44] [DEBUG] [TO ADMIN] 8=FIX.4.4|9=102|35=0|34=174|49=0c6ba5672f96498abe52990b491f002c|52=20260429-07:36:44.796|56=SERVER|1=main|553=Group16|10=033|
[2026-04-29 14:37:12] [DEBUG] [FROM ADMIN] 8=FIX.4.4|9=83|35=0|34=176|49=SERVER|52=20260429-07:37:12.325|56=0c6ba5672f96498abe52990b491f002c|10=136|
[2026-04-29 14:37:14] [DEBUG] [TO ADMIN] 8=FIX.4.4|9=102|35=0|34=175|49=0c6ba5672f96498abe52990b491f002c|52=20260429-07:37:14.360|56=SERVER|1=main|553=Group16|10=019|
[2026-04-29 14:37:42] [DEBUG] [FROM ADMIN] 8=FIX.4.4|9=83|35=0|34=177|49=SERVER|52=20260429-07:37:42.325|56=0c6ba5672f96498abe52990b491f002c|10=140|
[2026-04-29 14:37:44] [DEBUG] [TO ADMIN] 8=FIX.4.4|9=102|35=0|34=176|49=0c6ba5672f96498abe52990b491f002c|52=20260429-07:37:44.145|56=SERVER|1=main|553=Group16|10=024|
[2026-04-29 14:38:12] [DEBUG] [FROM ADMIN] 8=FIX.4.4|9=83|35=0|34=178|49=SERVER|52=20260429-07:38:12.325|56=0c6ba5672f96498abe52990b491f002c|10=139|
[2026-04-29 14:38:14] [DEBUG] [TO ADMIN] 8=FIX.4.4|9=102|35=0|34=177|49=0c6ba5672f96498abe52990b491f002c|52=20260429-07:38:14.475|56=SERVER|1=main|553=Group16|10=029|
[2026-04-29 14:38:42] [DEBUG] [FROM ADMIN] 8=FIX.4.4|9=83|35=0|34=179|49=SERVER|52=20260429-07:38:42.325|56=0c6ba5672f96498abe52990b491f002c|10=143|
[2026-04-29 14:38:44] [DEBUG] [TO ADMIN] 8=FIX.4.4|9=102|35=0|34=178|49=0c6ba5672f96498abe52990b491f002c|52=20260429-07:38:44.104|56=SERVER|1=main|553=Group16|10=022|
[2026-04-29 14:39:12] [DEBUG] [FROM ADMIN] 8=FIX.4.4|9=83|35=0|34=180|49=SERVER|52=20260429-07:39:12.325|56=0c6ba5672f96498abe52990b491f002c|10=133|
[2026-04-29 14:39:14] [DEBUG] [TO ADMIN] 8=FIX.4.4|9=102|35=0|34=179|49=0c6ba5672f96498abe52990b491f002c|52=20260429-07:39:14.033|56=SERVER|1=main|553=Group16|10=022|
[2026-04-29 14:39:42] [DEBUG] [FROM ADMIN] 8=FIX.4.4|9=83|35=0|34=181|49=SERVER|52=20260429-07:39:42.325|56=0c6ba5672f96498abe52990b491f002c|10=137|
[2026-04-29 14:39:44] [DEBUG] [TO ADMIN] 8=FIX.4.4|9=102|35=0|34=180|49=0c6ba5672f96498abe52990b491f002c|52=20260429-07:39:44.033|56=SERVER|1=main|553=Group16|10=017|
[2026-04-29 14:40:12] [DEBUG] [FROM ADMIN] 8=FIX.4.4|9=83|35=0|34=182|49=SERVER|52=20260429-07:40:12.325|56=0c6ba5672f96498abe52990b491f002c|10=127|
[2026-04-29 14:40:14] [DEBUG] [TO ADMIN] 8=FIX.4.4|9=102|35=0|34=181|49=0c6ba5672f96498abe52990b491f002c|52=20260429-07:40:14.116|56=SERVER|1=main|553=Group16|10=009|
[2026-04-29 14:40:42] [DEBUG] [FROM ADMIN] 8=FIX.4.4|9=83|35=0|34=183|49=SERVER|52=20260429-07:40:42.325|56=0c6ba5672f96498abe52990b491f002c|10=131|
[2026-04-29 14:40:44] [DEBUG] [TO ADMIN] 8=FIX.4.4|9=102|35=0|34=182|49=0c6ba5672f96498abe52990b491f002c|52=20260429-07:40:44.415|56=SERVER|1=main|553=Group16|10=015|
[2026-04-29 14:41:12] [DEBUG] [FROM ADMIN] 8=FIX.4.4|9=83|35=0|34=184|49=SERVER|52=20260429-07:41:12.325|56=0c6ba5672f96498abe52990b491f002c|10=130|
[2026-04-29 14:41:14] [DEBUG] [TO ADMIN] 8=FIX.4.4|9=102|35=0|34=183|49=0c6ba5672f96498abe52990b491f002c|52=20260429-07:41:14.185|56=SERVER|1=main|553=Group16|10=018|
[2026-04-29 14:41:42] [DEBUG] [FROM ADMIN] 8=FIX.4.4|9=83|35=0|34=185|49=SERVER|52=20260429-07:41:42.326|56=0c6ba5672f96498abe52990b491f002c|10=135|
[2026-04-29 14:41:44] [DEBUG] [TO ADMIN] 8=FIX.4.4|9=102|35=0|34=184|49=0c6ba5672f96498abe52990b491f002c|52=20260429-07:41:44.719|56=SERVER|1=main|553=Group16|10=025|
[2026-04-29 14:42:13] [DEBUG] [FROM ADMIN] 8=FIX.4.4|9=83|35=0|34=186|49=SERVER|52=20260429-07:42:12.325|56=0c6ba5672f96498abe52990b491f002c|10=133|
[2026-04-29 14:42:14] [DEBUG] [TO ADMIN] 8=FIX.4.4|9=102|35=0|34=185|49=0c6ba5672f96498abe52990b491f002c|52=20260429-07:42:14.225|56=SERVER|1=main|553=Group16|10=016|
[2026-04-29 14:42:43] [DEBUG] [FROM ADMIN] 8=FIX.4.4|9=83|35=0|34=187|49=SERVER|52=20260429-07:42:42.326|56=0c6ba5672f96498abe52990b491f002c|10=138|
[2026-04-29 14:42:44] [DEBUG] [TO ADMIN] 8=FIX.4.4|9=102|35=0|34=186|49=0c6ba5672f96498abe52990b491f002c|52=20260429-07:42:44.092|56=SERVER|1=main|553=Group16|10=022|
[2026-04-29 14:43:13] [DEBUG] [FROM ADMIN] 8=FIX.4.4|9=83|35=0|34=188|49=SERVER|52=20260429-07:43:12.326|56=0c6ba5672f96498abe52990b491f002c|10=137|
[2026-04-29 14:43:14] [DEBUG] [TO ADMIN] 8=FIX.4.4|9=102|35=0|34=187|49=0c6ba5672f96498abe52990b491f002c|52=20260429-07:43:14.293|56=SERVER|1=main|553=Group16|10=024|
[2026-04-29 14:43:43] [DEBUG] [FROM ADMIN] 8=FIX.4.4|9=83|35=0|34=189|49=SERVER|52=20260429-07:43:42.325|56=0c6ba5672f96498abe52990b491f002c|10=140|
[2026-04-29 14:43:44] [DEBUG] [TO ADMIN] 8=FIX.4.4|9=102|35=0|34=188|49=0c6ba5672f96498abe52990b491f002c|52=20260429-07:43:44.171|56=SERVER|1=main|553=Group16|10=023|
[2026-04-29 14:44:13] [DEBUG] [FROM ADMIN] 8=FIX.4.4|9=83|35=0|34=190|49=SERVER|52=20260429-07:44:12.325|56=0c6ba5672f96498abe52990b491f002c|10=130|
[2026-04-29 14:44:14] [DEBUG] [TO ADMIN] 8=FIX.4.4|9=102|35=0|34=189|49=0c6ba5672f96498abe52990b491f002c|52=20260429-07:44:14.057|56=SERVER|1=main|553=Group16|10=025|
[2026-04-29 14:44:43] [DEBUG] [FROM ADMIN] 8=FIX.4.4|9=83|35=0|34=191|49=SERVER|52=20260429-07:44:42.325|56=0c6ba5672f96498abe52990b491f002c|10=134|
[2026-04-29 14:44:44] [DEBUG] [TO ADMIN] 8=FIX.4.4|9=102|35=0|34=190|49=0c6ba5672f96498abe52990b491f002c|52=20260429-07:44:44.423|56=SERVER|1=main|553=Group16|10=017|
[2026-04-29 14:45:13] [DEBUG] [FROM ADMIN] 8=FIX.4.4|9=83|35=0|34=192|49=SERVER|52=20260429-07:45:12.326|56=0c6ba5672f96498abe52990b491f002c|10=134|
[2026-04-29 14:45:14] [DEBUG] [TO ADMIN] 8=FIX.4.4|9=102|35=0|34=191|49=0c6ba5672f96498abe52990b491f002c|52=20260429-07:45:14.282|56=SERVER|1=main|553=Group16|10=019|
[2026-04-29 14:45:43] [DEBUG] [FROM ADMIN] 8=FIX.4.4|9=83|35=0|34=193|49=SERVER|52=20260429-07:45:42.325|56=0c6ba5672f96498abe52990b491f002c|10=137|
[2026-04-29 14:45:44] [DEBUG] [TO ADMIN] 8=FIX.4.4|9=102|35=0|34=192|49=0c6ba5672f96498abe52990b491f002c|52=20260429-07:45:44.080|56=SERVER|1=main|553=Group16|10=019|
[2026-04-29 14:46:13] [DEBUG] [FROM ADMIN] 8=FIX.4.4|9=83|35=0|34=194|49=SERVER|52=20260429-07:46:12.325|56=0c6ba5672f96498abe52990b491f002c|10=136|
[2026-04-29 14:46:14] [DEBUG] [TO ADMIN] 8=FIX.4.4|9=102|35=0|34=193|49=0c6ba5672f96498abe52990b491f002c|52=20260429-07:46:14.605|56=SERVER|1=main|553=Group16|10=021|
[2026-04-29 14:46:43] [DEBUG] [FROM ADMIN] 8=FIX.4.4|9=83|35=0|34=195|49=SERVER|52=20260429-07:46:42.325|56=0c6ba5672f96498abe52990b491f002c|10=140|
[2026-04-29 14:46:44] [DEBUG] [TO ADMIN] 8=FIX.4.4|9=102|35=0|34=194|49=0c6ba5672f96498abe52990b491f002c|52=20260429-07:46:44.278|56=SERVER|1=main|553=Group16|10=031|
[2026-04-29 14:47:13] [DEBUG] [FROM ADMIN] 8=FIX.4.4|9=83|35=0|34=196|49=SERVER|52=20260429-07:47:12.325|56=0c6ba5672f96498abe52990b491f002c|10=139|
[2026-04-29 14:47:14] [DEBUG] [TO ADMIN] 8=FIX.4.4|9=102|35=0|34=195|49=0c6ba5672f96498abe52990b491f002c|52=20260429-07:47:14.076|56=SERVER|1=main|553=Group16|10=026|
[2026-04-29 14:47:43] [DEBUG] [FROM ADMIN] 8=FIX.4.4|9=83|35=0|34=197|49=SERVER|52=20260429-07:47:42.325|56=0c6ba5672f96498abe52990b491f002c|10=143|
[2026-04-29 14:47:44] [DEBUG] [TO ADMIN] 8=FIX.4.4|9=102|35=0|34=196|49=0c6ba5672f96498abe52990b491f002c|52=20260429-07:47:44.079|56=SERVER|1=main|553=Group16|10=033|
[2026-04-29 14:48:13] [DEBUG] [FROM ADMIN] 8=FIX.4.4|9=83|35=0|34=198|49=SERVER|52=20260429-07:48:12.325|56=0c6ba5672f96498abe52990b491f002c|10=142|
[2026-04-29 14:48:14] [DEBUG] [TO ADMIN] 8=FIX.4.4|9=102|35=0|34=197|49=0c6ba5672f96498abe52990b491f002c|52=20260429-07:48:14.056|56=SERVER|1=main|553=Group16|10=027|
[2026-04-29 14:48:43] [DEBUG] [FROM ADMIN] 8=FIX.4.4|9=83|35=0|34=199|49=SERVER|52=20260429-07:48:42.325|56=0c6ba5672f96498abe52990b491f002c|10=146|
[2026-04-29 14:48:44] [DEBUG] [TO ADMIN] 8=FIX.4.4|9=102|35=0|34=198|49=0c6ba5672f96498abe52990b491f002c|52=20260429-07:48:44.014|56=SERVER|1=main|553=Group16|10=025|
[2026-04-29 14:49:13] [DEBUG] [FROM ADMIN] 8=FIX.4.4|9=83|35=0|34=200|49=SERVER|52=20260429-07:49:12.326|56=0c6ba5672f96498abe52990b491f002c|10=128|
[2026-04-29 14:49:14] [DEBUG] [TO ADMIN] 8=FIX.4.4|9=102|35=0|34=199|49=0c6ba5672f96498abe52990b491f002c|52=20260429-07:49:14.677|56=SERVER|1=main|553=Group16|10=039|
[2026-04-29 14:49:43] [DEBUG] [FROM ADMIN] 8=FIX.4.4|9=83|35=0|34=201|49=SERVER|52=20260429-07:49:42.326|56=0c6ba5672f96498abe52990b491f002c|10=132|
[2026-04-29 14:49:44] [DEBUG] [TO ADMIN] 8=FIX.4.4|9=102|35=0|34=200|49=0c6ba5672f96498abe52990b491f002c|52=20260429-07:49:44.394|56=SERVER|1=main|553=Group16|10=021|
[2026-04-29 14:50:12] [DEBUG] [FROM ADMIN] 8=FIX.4.4|9=83|35=0|34=202|49=SERVER|52=20260429-07:50:12.325|56=0c6ba5672f96498abe52990b491f002c|10=121|
[2026-04-29 14:50:14] [DEBUG] [TO ADMIN] 8=FIX.4.4|9=102|35=0|34=201|49=0c6ba5672f96498abe52990b491f002c|52=20260429-07:50:14.060|56=SERVER|1=main|553=Group16|10=001|
[2026-04-29 14:50:42] [DEBUG] [FROM ADMIN] 8=FIX.4.4|9=83|35=0|34=203|49=SERVER|52=20260429-07:50:42.325|56=0c6ba5672f96498abe52990b491f002c|10=125|
[2026-04-29 14:50:44] [DEBUG] [TO ADMIN] 8=FIX.4.4|9=102|35=0|34=202|49=0c6ba5672f96498abe52990b491f002c|52=20260429-07:50:44.220|56=SERVER|1=main|553=Group16|10=003|
[2026-04-29 14:51:12] [DEBUG] [FROM ADMIN] 8=FIX.4.4|9=83|35=0|34=204|49=SERVER|52=20260429-07:51:12.325|56=0c6ba5672f96498abe52990b491f002c|10=124|
[2026-04-29 14:51:14] [DEBUG] [TO ADMIN] 8=FIX.4.4|9=102|35=0|34=203|49=0c6ba5672f96498abe52990b491f002c|52=20260429-07:51:14.195|56=SERVER|1=main|553=Group16|10=013|
[2026-04-29 14:51:42] [DEBUG] [FROM ADMIN] 8=FIX.4.4|9=83|35=0|34=205|49=SERVER|52=20260429-07:51:42.325|56=0c6ba5672f96498abe52990b491f002c|10=128|
[2026-04-29 14:51:44] [DEBUG] [TO ADMIN] 8=FIX.4.4|9=102|35=0|34=204|49=0c6ba5672f96498abe52990b491f002c|52=20260429-07:51:44.051|56=SERVER|1=main|553=Group16|10=008|
[2026-04-29 14:52:12] [DEBUG] [FROM ADMIN] 8=FIX.4.4|9=83|35=0|34=206|49=SERVER|52=20260429-07:52:12.325|56=0c6ba5672f96498abe52990b491f002c|10=127|
[2026-04-29 14:52:14] [DEBUG] [TO ADMIN] 8=FIX.4.4|9=102|35=0|34=205|49=0c6ba5672f96498abe52990b491f002c|52=20260429-07:52:14.030|56=SERVER|1=main|553=Group16|10=004|
[2026-04-29 14:52:42] [DEBUG] [FROM ADMIN] 8=FIX.4.4|9=83|35=0|34=207|49=SERVER|52=20260429-07:52:42.325|56=0c6ba5672f96498abe52990b491f002c|10=131|
[2026-04-29 14:52:44] [DEBUG] [TO ADMIN] 8=FIX.4.4|9=102|35=0|34=206|49=0c6ba5672f96498abe52990b491f002c|52=20260429-07:52:44.705|56=SERVER|1=main|553=Group16|10=017|
[2026-04-29 14:53:12] [DEBUG] [FROM ADMIN] 8=FIX.4.4|9=83|35=0|34=208|49=SERVER|52=20260429-07:53:12.325|56=0c6ba5672f96498abe52990b491f002c|10=130|
[2026-04-29 14:53:14] [DEBUG] [TO ADMIN] 8=FIX.4.4|9=102|35=0|34=207|49=0c6ba5672f96498abe52990b491f002c|52=20260429-07:53:14.424|56=SERVER|1=main|553=Group16|10=014|
[2026-04-29 14:53:42] [DEBUG] [FROM ADMIN] 8=FIX.4.4|9=83|35=0|34=209|49=SERVER|52=20260429-07:53:42.325|56=0c6ba5672f96498abe52990b491f002c|10=134|
[2026-04-29 14:53:44] [DEBUG] [TO ADMIN] 8=FIX.4.4|9=102|35=0|34=208|49=0c6ba5672f96498abe52990b491f002c|52=20260429-07:53:44.076|56=SERVER|1=main|553=Group16|10=021|
[2026-04-29 14:54:12] [DEBUG] [FROM ADMIN] 8=FIX.4.4|9=83|35=0|34=210|49=SERVER|52=20260429-07:54:12.325|56=0c6ba5672f96498abe52990b491f002c|10=124|
[2026-04-29 14:54:14] [DEBUG] [TO ADMIN] 8=FIX.4.4|9=102|35=0|34=209|49=0c6ba5672f96498abe52990b491f002c|52=20260429-07:54:14.368|56=SERVER|1=main|553=Group16|10=024|
[2026-04-29 14:54:42] [DEBUG] [FROM ADMIN] 8=FIX.4.4|9=83|35=0|34=211|49=SERVER|52=20260429-07:54:42.325|56=0c6ba5672f96498abe52990b491f002c|10=128|
[2026-04-29 14:54:44] [DEBUG] [TO ADMIN] 8=FIX.4.4|9=102|35=0|34=210|49=0c6ba5672f96498abe52990b491f002c|52=20260429-07:54:44.041|56=SERVER|1=main|553=Group16|10=007|
[2026-04-29 14:55:12] [DEBUG] [FROM ADMIN] 8=FIX.4.4|9=83|35=0|34=212|49=SERVER|52=20260429-07:55:12.325|56=0c6ba5672f96498abe52990b491f002c|10=127|
[2026-04-29 14:55:14] [DEBUG] [TO ADMIN] 8=FIX.4.4|9=102|35=0|34=211|49=0c6ba5672f96498abe52990b491f002c|52=20260429-07:55:14.096|56=SERVER|1=main|553=Group16|10=016|
[2026-04-29 14:55:42] [DEBUG] [FROM ADMIN] 8=FIX.4.4|9=83|35=0|34=213|49=SERVER|52=20260429-07:55:42.325|56=0c6ba5672f96498abe52990b491f002c|10=131|
[2026-04-29 14:55:44] [DEBUG] [TO ADMIN] 8=FIX.4.4|9=102|35=0|34=212|49=0c6ba5672f96498abe52990b491f002c|52=20260429-07:55:44.128|56=SERVER|1=main|553=Group16|10=016|
[2026-04-29 14:56:12] [DEBUG] [FROM ADMIN] 8=FIX.4.4|9=83|35=0|34=214|49=SERVER|52=20260429-07:56:12.325|56=0c6ba5672f96498abe52990b491f002c|10=130|
[2026-04-29 14:56:14] [DEBUG] [TO ADMIN] 8=FIX.4.4|9=102|35=0|34=213|49=0c6ba5672f96498abe52990b491f002c|52=20260429-07:56:14.049|56=SERVER|1=main|553=Group16|10=017|
[2026-04-29 14:56:42] [DEBUG] [FROM ADMIN] 8=FIX.4.4|9=83|35=0|34=215|49=SERVER|52=20260429-07:56:42.325|56=0c6ba5672f96498abe52990b491f002c|10=134|
[2026-04-29 14:56:44] [DEBUG] [TO ADMIN] 8=FIX.4.4|9=102|35=0|34=214|49=0c6ba5672f96498abe52990b491f002c|52=20260429-07:56:44.378|56=SERVER|1=main|553=Group16|10=026|
[2026-04-29 14:57:12] [DEBUG] [FROM ADMIN] 8=FIX.4.4|9=83|35=0|34=216|49=SERVER|52=20260429-07:57:12.325|56=0c6ba5672f96498abe52990b491f002c|10=133|
[2026-04-29 14:57:14] [DEBUG] [TO ADMIN] 8=FIX.4.4|9=102|35=0|34=215|49=0c6ba5672f96498abe52990b491f002c|52=20260429-07:57:14.078|56=SERVER|1=main|553=Group16|10=022|
[2026-04-29 14:57:42] [DEBUG] [FROM ADMIN] 8=FIX.4.4|9=83|35=0|34=217|49=SERVER|52=20260429-07:57:42.325|56=0c6ba5672f96498abe52990b491f002c|10=137|
[2026-04-29 14:57:44] [DEBUG] [TO ADMIN] 8=FIX.4.4|9=102|35=0|34=216|49=0c6ba5672f96498abe52990b491f002c|52=20260429-07:57:44.500|56=SERVER|1=main|553=Group16|10=016|
[2026-04-29 14:58:12] [DEBUG] [FROM ADMIN] 8=FIX.4.4|9=83|35=0|34=218|49=SERVER|52=20260429-07:58:12.325|56=0c6ba5672f96498abe52990b491f002c|10=136|
[2026-04-29 14:58:14] [DEBUG] [TO ADMIN] 8=FIX.4.4|9=102|35=0|34=217|49=0c6ba5672f96498abe52990b491f002c|52=20260429-07:58:14.106|56=SERVER|1=main|553=Group16|10=017|
[2026-04-29 14:58:43] [DEBUG] [FROM ADMIN] 8=FIX.4.4|9=83|35=0|34=219|49=SERVER|52=20260429-07:58:42.325|56=0c6ba5672f96498abe52990b491f002c|10=140|
[2026-04-29 14:58:44] [DEBUG] [TO ADMIN] 8=FIX.4.4|9=102|35=0|34=218|49=0c6ba5672f96498abe52990b491f002c|52=20260429-07:58:44.126|56=SERVER|1=main|553=Group16|10=023|
[2026-04-29 14:59:13] [DEBUG] [FROM ADMIN] 8=FIX.4.4|9=83|35=0|34=220|49=SERVER|52=20260429-07:59:12.325|56=0c6ba5672f96498abe52990b491f002c|10=130|
[2026-04-29 14:59:14] [DEBUG] [TO ADMIN] 8=FIX.4.4|9=102|35=0|34=219|49=0c6ba5672f96498abe52990b491f002c|52=20260429-07:59:14.349|56=SERVER|1=main|553=Group16|10=029|
[2026-04-29 14:59:43] [DEBUG] [FROM ADMIN] 8=FIX.4.4|9=83|35=0|34=221|49=SERVER|52=20260429-07:59:42.325|56=0c6ba5672f96498abe52990b491f002c|10=134|
[2026-04-29 14:59:44] [DEBUG] [TO ADMIN] 8=FIX.4.4|9=102|35=0|34=220|49=0c6ba5672f96498abe52990b491f002c|52=20260429-07:59:44.139|56=SERVER|1=main|553=Group16|10=021|
[2026-04-29 15:00:13] [DEBUG] [FROM ADMIN] 8=FIX.4.4|9=83|35=0|34=222|49=SERVER|52=20260429-08:00:12.325|56=0c6ba5672f96498abe52990b491f002c|10=119|
[2026-04-29 15:00:14] [DEBUG] [TO ADMIN] 8=FIX.4.4|9=102|35=0|34=221|49=0c6ba5672f96498abe52990b491f002c|52=20260429-08:00:14.101|56=SERVER|1=main|553=Group16|10=251|
[2026-04-29 15:00:43] [DEBUG] [FROM ADMIN] 8=FIX.4.4|9=83|35=0|34=223|49=SERVER|52=20260429-08:00:42.325|56=0c6ba5672f96498abe52990b491f002c|10=123|
[2026-04-29 15:00:44] [DEBUG] [TO ADMIN] 8=FIX.4.4|9=102|35=0|34=222|49=0c6ba5672f96498abe52990b491f002c|52=20260429-08:00:44.022|56=SERVER|1=main|553=Group16|10=001|
[2026-04-29 15:01:13] [DEBUG] [FROM ADMIN] 8=FIX.4.4|9=83|35=0|34=224|49=SERVER|52=20260429-08:01:12.325|56=0c6ba5672f96498abe52990b491f002c|10=122|
[2026-04-29 15:01:14] [DEBUG] [TO ADMIN] 8=FIX.4.4|9=102|35=0|34=223|49=0c6ba5672f96498abe52990b491f002c|52=20260429-08:01:14.391|56=SERVER|1=main|553=Group16|10=009|
[2026-04-29 15:01:43] [DEBUG] [FROM ADMIN] 8=FIX.4.4|9=83|35=0|34=225|49=SERVER|52=20260429-08:01:42.326|56=0c6ba5672f96498abe52990b491f002c|10=127|
[2026-04-29 15:01:44] [DEBUG] [TO ADMIN] 8=FIX.4.4|9=102|35=0|34=224|49=0c6ba5672f96498abe52990b491f002c|52=20260429-08:01:44.239|56=SERVER|1=main|553=Group16|10=014|
[2026-04-29 15:02:13] [DEBUG] [FROM ADMIN] 8=FIX.4.4|9=83|35=0|34=226|49=SERVER|52=20260429-08:02:12.326|56=0c6ba5672f96498abe52990b491f002c|10=126|
[2026-04-29 15:02:14] [DEBUG] [TO ADMIN] 8=FIX.4.4|9=102|35=0|34=225|49=0c6ba5672f96498abe52990b491f002c|52=20260429-08:02:14.086|56=SERVER|1=main|553=Group16|10=013|
[2026-04-29 15:02:43] [DEBUG] [FROM ADMIN] 8=FIX.4.4|9=83|35=0|34=227|49=SERVER|52=20260429-08:02:42.325|56=0c6ba5672f96498abe52990b491f002c|10=129|
[2026-04-29 15:02:44] [DEBUG] [TO ADMIN] 8=FIX.4.4|9=102|35=0|34=226|49=0c6ba5672f96498abe52990b491f002c|52=20260429-08:02:44.595|56=SERVER|1=main|553=Group16|10=022|
[2026-04-29 15:03:13] [DEBUG] [FROM ADMIN] 8=FIX.4.4|9=83|35=0|34=228|49=SERVER|52=20260429-08:03:12.325|56=0c6ba5672f96498abe52990b491f002c|10=128|
[2026-04-29 15:03:14] [DEBUG] [TO ADMIN] 8=FIX.4.4|9=102|35=0|34=227|49=0c6ba5672f96498abe52990b491f002c|52=20260429-08:03:14.332|56=SERVER|1=main|553=Group16|10=010|
[2026-04-29 15:03:43] [DEBUG] [FROM ADMIN] 8=FIX.4.4|9=83|35=0|34=229|49=SERVER|52=20260429-08:03:42.325|56=0c6ba5672f96498abe52990b491f002c|10=132|
[2026-04-29 15:03:44] [DEBUG] [TO ADMIN] 8=FIX.4.4|9=102|35=0|34=228|49=0c6ba5672f96498abe52990b491f002c|52=20260429-08:03:44.096|56=SERVER|1=main|553=Group16|10=021|
[2026-04-29 15:04:13] [DEBUG] [FROM ADMIN] 8=FIX.4.4|9=83|35=0|34=230|49=SERVER|52=20260429-08:04:12.325|56=0c6ba5672f96498abe52990b491f002c|10=122|
[2026-04-29 15:04:14] [DEBUG] [TO ADMIN] 8=FIX.4.4|9=102|35=0|34=229|49=0c6ba5672f96498abe52990b491f002c|52=20260429-08:04:14.114|56=SERVER|1=main|553=Group16|10=011|
[2026-04-29 15:04:43] [DEBUG] [FROM ADMIN] 8=FIX.4.4|9=83|35=0|34=231|49=SERVER|52=20260429-08:04:42.325|56=0c6ba5672f96498abe52990b491f002c|10=126|
[2026-04-29 15:04:44] [DEBUG] [TO ADMIN] 8=FIX.4.4|9=102|35=0|34=230|49=0c6ba5672f96498abe52990b491f002c|52=20260429-08:04:44.065|56=SERVER|1=main|553=Group16|10=011|
[2026-04-29 15:05:13] [DEBUG] [FROM ADMIN] 8=FIX.4.4|9=83|35=0|34=232|49=SERVER|52=20260429-08:05:12.325|56=0c6ba5672f96498abe52990b491f002c|10=125|
[2026-04-29 15:05:14] [DEBUG] [TO ADMIN] 8=FIX.4.4|9=102|35=0|34=231|49=0c6ba5672f96498abe52990b491f002c|52=20260429-08:05:14.010|56=SERVER|1=main|553=Group16|10=000|
[2026-04-29 15:05:43] [DEBUG] [FROM ADMIN] 8=FIX.4.4|9=83|35=0|34=233|49=SERVER|52=20260429-08:05:42.325|56=0c6ba5672f96498abe52990b491f002c|10=129|
[2026-04-29 15:05:44] [DEBUG] [TO ADMIN] 8=FIX.4.4|9=102|35=0|34=232|49=0c6ba5672f96498abe52990b491f002c|52=20260429-08:05:44.082|56=SERVER|1=main|553=Group16|10=013|
[2026-04-29 15:06:13] [DEBUG] [FROM ADMIN] 8=FIX.4.4|9=83|35=0|34=234|49=SERVER|52=20260429-08:06:12.325|56=0c6ba5672f96498abe52990b491f002c|10=128|
[2026-04-29 15:06:14] [DEBUG] [TO ADMIN] 8=FIX.4.4|9=102|35=0|34=233|49=0c6ba5672f96498abe52990b491f002c|52=20260429-08:06:14.635|56=SERVER|1=main|553=Group16|10=016|
[2026-04-29 15:06:43] [DEBUG] [FROM ADMIN] 8=FIX.4.4|9=83|35=0|34=235|49=SERVER|52=20260429-08:06:42.325|56=0c6ba5672f96498abe52990b491f002c|10=132|
[2026-04-29 15:06:44] [DEBUG] [TO ADMIN] 8=FIX.4.4|9=102|35=0|34=234|49=0c6ba5672f96498abe52990b491f002c|52=20260429-08:06:44.433|56=SERVER|1=main|553=Group16|10=016|
[2026-04-29 15:07:13] [DEBUG] [FROM ADMIN] 8=FIX.4.4|9=83|35=0|34=236|49=SERVER|52=20260429-08:07:12.325|56=0c6ba5672f96498abe52990b491f002c|10=131|
[2026-04-29 15:07:14] [DEBUG] [TO ADMIN] 8=FIX.4.4|9=102|35=0|34=235|49=0c6ba5672f96498abe52990b491f002c|52=20260429-08:07:14.133|56=SERVER|1=main|553=Group16|10=012|
[2026-04-29 15:07:42] [DEBUG] [FROM ADMIN] 8=FIX.4.4|9=83|35=0|34=237|49=SERVER|52=20260429-08:07:42.326|56=0c6ba5672f96498abe52990b491f002c|10=136|
[2026-04-29 15:07:44] [DEBUG] [TO ADMIN] 8=FIX.4.4|9=102|35=0|34=236|49=0c6ba5672f96498abe52990b491f002c|52=20260429-08:07:44.343|56=SERVER|1=main|553=Group16|10=019|
[2026-04-29 15:08:12] [DEBUG] [FROM ADMIN] 8=FIX.4.4|9=83|35=0|34=238|49=SERVER|52=20260429-08:08:12.325|56=0c6ba5672f96498abe52990b491f002c|10=134|
[2026-04-29 15:08:14] [DEBUG] [TO ADMIN] 8=FIX.4.4|9=102|35=0|34=237|49=0c6ba5672f96498abe52990b491f002c|52=20260429-08:08:14.296|56=SERVER|1=main|553=Group16|10=025|
[2026-04-29 15:08:42] [DEBUG] [FROM ADMIN] 8=FIX.4.4|9=83|35=0|34=239|49=SERVER|52=20260429-08:08:42.325|56=0c6ba5672f96498abe52990b491f002c|10=138|
[2026-04-29 15:08:44] [DEBUG] [TO ADMIN] 8=FIX.4.4|9=102|35=0|34=238|49=0c6ba5672f96498abe52990b491f002c|52=20260429-08:08:44.088|56=SERVER|1=main|553=Group16|10=028|
[2026-04-29 15:09:12] [DEBUG] [FROM ADMIN] 8=FIX.4.4|9=83|35=0|34=240|49=SERVER|52=20260429-08:09:12.325|56=0c6ba5672f96498abe52990b491f002c|10=128|
[2026-04-29 15:09:14] [DEBUG] [TO ADMIN] 8=FIX.4.4|9=102|35=0|34=239|49=0c6ba5672f96498abe52990b491f002c|52=20260429-08:09:14.021|56=SERVER|1=main|553=Group16|10=014|
[2026-04-29 15:09:42] [DEBUG] [FROM ADMIN] 8=FIX.4.4|9=83|35=0|34=241|49=SERVER|52=20260429-08:09:42.325|56=0c6ba5672f96498abe52990b491f002c|10=132|
[2026-04-29 15:09:44] [DEBUG] [TO ADMIN] 8=FIX.4.4|9=102|35=0|34=240|49=0c6ba5672f96498abe52990b491f002c|52=20260429-08:09:44.790|56=SERVER|1=main|553=Group16|10=022|
[2026-04-29 15:10:12] [DEBUG] [FROM ADMIN] 8=FIX.4.4|9=83|35=0|34=242|49=SERVER|52=20260429-08:10:12.325|56=0c6ba5672f96498abe52990b491f002c|10=122|
[2026-04-29 15:10:14] [DEBUG] [TO ADMIN] 8=FIX.4.4|9=102|35=0|34=241|49=0c6ba5672f96498abe52990b491f002c|52=20260429-08:10:14.513|56=SERVER|1=main|553=Group16|10=005|
[2026-04-29 15:10:42] [DEBUG] [FROM ADMIN] 8=FIX.4.4|9=83|35=0|34=243|49=SERVER|52=20260429-08:10:42.325|56=0c6ba5672f96498abe52990b491f002c|10=126|
[2026-04-29 15:10:44] [DEBUG] [TO ADMIN] 8=FIX.4.4|9=102|35=0|34=242|49=0c6ba5672f96498abe52990b491f002c|52=20260429-08:10:44.253|56=SERVER|1=main|553=Group16|10=010|
[2026-04-29 15:11:12] [DEBUG] [FROM ADMIN] 8=FIX.4.4|9=83|35=0|34=244|49=SERVER|52=20260429-08:11:12.325|56=0c6ba5672f96498abe52990b491f002c|10=125|
[2026-04-29 15:11:14] [DEBUG] [TO ADMIN] 8=FIX.4.4|9=102|35=0|34=243|49=0c6ba5672f96498abe52990b491f002c|52=20260429-08:11:14.026|56=SERVER|1=main|553=Group16|10=007|
[2026-04-29 15:11:42] [DEBUG] [FROM ADMIN] 8=FIX.4.4|9=83|35=0|34=245|49=SERVER|52=20260429-08:11:42.325|56=0c6ba5672f96498abe52990b491f002c|10=129|
[2026-04-29 15:11:44] [DEBUG] [TO ADMIN] 8=FIX.4.4|9=102|35=0|34=244|49=0c6ba5672f96498abe52990b491f002c|52=20260429-08:11:44.327|56=SERVER|1=main|553=Group16|10=015|
[2026-04-29 15:12:12] [DEBUG] [FROM ADMIN] 8=FIX.4.4|9=83|35=0|34=246|49=SERVER|52=20260429-08:12:12.325|56=0c6ba5672f96498abe52990b491f002c|10=128|
[2026-04-29 15:12:14] [DEBUG] [TO ADMIN] 8=FIX.4.4|9=102|35=0|34=245|49=0c6ba5672f96498abe52990b491f002c|52=20260429-08:12:14.330|56=SERVER|1=main|553=Group16|10=008|
[2026-04-29 15:12:42] [DEBUG] [FROM ADMIN] 8=FIX.4.4|9=83|35=0|34=247|49=SERVER|52=20260429-08:12:42.325|56=0c6ba5672f96498abe52990b491f002c|10=132|
[2026-04-29 15:12:44] [DEBUG] [TO ADMIN] 8=FIX.4.4|9=102|35=0|34=246|49=0c6ba5672f96498abe52990b491f002c|52=20260429-08:12:44.129|56=SERVER|1=main|553=Group16|10=018|
[2026-04-29 15:13:12] [DEBUG] [FROM ADMIN] 8=FIX.4.4|9=83|35=0|34=248|49=SERVER|52=20260429-08:13:12.325|56=0c6ba5672f96498abe52990b491f002c|10=131|
[2026-04-29 15:13:14] [DEBUG] [TO ADMIN] 8=FIX.4.4|9=102|35=0|34=247|49=0c6ba5672f96498abe52990b491f002c|52=20260429-08:13:14.108|56=SERVER|1=main|553=Group16|10=014|
[2026-04-29 15:13:42] [DEBUG] [FROM ADMIN] 8=FIX.4.4|9=83|35=0|34=249|49=SERVER|52=20260429-08:13:42.325|56=0c6ba5672f96498abe52990b491f002c|10=135|
[2026-04-29 15:13:44] [DEBUG] [TO ADMIN] 8=FIX.4.4|9=102|35=0|34=248|49=0c6ba5672f96498abe52990b491f002c|52=20260429-08:13:44.033|56=SERVER|1=main|553=Group16|10=015|
[2026-04-29 15:14:12] [DEBUG] [FROM ADMIN] 8=FIX.4.4|9=83|35=0|34=250|49=SERVER|52=20260429-08:14:12.325|56=0c6ba5672f96498abe52990b491f002c|10=125|
[2026-04-29 15:14:14] [DEBUG] [TO ADMIN] 8=FIX.4.4|9=102|35=0|34=249|49=0c6ba5672f96498abe52990b491f002c|52=20260429-08:14:14.380|56=SERVER|1=main|553=Group16|10=019|
[2026-04-29 15:14:42] [DEBUG] [FROM ADMIN] 8=FIX.4.4|9=83|35=0|34=251|49=SERVER|52=20260429-08:14:42.325|56=0c6ba5672f96498abe52990b491f002c|10=129|
[2026-04-29 15:14:44] [DEBUG] [TO ADMIN] 8=FIX.4.4|9=102|35=0|34=250|49=0c6ba5672f96498abe52990b491f002c|52=20260429-08:14:44.155|56=SERVER|1=main|553=Group16|10=014|
[2026-04-29 15:15:12] [DEBUG] [FROM ADMIN] 8=FIX.4.4|9=83|35=0|34=252|49=SERVER|52=20260429-08:15:12.326|56=0c6ba5672f96498abe52990b491f002c|10=129|
[2026-04-29 15:15:14] [DEBUG] [TO ADMIN] 8=FIX.4.4|9=102|35=0|34=251|49=0c6ba5672f96498abe52990b491f002c|52=20260429-08:15:14.429|56=SERVER|1=main|553=Group16|10=017|
[2026-04-29 15:15:42] [DEBUG] [FROM ADMIN] 8=FIX.4.4|9=83|35=0|34=253|49=SERVER|52=20260429-08:15:42.325|56=0c6ba5672f96498abe52990b491f002c|10=132|
[2026-04-29 15:15:44] [DEBUG] [TO ADMIN] 8=FIX.4.4|9=102|35=0|34=252|49=0c6ba5672f96498abe52990b491f002c|52=20260429-08:15:44.088|56=SERVER|1=main|553=Group16|10=022|
[2026-04-29 15:16:13] [DEBUG] [FROM ADMIN] 8=FIX.4.4|9=83|35=0|34=254|49=SERVER|52=20260429-08:16:12.325|56=0c6ba5672f96498abe52990b491f002c|10=131|
[2026-04-29 15:16:14] [DEBUG] [TO ADMIN] 8=FIX.4.4|9=102|35=0|34=253|49=0c6ba5672f96498abe52990b491f002c|52=20260429-08:16:14.140|56=SERVER|1=main|553=Group16|10=010|
[2026-04-29 15:16:43] [DEBUG] [FROM ADMIN] 8=FIX.4.4|9=83|35=0|34=255|49=SERVER|52=20260429-08:16:42.325|56=0c6ba5672f96498abe52990b491f002c|10=135|
[2026-04-29 15:16:44] [DEBUG] [TO ADMIN] 8=FIX.4.4|9=102|35=0|34=254|49=0c6ba5672f96498abe52990b491f002c|52=20260429-08:16:44.004|56=SERVER|1=main|553=Group16|10=013|
[2026-04-29 15:17:13] [DEBUG] [FROM ADMIN] 8=FIX.4.4|9=83|35=0|34=256|49=SERVER|52=20260429-08:17:12.325|56=0c6ba5672f96498abe52990b491f002c|10=134|
[2026-04-29 15:17:14] [DEBUG] [TO ADMIN] 8=FIX.4.4|9=102|35=0|34=255|49=0c6ba5672f96498abe52990b491f002c|52=20260429-08:17:14.133|56=SERVER|1=main|553=Group16|10=015|
[2026-04-29 15:17:43] [DEBUG] [FROM ADMIN] 8=FIX.4.4|9=83|35=0|34=257|49=SERVER|52=20260429-08:17:42.325|56=0c6ba5672f96498abe52990b491f002c|10=138|
[2026-04-29 15:17:44] [DEBUG] [TO ADMIN] 8=FIX.4.4|9=102|35=0|34=256|49=0c6ba5672f96498abe52990b491f002c|52=20260429-08:17:44.000|56=SERVER|1=main|553=Group16|10=012|
[2026-04-29 15:18:13] [DEBUG] [FROM ADMIN] 8=FIX.4.4|9=83|35=0|34=258|49=SERVER|52=20260429-08:18:12.325|56=0c6ba5672f96498abe52990b491f002c|10=137|
[2026-04-29 15:18:14] [DEBUG] [TO ADMIN] 8=FIX.4.4|9=102|35=0|34=257|49=0c6ba5672f96498abe52990b491f002c|52=20260429-08:18:14.585|56=SERVER|1=main|553=Group16|10=029|
[2026-04-29 15:18:43] [DEBUG] [FROM ADMIN] 8=FIX.4.4|9=83|35=0|34=259|49=SERVER|52=20260429-08:18:42.325|56=0c6ba5672f96498abe52990b491f002c|10=141|
[2026-04-29 15:18:44] [DEBUG] [TO ADMIN] 8=FIX.4.4|9=102|35=0|34=258|49=0c6ba5672f96498abe52990b491f002c|52=20260429-08:18:44.433|56=SERVER|1=main|553=Group16|10=025|
[2026-04-29 15:19:13] [DEBUG] [FROM ADMIN] 8=FIX.4.4|9=83|35=0|34=260|49=SERVER|52=20260429-08:19:12.325|56=0c6ba5672f96498abe52990b491f002c|10=131|
[2026-04-29 15:19:14] [DEBUG] [TO ADMIN] 8=FIX.4.4|9=102|35=0|34=259|49=0c6ba5672f96498abe52990b491f002c|52=20260429-08:19:14.303|56=SERVER|1=main|553=Group16|10=020|
[2026-04-29 15:19:43] [DEBUG] [FROM ADMIN] 8=FIX.4.4|9=83|35=0|34=261|49=SERVER|52=20260429-08:19:42.325|56=0c6ba5672f96498abe52990b491f002c|10=135|
[2026-04-29 15:19:44] [DEBUG] [TO ADMIN] 8=FIX.4.4|9=102|35=0|34=260|49=0c6ba5672f96498abe52990b491f002c|52=20260429-08:19:44.225|56=SERVER|1=main|553=Group16|10=018|
[2026-04-29 15:20:13] [DEBUG] [FROM ADMIN] 8=FIX.4.4|9=83|35=0|34=262|49=SERVER|52=20260429-08:20:12.325|56=0c6ba5672f96498abe52990b491f002c|10=125|
[2026-04-29 15:20:14] [DEBUG] [TO ADMIN] 8=FIX.4.4|9=102|35=0|34=261|49=0c6ba5672f96498abe52990b491f002c|52=20260429-08:20:14.019|56=SERVER|1=main|553=Group16|10=009|
[2026-04-29 15:20:43] [DEBUG] [FROM ADMIN] 8=FIX.4.4|9=83|35=0|34=263|49=SERVER|52=20260429-08:20:42.325|56=0c6ba5672f96498abe52990b491f002c|10=129|
[2026-04-29 15:20:44] [DEBUG] [TO ADMIN] 8=FIX.4.4|9=102|35=0|34=262|49=0c6ba5672f96498abe52990b491f002c|52=20260429-08:20:44.405|56=SERVER|1=main|553=Group16|10=012|
[2026-04-29 15:21:13] [DEBUG] [FROM ADMIN] 8=FIX.4.4|9=83|35=0|34=264|49=SERVER|52=20260429-08:21:12.325|56=0c6ba5672f96498abe52990b491f002c|10=128|
[2026-04-29 15:21:14] [DEBUG] [TO ADMIN] 8=FIX.4.4|9=102|35=0|34=263|49=0c6ba5672f96498abe52990b491f002c|52=20260429-08:21:14.013|56=SERVER|1=main|553=Group16|10=006|
[2026-04-29 15:21:43] [DEBUG] [FROM ADMIN] 8=FIX.4.4|9=83|35=0|34=265|49=SERVER|52=20260429-08:21:42.325|56=0c6ba5672f96498abe52990b491f002c|10=132|
[2026-04-29 15:21:44] [DEBUG] [TO ADMIN] 8=FIX.4.4|9=102|35=0|34=264|49=0c6ba5672f96498abe52990b491f002c|52=20260429-08:21:44.000|56=SERVER|1=main|553=Group16|10=006|
[2026-04-29 15:22:13] [DEBUG] [FROM ADMIN] 8=FIX.4.4|9=83|35=0|34=266|49=SERVER|52=20260429-08:22:12.331|56=0c6ba5672f96498abe52990b491f002c|10=128|
[2026-04-29 15:22:14] [DEBUG] [TO ADMIN] 8=FIX.4.4|9=102|35=0|34=265|49=0c6ba5672f96498abe52990b491f002c|52=20260429-08:22:14.017|56=SERVER|1=main|553=Group16|10=013|
[2026-04-29 15:22:43] [DEBUG] [FROM ADMIN] 8=FIX.4.4|9=83|35=0|34=267|49=SERVER|52=20260429-08:22:42.326|56=0c6ba5672f96498abe52990b491f002c|10=136|
[2026-04-29 15:22:44] [DEBUG] [TO ADMIN] 8=FIX.4.4|9=102|35=0|34=266|49=0c6ba5672f96498abe52990b491f002c|52=20260429-08:22:44.205|56=SERVER|1=main|553=Group16|10=016|
[2026-04-29 15:23:13] [DEBUG] [FROM ADMIN] 8=FIX.4.4|9=83|35=0|34=268|49=SERVER|52=20260429-08:23:12.326|56=0c6ba5672f96498abe52990b491f002c|10=135|
[2026-04-29 15:23:14] [DEBUG] [TO ADMIN] 8=FIX.4.4|9=102|35=0|34=267|49=0c6ba5672f96498abe52990b491f002c|52=20260429-08:23:14.077|56=SERVER|1=main|553=Group16|10=022|
[2026-04-29 15:23:43] [DEBUG] [FROM ADMIN] 8=FIX.4.4|9=83|35=0|34=269|49=SERVER|52=20260429-08:23:42.325|56=0c6ba5672f96498abe52990b491f002c|10=138|
[2026-04-29 15:23:44] [DEBUG] [TO ADMIN] 8=FIX.4.4|9=102|35=0|34=268|49=0c6ba5672f96498abe52990b491f002c|52=20260429-08:23:44.680|56=SERVER|1=main|553=Group16|10=026|
[2026-04-29 15:24:12] [DEBUG] [FROM ADMIN] 8=FIX.4.4|9=83|35=0|34=270|49=SERVER|52=20260429-08:24:12.325|56=0c6ba5672f96498abe52990b491f002c|10=128|
[2026-04-29 15:24:14] [DEBUG] [TO ADMIN] 8=FIX.4.4|9=102|35=0|34=269|49=0c6ba5672f96498abe52990b491f002c|52=20260429-08:24:14.382|56=SERVER|1=main|553=Group16|10=024|
[2026-04-29 15:24:42] [DEBUG] [FROM ADMIN] 8=FIX.4.4|9=83|35=0|34=271|49=SERVER|52=20260429-08:24:42.325|56=0c6ba5672f96498abe52990b491f002c|10=132|
[2026-04-29 15:24:44] [DEBUG] [TO ADMIN] 8=FIX.4.4|9=102|35=0|34=270|49=0c6ba5672f96498abe52990b491f002c|52=20260429-08:24:44.254|56=SERVER|1=main|553=Group16|10=017|
[2026-04-29 15:25:12] [DEBUG] [FROM ADMIN] 8=FIX.4.4|9=83|35=0|34=272|49=SERVER|52=20260429-08:25:12.325|56=0c6ba5672f96498abe52990b491f002c|10=131|
[2026-04-29 15:25:14] [DEBUG] [TO ADMIN] 8=FIX.4.4|9=102|35=0|34=271|49=0c6ba5672f96498abe52990b491f002c|52=20260429-08:25:14.177|56=SERVER|1=main|553=Group16|10=020|
[2026-04-29 15:25:43] [DEBUG] [FROM ADMIN] 8=FIX.4.4|9=83|35=0|34=273|49=SERVER|52=20260429-08:25:42.325|56=0c6ba5672f96498abe52990b491f002c|10=135|
[2026-04-29 15:25:44] [DEBUG] [TO ADMIN] 8=FIX.4.4|9=102|35=0|34=272|49=0c6ba5672f96498abe52990b491f002c|52=20260429-08:25:44.240|56=SERVER|1=main|553=Group16|10=015|
[2026-04-29 15:26:13] [DEBUG] [FROM ADMIN] 8=FIX.4.4|9=83|35=0|34=274|49=SERVER|52=20260429-08:26:12.325|56=0c6ba5672f96498abe52990b491f002c|10=134|
[2026-04-29 15:26:14] [DEBUG] [TO ADMIN] 8=FIX.4.4|9=102|35=0|34=273|49=0c6ba5672f96498abe52990b491f002c|52=20260429-08:26:14.103|56=SERVER|1=main|553=Group16|10=012|
[2026-04-29 15:26:43] [DEBUG] [FROM ADMIN] 8=FIX.4.4|9=83|35=0|34=275|49=SERVER|52=20260429-08:26:42.325|56=0c6ba5672f96498abe52990b491f002c|10=138|
[2026-04-29 15:26:44] [DEBUG] [TO ADMIN] 8=FIX.4.4|9=102|35=0|34=274|49=0c6ba5672f96498abe52990b491f002c|52=20260429-08:26:44.630|56=SERVER|1=main|553=Group16|10=021|
[2026-04-29 15:27:13] [DEBUG] [FROM ADMIN] 8=FIX.4.4|9=83|35=0|34=276|49=SERVER|52=20260429-08:27:12.325|56=0c6ba5672f96498abe52990b491f002c|10=137|
[2026-04-29 15:27:14] [DEBUG] [TO ADMIN] 8=FIX.4.4|9=102|35=0|34=275|49=0c6ba5672f96498abe52990b491f002c|52=20260429-08:27:14.476|56=SERVER|1=main|553=Group16|10=028|
[2026-04-29 15:27:43] [DEBUG] [FROM ADMIN] 8=FIX.4.4|9=83|35=0|34=277|49=SERVER|52=20260429-08:27:42.325|56=0c6ba5672f96498abe52990b491f002c|10=141|
[2026-04-29 15:27:44] [DEBUG] [TO ADMIN] 8=FIX.4.4|9=102|35=0|34=276|49=0c6ba5672f96498abe52990b491f002c|52=20260429-08:27:44.305|56=SERVER|1=main|553=Group16|10=023|
[2026-04-29 15:28:13] [DEBUG] [FROM ADMIN] 8=FIX.4.4|9=83|35=0|34=278|49=SERVER|52=20260429-08:28:12.325|56=0c6ba5672f96498abe52990b491f002c|10=140|
[2026-04-29 15:28:14] [DEBUG] [TO ADMIN] 8=FIX.4.4|9=102|35=0|34=277|49=0c6ba5672f96498abe52990b491f002c|52=20260429-08:28:14.209|56=SERVER|1=main|553=Group16|10=025|
[2026-04-29 15:28:43] [DEBUG] [FROM ADMIN] 8=FIX.4.4|9=83|35=0|34=279|49=SERVER|52=20260429-08:28:42.325|56=0c6ba5672f96498abe52990b491f002c|10=144|
[2026-04-29 15:28:44] [DEBUG] [TO ADMIN] 8=FIX.4.4|9=102|35=0|34=278|49=0c6ba5672f96498abe52990b491f002c|52=20260429-08:28:44.026|56=SERVER|1=main|553=Group16|10=026|
[2026-04-29 15:29:13] [DEBUG] [FROM ADMIN] 8=FIX.4.4|9=83|35=0|34=280|49=SERVER|52=20260429-08:29:12.325|56=0c6ba5672f96498abe52990b491f002c|10=134|
[2026-04-29 15:29:14] [DEBUG] [TO ADMIN] 8=FIX.4.4|9=102|35=0|34=279|49=0c6ba5672f96498abe52990b491f002c|52=20260429-08:29:14.302|56=SERVER|1=main|553=Group16|10=022|
[2026-04-29 15:29:43] [DEBUG] [FROM ADMIN] 8=FIX.4.4|9=83|35=0|34=281|49=SERVER|52=20260429-08:29:42.325|56=0c6ba5672f96498abe52990b491f002c|10=138|
[2026-04-29 15:29:44] [DEBUG] [TO ADMIN] 8=FIX.4.4|9=102|35=0|34=280|49=0c6ba5672f96498abe52990b491f002c|52=20260429-08:29:44.066|56=SERVER|1=main|553=Group16|10=024|
[2026-04-29 15:30:13] [DEBUG] [FROM ADMIN] 8=FIX.4.4|9=83|35=0|34=282|49=SERVER|52=20260429-08:30:12.325|56=0c6ba5672f96498abe52990b491f002c|10=128|
[2026-04-29 15:30:14] [DEBUG] [TO ADMIN] 8=FIX.4.4|9=102|35=0|34=281|49=0c6ba5672f96498abe52990b491f002c|52=20260429-08:30:14.060|56=SERVER|1=main|553=Group16|10=008|
[2026-04-29 15:30:43] [DEBUG] [FROM ADMIN] 8=FIX.4.4|9=83|35=0|34=283|49=SERVER|52=20260429-08:30:42.325|56=0c6ba5672f96498abe52990b491f002c|10=132|
[2026-04-29 15:30:44] [DEBUG] [TO ADMIN] 8=FIX.4.4|9=102|35=0|34=282|49=0c6ba5672f96498abe52990b491f002c|52=20260429-08:30:44.025|56=SERVER|1=main|553=Group16|10=013|
[2026-04-29 15:31:13] [DEBUG] [FROM ADMIN] 8=FIX.4.4|9=83|35=0|34=284|49=SERVER|52=20260429-08:31:12.325|56=0c6ba5672f96498abe52990b491f002c|10=131|
[2026-04-29 15:31:14] [DEBUG] [TO ADMIN] 8=FIX.4.4|9=102|35=0|34=283|49=0c6ba5672f96498abe52990b491f002c|52=20260429-08:31:14.274|56=SERVER|1=main|553=Group16|10=018|
[2026-04-29 15:31:43] [DEBUG] [FROM ADMIN] 8=FIX.4.4|9=83|35=0|34=285|49=SERVER|52=20260429-08:31:42.325|56=0c6ba5672f96498abe52990b491f002c|10=135|
[2026-04-29 15:31:44] [DEBUG] [TO ADMIN] 8=FIX.4.4|9=102|35=0|34=284|49=0c6ba5672f96498abe52990b491f002c|52=20260429-08:31:44.064|56=SERVER|1=main|553=Group16|10=019|
[2026-04-29 15:32:13] [DEBUG] [FROM ADMIN] 8=FIX.4.4|9=83|35=0|34=286|49=SERVER|52=20260429-08:32:12.325|56=0c6ba5672f96498abe52990b491f002c|10=134|
[2026-04-29 15:32:14] [DEBUG] [TO ADMIN] 8=FIX.4.4|9=102|35=0|34=285|49=0c6ba5672f96498abe52990b491f002c|52=20260429-08:32:14.575|56=SERVER|1=main|553=Group16|10=025|
[2026-04-29 15:32:43] [DEBUG] [FROM ADMIN] 8=FIX.4.4|9=83|35=0|34=287|49=SERVER|52=20260429-08:32:42.326|56=0c6ba5672f96498abe52990b491f002c|10=139|
[2026-04-29 15:32:44] [DEBUG] [TO ADMIN] 8=FIX.4.4|9=102|35=0|34=286|49=0c6ba5672f96498abe52990b491f002c|52=20260429-08:32:44.226|56=SERVER|1=main|553=Group16|10=022|
[2026-04-29 15:33:13] [DEBUG] [FROM ADMIN] 8=FIX.4.4|9=83|35=0|34=288|49=SERVER|52=20260429-08:33:12.325|56=0c6ba5672f96498abe52990b491f002c|10=137|
[2026-04-29 15:33:14] [DEBUG] [TO ADMIN] 8=FIX.4.4|9=102|35=0|34=287|49=0c6ba5672f96498abe52990b491f002c|52=20260429-08:33:14.011|56=SERVER|1=main|553=Group16|10=013|
[2026-04-29 15:33:43] [DEBUG] [FROM ADMIN] 8=FIX.4.4|9=83|35=0|34=289|49=SERVER|52=20260429-08:33:42.325|56=0c6ba5672f96498abe52990b491f002c|10=141|
[2026-04-29 15:33:44] [DEBUG] [TO ADMIN] 8=FIX.4.4|9=102|35=0|34=288|49=0c6ba5672f96498abe52990b491f002c|52=20260429-08:33:44.081|56=SERVER|1=main|553=Group16|10=024|
[2026-04-29 15:34:13] [DEBUG] [FROM ADMIN] 8=FIX.4.4|9=83|35=0|34=290|49=SERVER|52=20260429-08:34:12.325|56=0c6ba5672f96498abe52990b491f002c|10=131|
[2026-04-29 15:34:14] [DEBUG] [TO ADMIN] 8=FIX.4.4|9=102|35=0|34=289|49=0c6ba5672f96498abe52990b491f002c|52=20260429-08:34:14.120|56=SERVER|1=main|553=Group16|10=017|
[2026-04-29 15:34:43] [DEBUG] [FROM ADMIN] 8=FIX.4.4|9=83|35=0|34=291|49=SERVER|52=20260429-08:34:42.325|56=0c6ba5672f96498abe52990b491f002c|10=135|
[2026-04-29 15:34:44] [DEBUG] [TO ADMIN] 8=FIX.4.4|9=102|35=0|34=290|49=0c6ba5672f96498abe52990b491f002c|52=20260429-08:34:44.055|56=SERVER|1=main|553=Group16|10=019|
[2026-04-29 15:35:13] [DEBUG] [FROM ADMIN] 8=FIX.4.4|9=83|35=0|34=292|49=SERVER|52=20260429-08:35:12.325|56=0c6ba5672f96498abe52990b491f002c|10=134|
[2026-04-29 15:35:14] [DEBUG] [TO ADMIN] 8=FIX.4.4|9=102|35=0|34=291|49=0c6ba5672f96498abe52990b491f002c|52=20260429-08:35:14.812|56=SERVER|1=main|553=Group16|10=019|
[2026-04-29 15:35:42] [DEBUG] [FROM ADMIN] 8=FIX.4.4|9=83|35=0|34=293|49=SERVER|52=20260429-08:35:42.325|56=0c6ba5672f96498abe52990b491f002c|10=138|
[2026-04-29 15:35:44] [DEBUG] [TO ADMIN] 8=FIX.4.4|9=102|35=0|34=292|49=0c6ba5672f96498abe52990b491f002c|52=20260429-08:35:44.579|56=SERVER|1=main|553=Group16|10=033|
[2026-04-29 15:36:12] [DEBUG] [FROM ADMIN] 8=FIX.4.4|9=83|35=0|34=294|49=SERVER|52=20260429-08:36:12.325|56=0c6ba5672f96498abe52990b491f002c|10=137|
[2026-04-29 15:36:14] [DEBUG] [TO ADMIN] 8=FIX.4.4|9=102|35=0|34=293|49=0c6ba5672f96498abe52990b491f002c|52=20260429-08:36:14.306|56=SERVER|1=main|553=Group16|10=020|
[2026-04-29 15:36:42] [DEBUG] [FROM ADMIN] 8=FIX.4.4|9=83|35=0|34=295|49=SERVER|52=20260429-08:36:42.326|56=0c6ba5672f96498abe52990b491f002c|10=142|
[2026-04-29 15:36:44] [DEBUG] [TO ADMIN] 8=FIX.4.4|9=102|35=0|34=294|49=0c6ba5672f96498abe52990b491f002c|52=20260429-08:36:44.483|56=SERVER|1=main|553=Group16|10=030|
[2026-04-29 15:37:12] [DEBUG] [FROM ADMIN] 8=FIX.4.4|9=83|35=0|34=296|49=SERVER|52=20260429-08:37:12.325|56=0c6ba5672f96498abe52990b491f002c|10=140|
[2026-04-29 15:37:14] [DEBUG] [TO ADMIN] 8=FIX.4.4|9=102|35=0|34=295|49=0c6ba5672f96498abe52990b491f002c|52=20260429-08:37:14.037|56=SERVER|1=main|553=Group16|10=024|
[2026-04-29 15:37:42] [DEBUG] [FROM ADMIN] 8=FIX.4.4|9=83|35=0|34=297|49=SERVER|52=20260429-08:37:42.325|56=0c6ba5672f96498abe52990b491f002c|10=144|
[2026-04-29 15:37:44] [DEBUG] [TO ADMIN] 8=FIX.4.4|9=102|35=0|34=296|49=0c6ba5672f96498abe52990b491f002c|52=20260429-08:37:44.220|56=SERVER|1=main|553=Group16|10=022|
[2026-04-29 15:38:12] [DEBUG] [FROM ADMIN] 8=FIX.4.4|9=83|35=0|34=298|49=SERVER|52=20260429-08:38:12.325|56=0c6ba5672f96498abe52990b491f002c|10=143|
[2026-04-29 15:38:14] [DEBUG] [TO ADMIN] 8=FIX.4.4|9=102|35=0|34=297|49=0c6ba5672f96498abe52990b491f002c|52=20260429-08:38:14.059|56=SERVER|1=main|553=Group16|10=031|
[2026-04-29 15:38:42] [DEBUG] [FROM ADMIN] 8=FIX.4.4|9=83|35=0|34=299|49=SERVER|52=20260429-08:38:42.325|56=0c6ba5672f96498abe52990b491f002c|10=147|
[2026-04-29 15:38:44] [DEBUG] [TO ADMIN] 8=FIX.4.4|9=102|35=0|34=298|49=0c6ba5672f96498abe52990b491f002c|52=20260429-08:38:44.007|56=SERVER|1=main|553=Group16|10=028|
[2026-04-29 15:39:12] [DEBUG] [FROM ADMIN] 8=FIX.4.4|9=83|35=0|34=300|49=SERVER|52=20260429-08:39:12.325|56=0c6ba5672f96498abe52990b491f002c|10=128|
[2026-04-29 15:39:14] [DEBUG] [TO ADMIN] 8=FIX.4.4|9=102|35=0|34=299|49=0c6ba5672f96498abe52990b491f002c|52=20260429-08:39:14.495|56=SERVER|1=main|553=Group16|10=038|
[2026-04-29 15:39:42] [DEBUG] [FROM ADMIN] 8=FIX.4.4|9=83|35=0|34=301|49=SERVER|52=20260429-08:39:42.325|56=0c6ba5672f96498abe52990b491f002c|10=132|
[2026-04-29 15:39:44] [DEBUG] [TO ADMIN] 8=FIX.4.4|9=102|35=0|34=300|49=0c6ba5672f96498abe52990b491f002c|52=20260429-08:39:44.245|56=SERVER|1=main|553=Group16|10=017|
[2026-04-29 15:40:12] [DEBUG] [FROM ADMIN] 8=FIX.4.4|9=83|35=0|34=302|49=SERVER|52=20260429-08:40:12.325|56=0c6ba5672f96498abe52990b491f002c|10=122|
[2026-04-29 15:40:14] [DEBUG] [TO ADMIN] 8=FIX.4.4|9=102|35=0|34=301|49=0c6ba5672f96498abe52990b491f002c|52=20260429-08:40:14.026|56=SERVER|1=main|553=Group16|10=004|
[2026-04-29 15:40:42] [DEBUG] [FROM ADMIN] 8=FIX.4.4|9=83|35=0|34=303|49=SERVER|52=20260429-08:40:42.325|56=0c6ba5672f96498abe52990b491f002c|10=126|
[2026-04-29 15:40:44] [DEBUG] [TO ADMIN] 8=FIX.4.4|9=102|35=0|34=302|49=0c6ba5672f96498abe52990b491f002c|52=20260429-08:40:44.415|56=SERVER|1=main|553=Group16|10=010|
[2026-04-29 15:41:12] [DEBUG] [FROM ADMIN] 8=FIX.4.4|9=83|35=0|34=304|49=SERVER|52=20260429-08:41:12.325|56=0c6ba5672f96498abe52990b491f002c|10=125|
[2026-04-29 15:41:14] [DEBUG] [TO ADMIN] 8=FIX.4.4|9=102|35=0|34=303|49=0c6ba5672f96498abe52990b491f002c|52=20260429-08:41:14.354|56=SERVER|1=main|553=Group16|10=011|
[2026-04-29 15:41:42] [DEBUG] [FROM ADMIN] 8=FIX.4.4|9=83|35=0|34=305|49=SERVER|52=20260429-08:41:42.325|56=0c6ba5672f96498abe52990b491f002c|10=129|
[2026-04-29 15:41:44] [DEBUG] [TO ADMIN] 8=FIX.4.4|9=102|35=0|34=304|49=0c6ba5672f96498abe52990b491f002c|52=20260429-08:41:44.205|56=SERVER|1=main|553=Group16|10=010|
[2026-04-29 15:42:12] [DEBUG] [FROM ADMIN] 8=FIX.4.4|9=83|35=0|34=306|49=SERVER|52=20260429-08:42:12.325|56=0c6ba5672f96498abe52990b491f002c|10=128|
[2026-04-29 15:42:14] [DEBUG] [TO ADMIN] 8=FIX.4.4|9=102|35=0|34=305|49=0c6ba5672f96498abe52990b491f002c|52=20260429-08:42:14.044|56=SERVER|1=main|553=Group16|10=010|
[2026-04-29 15:42:42] [DEBUG] [FROM ADMIN] 8=FIX.4.4|9=83|35=0|34=307|49=SERVER|52=20260429-08:42:42.325|56=0c6ba5672f96498abe52990b491f002c|10=132|
[2026-04-29 15:42:44] [DEBUG] [TO ADMIN] 8=FIX.4.4|9=102|35=0|34=306|49=0c6ba5672f96498abe52990b491f002c|52=20260429-08:42:44.015|56=SERVER|1=main|553=Group16|10=012|
[2026-04-29 15:43:12] [DEBUG] [FROM ADMIN] 8=FIX.4.4|9=83|35=0|34=308|49=SERVER|52=20260429-08:43:12.325|56=0c6ba5672f96498abe52990b491f002c|10=131|
[2026-04-29 15:43:14] [DEBUG] [TO ADMIN] 8=FIX.4.4|9=102|35=0|34=307|49=0c6ba5672f96498abe52990b491f002c|52=20260429-08:43:14.266|56=SERVER|1=main|553=Group16|10=019|
[2026-04-29 15:43:42] [DEBUG] [FROM ADMIN] 8=FIX.4.4|9=83|35=0|34=309|49=SERVER|52=20260429-08:43:42.325|56=0c6ba5672f96498abe52990b491f002c|10=135|
[2026-04-29 15:43:44] [DEBUG] [TO ADMIN] 8=FIX.4.4|9=102|35=0|34=308|49=0c6ba5672f96498abe52990b491f002c|52=20260429-08:43:44.776|56=SERVER|1=main|553=Group16|10=029|
[2026-04-29 15:44:13] [DEBUG] [FROM ADMIN] 8=FIX.4.4|9=83|35=0|34=310|49=SERVER|52=20260429-08:44:12.325|56=0c6ba5672f96498abe52990b491f002c|10=125|
[2026-04-29 15:44:14] [DEBUG] [TO ADMIN] 8=FIX.4.4|9=102|35=0|34=309|49=0c6ba5672f96498abe52990b491f002c|52=20260429-08:44:14.473|56=SERVER|1=main|553=Group16|10=022|
[2026-04-29 15:44:43] [DEBUG] [FROM ADMIN] 8=FIX.4.4|9=83|35=0|34=311|49=SERVER|52=20260429-08:44:42.325|56=0c6ba5672f96498abe52990b491f002c|10=129|
[2026-04-29 15:44:44] [DEBUG] [TO ADMIN] 8=FIX.4.4|9=102|35=0|34=310|49=0c6ba5672f96498abe52990b491f002c|52=20260429-08:44:44.348|56=SERVER|1=main|553=Group16|10=018|
