[2026-04-01 08:20:49] [DEBUG] [TO ADMIN] 8=FIX.4.4|9=102|35=5|34=173|49=0c6ba5672f96498abe52990b491f002c|52=20260401-01:20:49.878|56=SERVER|1=main|553=Group16|10=020|
[2026-04-01 08:20:49] [INFO] Session created: FIX.4.4:0c6ba5672f96498abe52990b491f002c->SERVER
[2026-04-01 08:20:49] [DEBUG] FIXSessionManager initialized config=/tmp/paperbroker_o12gxy40.cfg username=Group16
[2026-04-01 08:20:49] [DEBUG] RestSession initialized with base_url: https://papertrade.algotrade.vn/accounting
[2026-04-01 08:20:49] [DEBUG] Registered handler for event 'fix:logon'. Total handlers: 1
[2026-04-01 08:20:49] [DEBUG] Registered handler for event 'fix:order:accepted'. Total handlers: 2
[2026-04-01 08:20:49] [DEBUG] Registered handler for event 'fix:order:filled'. Total handlers: 3
[2026-04-01 08:20:49] [INFO] Starting FIX session...
[2026-04-01 08:20:49] [DEBUG] POST https://papertrade.algotrade.vn/accounting/api/fix-account-info/get-fix-id payload_keys=['username', 'password']
[2026-04-01 08:20:51] [DEBUG] [TO ADMIN] 8=FIX.4.4|9=135|35=A|34=1|49=0c6ba5672f96498abe52990b491f002c|52=20260401-01:20:51.275|56=SERVER|1=main|98=0|108=30|141=Y|553=Group16|554=CqNO5I7KfygR|10=183|
[2026-04-01 08:20:51] [DEBUG] [FROM ADMIN] 8=FIX.4.4|9=99|35=A|34=1|49=SERVER|52=20260401-01:20:51.638|56=0c6ba5672f96498abe52990b491f002c|98=0|108=30|141=Y|10=107|
[2026-04-01 08:20:51] [INFO] Logon success: FIX.4.4:0c6ba5672f96498abe52990b491f002c->SERVER
[2026-04-01 08:20:51] [INFO] Order manager session set: FIX.4.4:0c6ba5672f96498abe52990b491f002c->SERVER
[2026-04-01 08:20:51] [DEBUG] Emitting event 'fix:logon' to 1 handler(s)
[2026-04-01 08:20:51] [DEBUG] POST https://papertrade.algotrade.vn/accounting/api/fix-account-info/get-fix-id succeeded status_code=200
[2026-04-01 08:20:51] [INFO] event=fix_id_resolved username=Group16 fixAccountID=95bf1129dd2c4e4a96720ec3bfdceb06
[2026-04-01 08:20:51] [INFO] Initialized KafkaMarketDataClient: 52.77.119.94:9092, merge_updates=True
[2026-04-01 08:20:51] [INFO] Subscribed to HNXDS:VN30F2604 (topic: real.HNXDS.VN30F2604)
[2026-04-01 08:20:51] [INFO] Starting Kafka consumer for topics: ['real.HNXDS.VN30F2604']
[2026-04-01 08:20:52] [INFO] Kafka consumer thread started
[2026-04-01 08:20:52] [INFO] Kafka consumer started
[2026-04-01 08:21:21] [DEBUG] [TO ADMIN] 8=FIX.4.4|9=100|35=0|34=2|49=0c6ba5672f96498abe52990b491f002c|52=20260401-01:21:21.544|56=SERVER|1=main|553=Group16|10=145|
[2026-04-01 08:21:22] [DEBUG] [FROM ADMIN] 8=FIX.4.4|9=81|35=0|34=2|49=SERVER|52=20260401-01:21:21.718|56=0c6ba5672f96498abe52990b491f002c|10=009|
[2026-04-01 08:21:51] [DEBUG] [TO ADMIN] 8=FIX.4.4|9=100|35=0|34=3|49=0c6ba5672f96498abe52990b491f002c|52=20260401-01:21:51.448|56=SERVER|1=main|553=Group16|10=152|
[2026-04-01 08:21:52] [DEBUG] [FROM ADMIN] 8=FIX.4.4|9=81|35=0|34=3|49=SERVER|52=20260401-01:21:51.718|56=0c6ba5672f96498abe52990b491f002c|10=013|
[2026-04-01 08:22:21] [DEBUG] [TO ADMIN] 8=FIX.4.4|9=100|35=0|34=4|49=0c6ba5672f96498abe52990b491f002c|52=20260401-01:22:21.204|56=SERVER|1=main|553=Group16|10=141|
[2026-04-01 08:22:22] [DEBUG] [FROM ADMIN] 8=FIX.4.4|9=81|35=0|34=4|49=SERVER|52=20260401-01:22:21.718|56=0c6ba5672f96498abe52990b491f002c|10=012|
[2026-04-01 08:22:51] [DEBUG] [TO ADMIN] 8=FIX.4.4|9=100|35=0|34=5|49=0c6ba5672f96498abe52990b491f002c|52=20260401-01:22:51.014|56=SERVER|1=main|553=Group16|10=144|
[2026-04-01 08:22:52] [DEBUG] [FROM ADMIN] 8=FIX.4.4|9=81|35=0|34=5|49=SERVER|52=20260401-01:22:51.718|56=0c6ba5672f96498abe52990b491f002c|10=016|
[2026-04-01 08:23:21] [DEBUG] [TO ADMIN] 8=FIX.4.4|9=100|35=0|34=6|49=0c6ba5672f96498abe52990b491f002c|52=20260401-01:23:21.097|56=SERVER|1=main|553=Group16|10=154|
[2026-04-01 08:23:22] [DEBUG] [FROM ADMIN] 8=FIX.4.4|9=81|35=0|34=6|49=SERVER|52=20260401-01:23:21.718|56=0c6ba5672f96498abe52990b491f002c|10=015|
[2026-04-01 08:23:51] [DEBUG] [TO ADMIN] 8=FIX.4.4|9=100|35=0|34=7|49=0c6ba5672f96498abe52990b491f002c|52=20260401-01:23:51.013|56=SERVER|1=main|553=Group16|10=146|
[2026-04-01 08:23:51] [DEBUG] [FROM ADMIN] 8=FIX.4.4|9=81|35=0|34=7|49=SERVER|52=20260401-01:23:51.718|56=0c6ba5672f96498abe52990b491f002c|10=019|
[2026-04-01 08:24:21] [DEBUG] [TO ADMIN] 8=FIX.4.4|9=100|35=0|34=8|49=0c6ba5672f96498abe52990b491f002c|52=20260401-01:24:21.495|56=SERVER|1=main|553=Group16|10=159|
[2026-04-01 08:24:21] [DEBUG] [FROM ADMIN] 8=FIX.4.4|9=81|35=0|34=8|49=SERVER|52=20260401-01:24:21.718|56=0c6ba5672f96498abe52990b491f002c|10=018|
[2026-04-01 08:24:51] [DEBUG] [TO ADMIN] 8=FIX.4.4|9=100|35=0|34=9|49=0c6ba5672f96498abe52990b491f002c|52=20260401-01:24:51.193|56=SERVER|1=main|553=Group16|10=158|
[2026-04-01 08:24:52] [DEBUG] [FROM ADMIN] 8=FIX.4.4|9=81|35=0|34=9|49=SERVER|52=20260401-01:24:51.718|56=0c6ba5672f96498abe52990b491f002c|10=022|
[2026-04-01 08:25:21] [DEBUG] [TO ADMIN] 8=FIX.4.4|9=101|35=0|34=10|49=0c6ba5672f96498abe52990b491f002c|52=20260401-01:25:21.408|56=SERVER|1=main|553=Group16|10=196|
[2026-04-01 08:25:22] [DEBUG] [FROM ADMIN] 8=FIX.4.4|9=82|35=0|34=10|49=SERVER|52=20260401-01:25:21.718|56=0c6ba5672f96498abe52990b491f002c|10=061|
[2026-04-01 08:25:51] [DEBUG] [TO ADMIN] 8=FIX.4.4|9=101|35=0|34=11|49=0c6ba5672f96498abe52990b491f002c|52=20260401-01:25:51.314|56=SERVER|1=main|553=Group16|10=196|
[2026-04-01 08:25:52] [DEBUG] [FROM ADMIN] 8=FIX.4.4|9=82|35=0|34=11|49=SERVER|52=20260401-01:25:51.718|56=0c6ba5672f96498abe52990b491f002c|10=065|
[2026-04-01 08:26:21] [DEBUG] [TO ADMIN] 8=FIX.4.4|9=101|35=0|34=12|49=0c6ba5672f96498abe52990b491f002c|52=20260401-01:26:21.196|56=SERVER|1=main|553=Group16|10=203|
[2026-04-01 08:26:22] [DEBUG] [FROM ADMIN] 8=FIX.4.4|9=82|35=0|34=12|49=SERVER|52=20260401-01:26:21.718|56=0c6ba5672f96498abe52990b491f002c|10=064|
[2026-04-01 08:26:51] [DEBUG] [TO ADMIN] 8=FIX.4.4|9=101|35=0|34=13|49=0c6ba5672f96498abe52990b491f002c|52=20260401-01:26:51.138|56=SERVER|1=main|553=Group16|10=203|
[2026-04-01 08:26:52] [DEBUG] [FROM ADMIN] 8=FIX.4.4|9=82|35=0|34=13|49=SERVER|52=20260401-01:26:51.718|56=0c6ba5672f96498abe52990b491f002c|10=068|
[2026-04-01 08:27:21] [DEBUG] [TO ADMIN] 8=FIX.4.4|9=101|35=0|34=14|49=0c6ba5672f96498abe52990b491f002c|52=20260401-01:27:21.321|56=SERVER|1=main|553=Group16|10=196|
[2026-04-01 08:27:22] [DEBUG] [FROM ADMIN] 8=FIX.4.4|9=82|35=0|34=14|49=SERVER|52=20260401-01:27:21.718|56=0c6ba5672f96498abe52990b491f002c|10=067|
[2026-04-01 08:27:51] [DEBUG] [TO ADMIN] 8=FIX.4.4|9=101|35=0|34=15|49=0c6ba5672f96498abe52990b491f002c|52=20260401-01:27:51.229|56=SERVER|1=main|553=Group16|10=207|
[2026-04-01 08:27:52] [DEBUG] [FROM ADMIN] 8=FIX.4.4|9=82|35=0|34=15|49=SERVER|52=20260401-01:27:51.718|56=0c6ba5672f96498abe52990b491f002c|10=071|
[2026-04-01 08:28:21] [DEBUG] [TO ADMIN] 8=FIX.4.4|9=101|35=0|34=16|49=0c6ba5672f96498abe52990b491f002c|52=20260401-01:28:21.082|56=SERVER|1=main|553=Group16|10=203|
[2026-04-01 08:28:22] [DEBUG] [FROM ADMIN] 8=FIX.4.4|9=82|35=0|34=16|49=SERVER|52=20260401-01:28:21.718|56=0c6ba5672f96498abe52990b491f002c|10=070|
[2026-04-01 08:28:51] [DEBUG] [TO ADMIN] 8=FIX.4.4|9=101|35=0|34=17|49=0c6ba5672f96498abe52990b491f002c|52=20260401-01:28:51.747|56=SERVER|1=main|553=Group16|10=215|
[2026-04-01 08:28:51] [DEBUG] [FROM ADMIN] 8=FIX.4.4|9=82|35=0|34=17|49=SERVER|52=20260401-01:28:51.718|56=0c6ba5672f96498abe52990b491f002c|10=074|
[2026-04-01 08:29:21] [DEBUG] [TO ADMIN] 8=FIX.4.4|9=101|35=0|34=18|49=0c6ba5672f96498abe52990b491f002c|52=20260401-01:29:21.620|56=SERVER|1=main|553=Group16|10=204|
[2026-04-01 08:29:22] [DEBUG] [FROM ADMIN] 8=FIX.4.4|9=82|35=0|34=18|49=SERVER|52=20260401-01:29:21.718|56=0c6ba5672f96498abe52990b491f002c|10=073|
[2026-04-01 08:29:51] [DEBUG] [TO ADMIN] 8=FIX.4.4|9=101|35=0|34=19|49=0c6ba5672f96498abe52990b491f002c|52=20260401-01:29:51.253|56=SERVER|1=main|553=Group16|10=210|
[2026-04-01 08:29:52] [DEBUG] [FROM ADMIN] 8=FIX.4.4|9=82|35=0|34=19|49=SERVER|52=20260401-01:29:51.718|56=0c6ba5672f96498abe52990b491f002c|10=077|
[2026-04-01 08:30:21] [DEBUG] [TO ADMIN] 8=FIX.4.4|9=101|35=0|34=20|49=0c6ba5672f96498abe52990b491f002c|52=20260401-01:30:21.128|56=SERVER|1=main|553=Group16|10=192|
[2026-04-01 08:30:21] [DEBUG] [FROM ADMIN] 8=FIX.4.4|9=82|35=0|34=20|49=SERVER|52=20260401-01:30:21.718|56=0c6ba5672f96498abe52990b491f002c|10=058|
[2026-04-01 08:30:51] [DEBUG] [TO ADMIN] 8=FIX.4.4|9=101|35=0|34=21|49=0c6ba5672f96498abe52990b491f002c|52=20260401-01:30:51.026|56=SERVER|1=main|553=Group16|10=193|
[2026-04-01 08:30:51] [DEBUG] [FROM ADMIN] 8=FIX.4.4|9=82|35=0|34=21|49=SERVER|52=20260401-01:30:51.718|56=0c6ba5672f96498abe52990b491f002c|10=062|
[2026-04-01 08:31:21] [DEBUG] [TO ADMIN] 8=FIX.4.4|9=101|35=0|34=22|49=0c6ba5672f96498abe52990b491f002c|52=20260401-01:31:21.151|56=SERVER|1=main|553=Group16|10=191|
[2026-04-01 08:31:21] [DEBUG] [FROM ADMIN] 8=FIX.4.4|9=82|35=0|34=22|49=SERVER|52=20260401-01:31:21.718|56=0c6ba5672f96498abe52990b491f002c|10=061|
[2026-04-01 08:31:51] [DEBUG] [TO ADMIN] 8=FIX.4.4|9=101|35=0|34=23|49=0c6ba5672f96498abe52990b491f002c|52=20260401-01:31:51.515|56=SERVER|1=main|553=Group16|10=199|
[2026-04-01 08:31:52] [DEBUG] [FROM ADMIN] 8=FIX.4.4|9=82|35=0|34=23|49=SERVER|52=20260401-01:31:51.718|56=0c6ba5672f96498abe52990b491f002c|10=065|
[2026-04-01 08:32:21] [DEBUG] [TO ADMIN] 8=FIX.4.4|9=101|35=0|34=24|49=0c6ba5672f96498abe52990b491f002c|52=20260401-01:32:21.102|56=SERVER|1=main|553=Group16|10=190|
[2026-04-01 08:32:21] [DEBUG] [FROM ADMIN] 8=FIX.4.4|9=82|35=0|34=24|49=SERVER|52=20260401-01:32:21.718|56=0c6ba5672f96498abe52990b491f002c|10=064|
[2026-04-01 08:32:51] [DEBUG] [TO ADMIN] 8=FIX.4.4|9=101|35=0|34=25|49=0c6ba5672f96498abe52990b491f002c|52=20260401-01:32:51.596|56=SERVER|1=main|553=Group16|10=211|
[2026-04-01 08:32:51] [DEBUG] [FROM ADMIN] 8=FIX.4.4|9=82|35=0|34=25|49=SERVER|52=20260401-01:32:51.718|56=0c6ba5672f96498abe52990b491f002c|10=068|
[2026-04-01 08:33:21] [DEBUG] [TO ADMIN] 8=FIX.4.4|9=101|35=0|34=26|49=0c6ba5672f96498abe52990b491f002c|52=20260401-01:33:21.508|56=SERVER|1=main|553=Group16|10=203|
[2026-04-01 08:33:21] [DEBUG] [FROM ADMIN] 8=FIX.4.4|9=82|35=0|34=26|49=SERVER|52=20260401-01:33:21.718|56=0c6ba5672f96498abe52990b491f002c|10=067|
[2026-04-01 08:33:51] [DEBUG] [TO ADMIN] 8=FIX.4.4|9=101|35=0|34=27|49=0c6ba5672f96498abe52990b491f002c|52=20260401-01:33:51.086|56=SERVER|1=main|553=Group16|10=208|
[2026-04-01 08:33:52] [DEBUG] [FROM ADMIN] 8=FIX.4.4|9=82|35=0|34=27|49=SERVER|52=20260401-01:33:51.718|56=0c6ba5672f96498abe52990b491f002c|10=071|
[2026-04-01 08:34:21] [DEBUG] [TO ADMIN] 8=FIX.4.4|9=101|35=0|34=28|49=0c6ba5672f96498abe52990b491f002c|52=20260401-01:34:21.003|56=SERVER|1=main|553=Group16|10=196|
[2026-04-01 08:34:22] [DEBUG] [FROM ADMIN] 8=FIX.4.4|9=82|35=0|34=28|49=SERVER|52=20260401-01:34:21.718|56=0c6ba5672f96498abe52990b491f002c|10=070|
[2026-04-01 08:34:51] [DEBUG] [TO ADMIN] 8=FIX.4.4|9=101|35=0|34=29|49=0c6ba5672f96498abe52990b491f002c|52=20260401-01:34:51.102|56=SERVER|1=main|553=Group16|10=200|
[2026-04-01 08:34:52] [DEBUG] [FROM ADMIN] 8=FIX.4.4|9=82|35=0|34=29|49=SERVER|52=20260401-01:34:51.718|56=0c6ba5672f96498abe52990b491f002c|10=074|
[2026-04-01 08:35:21] [DEBUG] [TO ADMIN] 8=FIX.4.4|9=101|35=0|34=30|49=0c6ba5672f96498abe52990b491f002c|52=20260401-01:35:21.130|56=SERVER|1=main|553=Group16|10=191|
[2026-04-01 08:35:22] [DEBUG] [FROM ADMIN] 8=FIX.4.4|9=82|35=0|34=30|49=SERVER|52=20260401-01:35:21.718|56=0c6ba5672f96498abe52990b491f002c|10=064|
[2026-04-01 08:35:51] [DEBUG] [TO ADMIN] 8=FIX.4.4|9=101|35=0|34=31|49=0c6ba5672f96498abe52990b491f002c|52=20260401-01:35:51.204|56=SERVER|1=main|553=Group16|10=197|
[2026-04-01 08:35:52] [DEBUG] [FROM ADMIN] 8=FIX.4.4|9=82|35=0|34=31|49=SERVER|52=20260401-01:35:51.718|56=0c6ba5672f96498abe52990b491f002c|10=068|
[2026-04-01 08:36:21] [DEBUG] [TO ADMIN] 8=FIX.4.4|9=101|35=0|34=32|49=0c6ba5672f96498abe52990b491f002c|52=20260401-01:36:21.166|56=SERVER|1=main|553=Group16|10=203|
[2026-04-01 08:36:22] [DEBUG] [FROM ADMIN] 8=FIX.4.4|9=82|35=0|34=32|49=SERVER|52=20260401-01:36:21.718|56=0c6ba5672f96498abe52990b491f002c|10=067|
[2026-04-01 08:36:51] [DEBUG] [TO ADMIN] 8=FIX.4.4|9=101|35=0|34=33|49=0c6ba5672f96498abe52990b491f002c|52=20260401-01:36:51.076|56=SERVER|1=main|553=Group16|10=207|
[2026-04-01 08:36:52] [DEBUG] [FROM ADMIN] 8=FIX.4.4|9=82|35=0|34=33|49=SERVER|52=20260401-01:36:51.718|56=0c6ba5672f96498abe52990b491f002c|10=071|
[2026-04-01 08:37:21] [DEBUG] [TO ADMIN] 8=FIX.4.4|9=101|35=0|34=34|49=0c6ba5672f96498abe52990b491f002c|52=20260401-01:37:21.072|56=SERVER|1=main|553=Group16|10=202|
[2026-04-01 08:37:22] [DEBUG] [FROM ADMIN] 8=FIX.4.4|9=82|35=0|34=34|49=SERVER|52=20260401-01:37:21.718|56=0c6ba5672f96498abe52990b491f002c|10=070|
[2026-04-01 08:37:51] [DEBUG] [TO ADMIN] 8=FIX.4.4|9=101|35=0|34=35|49=0c6ba5672f96498abe52990b491f002c|52=20260401-01:37:51.258|56=SERVER|1=main|553=Group16|10=212|
[2026-04-01 08:37:52] [DEBUG] [FROM ADMIN] 8=FIX.4.4|9=82|35=0|34=35|49=SERVER|52=20260401-01:37:51.718|56=0c6ba5672f96498abe52990b491f002c|10=074|
[2026-04-01 08:38:21] [DEBUG] [TO ADMIN] 8=FIX.4.4|9=101|35=0|34=36|49=0c6ba5672f96498abe52990b491f002c|52=20260401-01:38:21.058|56=SERVER|1=main|553=Group16|10=209|
[2026-04-01 08:38:22] [DEBUG] [FROM ADMIN] 8=FIX.4.4|9=82|35=0|34=36|49=SERVER|52=20260401-01:38:21.718|56=0c6ba5672f96498abe52990b491f002c|10=073|
[2026-04-01 08:38:51] [DEBUG] [TO ADMIN] 8=FIX.4.4|9=101|35=0|34=37|49=0c6ba5672f96498abe52990b491f002c|52=20260401-01:38:51.042|56=SERVER|1=main|553=Group16|10=206|
[2026-04-01 08:38:52] [DEBUG] [FROM ADMIN] 8=FIX.4.4|9=82|35=0|34=37|49=SERVER|52=20260401-01:38:51.718|56=0c6ba5672f96498abe52990b491f002c|10=077|
[2026-04-01 08:39:21] [DEBUG] [TO ADMIN] 8=FIX.4.4|9=101|35=0|34=38|49=0c6ba5672f96498abe52990b491f002c|52=20260401-01:39:21.158|56=SERVER|1=main|553=Group16|10=213|
[2026-04-01 08:39:22] [DEBUG] [FROM ADMIN] 8=FIX.4.4|9=82|35=0|34=38|49=SERVER|52=20260401-01:39:21.718|56=0c6ba5672f96498abe52990b491f002c|10=076|
[2026-04-01 08:39:51] [DEBUG] [TO ADMIN] 8=FIX.4.4|9=101|35=0|34=39|49=0c6ba5672f96498abe52990b491f002c|52=20260401-01:39:51.015|56=SERVER|1=main|553=Group16|10=209|
[2026-04-01 08:39:52] [DEBUG] [FROM ADMIN] 8=FIX.4.4|9=82|35=0|34=39|49=SERVER|52=20260401-01:39:51.718|56=0c6ba5672f96498abe52990b491f002c|10=080|
[2026-04-01 08:40:21] [DEBUG] [TO ADMIN] 8=FIX.4.4|9=101|35=0|34=40|49=0c6ba5672f96498abe52990b491f002c|52=20260401-01:40:21.843|56=SERVER|1=main|553=Group16|10=199|
[2026-04-01 08:40:21] [DEBUG] [FROM ADMIN] 8=FIX.4.4|9=82|35=0|34=40|49=SERVER|52=20260401-01:40:21.718|56=0c6ba5672f96498abe52990b491f002c|10=061|
[2026-04-01 08:40:51] [DEBUG] [TO ADMIN] 8=FIX.4.4|9=101|35=0|34=41|49=0c6ba5672f96498abe52990b491f002c|52=20260401-01:40:51.161|56=SERVER|1=main|553=Group16|10=196|
[2026-04-01 08:40:51] [DEBUG] [FROM ADMIN] 8=FIX.4.4|9=82|35=0|34=41|49=SERVER|52=20260401-01:40:51.718|56=0c6ba5672f96498abe52990b491f002c|10=065|
[2026-04-01 08:41:21] [DEBUG] [TO ADMIN] 8=FIX.4.4|9=101|35=0|34=42|49=0c6ba5672f96498abe52990b491f002c|52=20260401-01:41:21.063|56=SERVER|1=main|553=Group16|10=196|
[2026-04-01 08:41:21] [DEBUG] [FROM ADMIN] 8=FIX.4.4|9=82|35=0|34=42|49=SERVER|52=20260401-01:41:21.718|56=0c6ba5672f96498abe52990b491f002c|10=064|
[2026-04-01 08:41:51] [DEBUG] [TO ADMIN] 8=FIX.4.4|9=101|35=0|34=43|49=0c6ba5672f96498abe52990b491f002c|52=20260401-01:41:51.263|56=SERVER|1=main|553=Group16|10=202|
[2026-04-01 08:41:51] [DEBUG] [FROM ADMIN] 8=FIX.4.4|9=82|35=0|34=43|49=SERVER|52=20260401-01:41:51.718|56=0c6ba5672f96498abe52990b491f002c|10=068|
[2026-04-01 08:42:21] [DEBUG] [TO ADMIN] 8=FIX.4.4|9=101|35=0|34=44|49=0c6ba5672f96498abe52990b491f002c|52=20260401-01:42:21.093|56=SERVER|1=main|553=Group16|10=202|
[2026-04-01 08:42:21] [DEBUG] [FROM ADMIN] 8=FIX.4.4|9=82|35=0|34=44|49=SERVER|52=20260401-01:42:21.718|56=0c6ba5672f96498abe52990b491f002c|10=067|
[2026-04-01 08:42:51] [DEBUG] [TO ADMIN] 8=FIX.4.4|9=101|35=0|34=45|49=0c6ba5672f96498abe52990b491f002c|52=20260401-01:42:51.314|56=SERVER|1=main|553=Group16|10=202|
[2026-04-01 08:42:52] [DEBUG] [FROM ADMIN] 8=FIX.4.4|9=82|35=0|34=45|49=SERVER|52=20260401-01:42:51.718|56=0c6ba5672f96498abe52990b491f002c|10=071|
[2026-04-01 08:43:21] [DEBUG] [TO ADMIN] 8=FIX.4.4|9=101|35=0|34=46|49=0c6ba5672f96498abe52990b491f002c|52=20260401-01:43:21.175|56=SERVER|1=main|553=Group16|10=206|
[2026-04-01 08:43:22] [DEBUG] [FROM ADMIN] 8=FIX.4.4|9=82|35=0|34=46|49=SERVER|52=20260401-01:43:21.718|56=0c6ba5672f96498abe52990b491f002c|10=070|
[2026-04-01 08:43:51] [DEBUG] [TO ADMIN] 8=FIX.4.4|9=101|35=0|34=47|49=0c6ba5672f96498abe52990b491f002c|52=20260401-01:43:51.072|56=SERVER|1=main|553=Group16|10=206|
[2026-04-01 08:43:52] [DEBUG] [FROM ADMIN] 8=FIX.4.4|9=82|35=0|34=47|49=SERVER|52=20260401-01:43:51.718|56=0c6ba5672f96498abe52990b491f002c|10=074|
[2026-04-01 08:44:21] [DEBUG] [TO ADMIN] 8=FIX.4.4|9=101|35=0|34=48|49=0c6ba5672f96498abe52990b491f002c|52=20260401-01:44:21.420|56=SERVER|1=main|553=Group16|10=202|
[2026-04-01 08:44:22] [DEBUG] [FROM ADMIN] 8=FIX.4.4|9=82|35=0|34=48|49=SERVER|52=20260401-01:44:21.718|56=0c6ba5672f96498abe52990b491f002c|10=073|
[2026-04-01 08:44:51] [DEBUG] [TO ADMIN] 8=FIX.4.4|9=101|35=0|34=49|49=0c6ba5672f96498abe52990b491f002c|52=20260401-01:44:51.600|56=SERVER|1=main|553=Group16|10=206|
[2026-04-01 08:44:52] [DEBUG] [FROM ADMIN] 8=FIX.4.4|9=82|35=0|34=49|49=SERVER|52=20260401-01:44:51.718|56=0c6ba5672f96498abe52990b491f002c|10=077|
[2026-04-01 08:45:01] [ERROR] Callback error for HNXDS:VN30F2604: deque index out of range
Traceback (most recent call last):
  File "/home/a/Papertrae/venv/lib/python3.12/site-packages/paperbroker/market_data/kafka_client.py", line 424, in _process_message
    callback(instrument, quote)
  File "/home/a/Papertrae/main.py", line 368, in on_quote
    trader.run_strategy()
  File "/home/a/Papertrae/main.py", line 173, in run_strategy
    price = self.closes[-1]
            ~~~~~~~~~~~^^^^
IndexError: deque index out of range
[2026-04-01 08:45:04] [ERROR] Callback error for HNXDS:VN30F2604: deque index out of range
Traceback (most recent call last):
  File "/home/a/Papertrae/venv/lib/python3.12/site-packages/paperbroker/market_data/kafka_client.py", line 424, in _process_message
    callback(instrument, quote)
  File "/home/a/Papertrae/main.py", line 368, in on_quote
    trader.run_strategy()
  File "/home/a/Papertrae/main.py", line 173, in run_strategy
    price = self.closes[-1]
            ~~~~~~~~~~~^^^^
IndexError: deque index out of range
[2026-04-01 08:45:12] [ERROR] Callback error for HNXDS:VN30F2604: deque index out of range
Traceback (most recent call last):
  File "/home/a/Papertrae/venv/lib/python3.12/site-packages/paperbroker/market_data/kafka_client.py", line 424, in _process_message
    callback(instrument, quote)
  File "/home/a/Papertrae/main.py", line 368, in on_quote
    trader.run_strategy()
  File "/home/a/Papertrae/main.py", line 173, in run_strategy
    price = self.closes[-1]
            ~~~~~~~~~~~^^^^
IndexError: deque index out of range
[2026-04-01 08:45:14] [ERROR] Callback error for HNXDS:VN30F2604: deque index out of range
Traceback (most recent call last):
  File "/home/a/Papertrae/venv/lib/python3.12/site-packages/paperbroker/market_data/kafka_client.py", line 424, in _process_message
    callback(instrument, quote)
  File "/home/a/Papertrae/main.py", line 368, in on_quote
    trader.run_strategy()
  File "/home/a/Papertrae/main.py", line 173, in run_strategy
    price = self.closes[-1]
            ~~~~~~~~~~~^^^^
IndexError: deque index out of range
[2026-04-01 08:45:21] [DEBUG] [TO ADMIN] 8=FIX.4.4|9=101|35=0|34=50|49=0c6ba5672f96498abe52990b491f002c|52=20260401-01:45:21.611|56=SERVER|1=main|553=Group16|10=198|
[2026-04-01 08:45:22] [DEBUG] [FROM ADMIN] 8=FIX.4.4|9=82|35=0|34=50|49=SERVER|52=20260401-01:45:21.718|56=0c6ba5672f96498abe52990b491f002c|10=067|
[2026-04-01 08:45:27] [ERROR] Callback error for HNXDS:VN30F2604: deque index out of range
Traceback (most recent call last):
  File "/home/a/Papertrae/venv/lib/python3.12/site-packages/paperbroker/market_data/kafka_client.py", line 424, in _process_message
    callback(instrument, quote)
  File "/home/a/Papertrae/main.py", line 368, in on_quote
    trader.run_strategy()
  File "/home/a/Papertrae/main.py", line 173, in run_strategy
    price = self.closes[-1]
            ~~~~~~~~~~~^^^^
IndexError: deque index out of range
[2026-04-01 08:45:28] [ERROR] Callback error for HNXDS:VN30F2604: deque index out of range
Traceback (most recent call last):
  File "/home/a/Papertrae/venv/lib/python3.12/site-packages/paperbroker/market_data/kafka_client.py", line 424, in _process_message
    callback(instrument, quote)
  File "/home/a/Papertrae/main.py", line 368, in on_quote
    trader.run_strategy()
  File "/home/a/Papertrae/main.py", line 173, in run_strategy
    price = self.closes[-1]
            ~~~~~~~~~~~^^^^
IndexError: deque index out of range
[2026-04-01 08:45:31] [ERROR] Callback error for HNXDS:VN30F2604: deque index out of range
Traceback (most recent call last):
  File "/home/a/Papertrae/venv/lib/python3.12/site-packages/paperbroker/market_data/kafka_client.py", line 424, in _process_message
    callback(instrument, quote)
  File "/home/a/Papertrae/main.py", line 368, in on_quote
    trader.run_strategy()
  File "/home/a/Papertrae/main.py", line 173, in run_strategy
    price = self.closes[-1]
            ~~~~~~~~~~~^^^^
IndexError: deque index out of range
[2026-04-01 08:45:33] [ERROR] Callback error for HNXDS:VN30F2604: deque index out of range
Traceback (most recent call last):
  File "/home/a/Papertrae/venv/lib/python3.12/site-packages/paperbroker/market_data/kafka_client.py", line 424, in _process_message
    callback(instrument, quote)
  File "/home/a/Papertrae/main.py", line 368, in on_quote
    trader.run_strategy()
  File "/home/a/Papertrae/main.py", line 173, in run_strategy
    price = self.closes[-1]
            ~~~~~~~~~~~^^^^
IndexError: deque index out of range
[2026-04-01 08:45:36] [ERROR] Callback error for HNXDS:VN30F2604: deque index out of range
Traceback (most recent call last):
  File "/home/a/Papertrae/venv/lib/python3.12/site-packages/paperbroker/market_data/kafka_client.py", line 424, in _process_message
    callback(instrument, quote)
  File "/home/a/Papertrae/main.py", line 368, in on_quote
    trader.run_strategy()
  File "/home/a/Papertrae/main.py", line 173, in run_strategy
    price = self.closes[-1]
            ~~~~~~~~~~~^^^^
IndexError: deque index out of range
[2026-04-01 08:45:37] [ERROR] Callback error for HNXDS:VN30F2604: deque index out of range
Traceback (most recent call last):
  File "/home/a/Papertrae/venv/lib/python3.12/site-packages/paperbroker/market_data/kafka_client.py", line 424, in _process_message
    callback(instrument, quote)
  File "/home/a/Papertrae/main.py", line 368, in on_quote
    trader.run_strategy()
  File "/home/a/Papertrae/main.py", line 173, in run_strategy
    price = self.closes[-1]
            ~~~~~~~~~~~^^^^
IndexError: deque index out of range
[2026-04-01 08:45:38] [ERROR] Callback error for HNXDS:VN30F2604: deque index out of range
Traceback (most recent call last):
  File "/home/a/Papertrae/venv/lib/python3.12/site-packages/paperbroker/market_data/kafka_client.py", line 424, in _process_message
    callback(instrument, quote)
  File "/home/a/Papertrae/main.py", line 368, in on_quote
    trader.run_strategy()
  File "/home/a/Papertrae/main.py", line 173, in run_strategy
    price = self.closes[-1]
            ~~~~~~~~~~~^^^^
IndexError: deque index out of range
[2026-04-01 08:45:39] [ERROR] Callback error for HNXDS:VN30F2604: deque index out of range
Traceback (most recent call last):
  File "/home/a/Papertrae/venv/lib/python3.12/site-packages/paperbroker/market_data/kafka_client.py", line 424, in _process_message
    callback(instrument, quote)
  File "/home/a/Papertrae/main.py", line 368, in on_quote
    trader.run_strategy()
  File "/home/a/Papertrae/main.py", line 173, in run_strategy
    price = self.closes[-1]
            ~~~~~~~~~~~^^^^
IndexError: deque index out of range
[2026-04-01 08:45:40] [ERROR] Callback error for HNXDS:VN30F2604: deque index out of range
Traceback (most recent call last):
  File "/home/a/Papertrae/venv/lib/python3.12/site-packages/paperbroker/market_data/kafka_client.py", line 424, in _process_message
    callback(instrument, quote)
  File "/home/a/Papertrae/main.py", line 368, in on_quote
    trader.run_strategy()
  File "/home/a/Papertrae/main.py", line 173, in run_strategy
    price = self.closes[-1]
            ~~~~~~~~~~~^^^^
IndexError: deque index out of range
[2026-04-01 08:45:41] [ERROR] Callback error for HNXDS:VN30F2604: deque index out of range
Traceback (most recent call last):
  File "/home/a/Papertrae/venv/lib/python3.12/site-packages/paperbroker/market_data/kafka_client.py", line 424, in _process_message
    callback(instrument, quote)
  File "/home/a/Papertrae/main.py", line 368, in on_quote
    trader.run_strategy()
  File "/home/a/Papertrae/main.py", line 173, in run_strategy
    price = self.closes[-1]
            ~~~~~~~~~~~^^^^
IndexError: deque index out of range
[2026-04-01 08:45:42] [ERROR] Callback error for HNXDS:VN30F2604: deque index out of range
Traceback (most recent call last):
  File "/home/a/Papertrae/venv/lib/python3.12/site-packages/paperbroker/market_data/kafka_client.py", line 424, in _process_message
    callback(instrument, quote)
  File "/home/a/Papertrae/main.py", line 368, in on_quote
    trader.run_strategy()
  File "/home/a/Papertrae/main.py", line 173, in run_strategy
    price = self.closes[-1]
            ~~~~~~~~~~~^^^^
IndexError: deque index out of range
[2026-04-01 08:45:44] [ERROR] Callback error for HNXDS:VN30F2604: deque index out of range
Traceback (most recent call last):
  File "/home/a/Papertrae/venv/lib/python3.12/site-packages/paperbroker/market_data/kafka_client.py", line 424, in _process_message
    callback(instrument, quote)
  File "/home/a/Papertrae/main.py", line 368, in on_quote
    trader.run_strategy()
  File "/home/a/Papertrae/main.py", line 173, in run_strategy
    price = self.closes[-1]
            ~~~~~~~~~~~^^^^
IndexError: deque index out of range
[2026-04-01 08:45:46] [ERROR] Callback error for HNXDS:VN30F2604: deque index out of range
Traceback (most recent call last):
  File "/home/a/Papertrae/venv/lib/python3.12/site-packages/paperbroker/market_data/kafka_client.py", line 424, in _process_message
    callback(instrument, quote)
  File "/home/a/Papertrae/main.py", line 368, in on_quote
    trader.run_strategy()
  File "/home/a/Papertrae/main.py", line 173, in run_strategy
    price = self.closes[-1]
            ~~~~~~~~~~~^^^^
IndexError: deque index out of range
[2026-04-01 08:45:48] [ERROR] Callback error for HNXDS:VN30F2604: deque index out of range
Traceback (most recent call last):
  File "/home/a/Papertrae/venv/lib/python3.12/site-packages/paperbroker/market_data/kafka_client.py", line 424, in _process_message
    callback(instrument, quote)
  File "/home/a/Papertrae/main.py", line 368, in on_quote
    trader.run_strategy()
  File "/home/a/Papertrae/main.py", line 173, in run_strategy
    price = self.closes[-1]
            ~~~~~~~~~~~^^^^
IndexError: deque index out of range
[2026-04-01 08:45:48] [ERROR] Callback error for HNXDS:VN30F2604: deque index out of range
Traceback (most recent call last):
  File "/home/a/Papertrae/venv/lib/python3.12/site-packages/paperbroker/market_data/kafka_client.py", line 424, in _process_message
    callback(instrument, quote)
  File "/home/a/Papertrae/main.py", line 368, in on_quote
    trader.run_strategy()
  File "/home/a/Papertrae/main.py", line 173, in run_strategy
    price = self.closes[-1]
            ~~~~~~~~~~~^^^^
IndexError: deque index out of range
[2026-04-01 08:45:50] [ERROR] Callback error for HNXDS:VN30F2604: deque index out of range
Traceback (most recent call last):
  File "/home/a/Papertrae/venv/lib/python3.12/site-packages/paperbroker/market_data/kafka_client.py", line 424, in _process_message
    callback(instrument, quote)
  File "/home/a/Papertrae/main.py", line 368, in on_quote
    trader.run_strategy()
  File "/home/a/Papertrae/main.py", line 173, in run_strategy
    price = self.closes[-1]
            ~~~~~~~~~~~^^^^
IndexError: deque index out of range
[2026-04-01 08:45:51] [DEBUG] [TO ADMIN] 8=FIX.4.4|9=101|35=0|34=51|49=0c6ba5672f96498abe52990b491f002c|52=20260401-01:45:51.157|56=SERVER|1=main|553=Group16|10=207|
[2026-04-01 08:45:52] [DEBUG] [FROM ADMIN] 8=FIX.4.4|9=82|35=0|34=51|49=SERVER|52=20260401-01:45:51.718|56=0c6ba5672f96498abe52990b491f002c|10=071|
[2026-04-01 08:45:53] [ERROR] Callback error for HNXDS:VN30F2604: deque index out of range
Traceback (most recent call last):
  File "/home/a/Papertrae/venv/lib/python3.12/site-packages/paperbroker/market_data/kafka_client.py", line 424, in _process_message
    callback(instrument, quote)
  File "/home/a/Papertrae/main.py", line 368, in on_quote
    trader.run_strategy()
  File "/home/a/Papertrae/main.py", line 173, in run_strategy
    price = self.closes[-1]
            ~~~~~~~~~~~^^^^
IndexError: deque index out of range
[2026-04-01 08:45:54] [ERROR] Callback error for HNXDS:VN30F2604: deque index out of range
Traceback (most recent call last):
  File "/home/a/Papertrae/venv/lib/python3.12/site-packages/paperbroker/market_data/kafka_client.py", line 424, in _process_message
    callback(instrument, quote)
  File "/home/a/Papertrae/main.py", line 368, in on_quote
    trader.run_strategy()
  File "/home/a/Papertrae/main.py", line 173, in run_strategy
    price = self.closes[-1]
            ~~~~~~~~~~~^^^^
IndexError: deque index out of range
[2026-04-01 08:45:55] [ERROR] Callback error for HNXDS:VN30F2604: deque index out of range
Traceback (most recent call last):
  File "/home/a/Papertrae/venv/lib/python3.12/site-packages/paperbroker/market_data/kafka_client.py", line 424, in _process_message
    callback(instrument, quote)
  File "/home/a/Papertrae/main.py", line 368, in on_quote
    trader.run_strategy()
  File "/home/a/Papertrae/main.py", line 173, in run_strategy
    price = self.closes[-1]
            ~~~~~~~~~~~^^^^
IndexError: deque index out of range
[2026-04-01 08:45:57] [ERROR] Callback error for HNXDS:VN30F2604: deque index out of range
Traceback (most recent call last):
  File "/home/a/Papertrae/venv/lib/python3.12/site-packages/paperbroker/market_data/kafka_client.py", line 424, in _process_message
    callback(instrument, quote)
  File "/home/a/Papertrae/main.py", line 368, in on_quote
    trader.run_strategy()
  File "/home/a/Papertrae/main.py", line 173, in run_strategy
    price = self.closes[-1]
            ~~~~~~~~~~~^^^^
IndexError: deque index out of range
[2026-04-01 08:45:58] [ERROR] Callback error for HNXDS:VN30F2604: deque index out of range
Traceback (most recent call last):
  File "/home/a/Papertrae/venv/lib/python3.12/site-packages/paperbroker/market_data/kafka_client.py", line 424, in _process_message
    callback(instrument, quote)
  File "/home/a/Papertrae/main.py", line 368, in on_quote
    trader.run_strategy()
  File "/home/a/Papertrae/main.py", line 173, in run_strategy
    price = self.closes[-1]
            ~~~~~~~~~~~^^^^
IndexError: deque index out of range
[2026-04-01 08:45:59] [ERROR] Callback error for HNXDS:VN30F2604: deque index out of range
Traceback (most recent call last):
  File "/home/a/Papertrae/venv/lib/python3.12/site-packages/paperbroker/market_data/kafka_client.py", line 424, in _process_message
    callback(instrument, quote)
  File "/home/a/Papertrae/main.py", line 368, in on_quote
    trader.run_strategy()
  File "/home/a/Papertrae/main.py", line 173, in run_strategy
    price = self.closes[-1]
            ~~~~~~~~~~~^^^^
IndexError: deque index out of range
[2026-04-01 08:46:21] [DEBUG] [TO ADMIN] 8=FIX.4.4|9=101|35=0|34=52|49=0c6ba5672f96498abe52990b491f002c|52=20260401-01:46:21.217|56=SERVER|1=main|553=Group16|10=203|
[2026-04-01 08:46:22] [DEBUG] [FROM ADMIN] 8=FIX.4.4|9=82|35=0|34=52|49=SERVER|52=20260401-01:46:21.718|56=0c6ba5672f96498abe52990b491f002c|10=070|
[2026-04-01 08:46:51] [DEBUG] [TO ADMIN] 8=FIX.4.4|9=101|35=0|34=53|49=0c6ba5672f96498abe52990b491f002c|52=20260401-01:46:51.046|56=SERVER|1=main|553=Group16|10=207|
[2026-04-01 08:46:52] [DEBUG] [FROM ADMIN] 8=FIX.4.4|9=82|35=0|34=53|49=SERVER|52=20260401-01:46:51.718|56=0c6ba5672f96498abe52990b491f002c|10=074|
[2026-04-01 08:47:21] [DEBUG] [TO ADMIN] 8=FIX.4.4|9=101|35=0|34=54|49=0c6ba5672f96498abe52990b491f002c|52=20260401-01:47:21.284|56=SERVER|1=main|553=Group16|10=210|
[2026-04-01 08:47:22] [DEBUG] [FROM ADMIN] 8=FIX.4.4|9=82|35=0|34=54|49=SERVER|52=20260401-01:47:21.718|56=0c6ba5672f96498abe52990b491f002c|10=073|
[2026-04-01 08:47:51] [DEBUG] [TO ADMIN] 8=FIX.4.4|9=101|35=0|34=55|49=0c6ba5672f96498abe52990b491f002c|52=20260401-01:47:51.704|56=SERVER|1=main|553=Group16|10=211|
[2026-04-01 08:47:52] [DEBUG] [FROM ADMIN] 8=FIX.4.4|9=82|35=0|34=55|49=SERVER|52=20260401-01:47:51.718|56=0c6ba5672f96498abe52990b491f002c|10=077|
[2026-04-01 08:48:00] [ERROR] Callback error for HNXDS:VN30F2604: operands could not be broadcast together with shapes (3,) (2,) 
Traceback (most recent call last):
  File "/home/a/Papertrae/venv/lib/python3.12/site-packages/paperbroker/market_data/kafka_client.py", line 424, in _process_message
    callback(instrument, quote)
  File "/home/a/Papertrae/main.py", line 368, in on_quote
    trader.run_strategy()
  File "/home/a/Papertrae/main.py", line 174, in run_strategy
    upper, lower, atr, bb_pct, vol_spike = self.compute_indicators()
                                           ^^^^^^^^^^^^^^^^^^^^^^^^^
  File "/home/a/Papertrae/main.py", line 150, in compute_indicators
    np.abs(highs[-20:] - prices[-21:-1])
           ~~~~~~~~~~~~^~~~~~~~~~~~~~~~
ValueError: operands could not be broadcast together with shapes (3,) (2,) 
[2026-04-01 08:48:03] [ERROR] Callback error for HNXDS:VN30F2604: operands could not be broadcast together with shapes (3,) (2,) 
Traceback (most recent call last):
  File "/home/a/Papertrae/venv/lib/python3.12/site-packages/paperbroker/market_data/kafka_client.py", line 424, in _process_message
    callback(instrument, quote)
  File "/home/a/Papertrae/main.py", line 368, in on_quote
    trader.run_strategy()
  File "/home/a/Papertrae/main.py", line 174, in run_strategy
    upper, lower, atr, bb_pct, vol_spike = self.compute_indicators()
                                           ^^^^^^^^^^^^^^^^^^^^^^^^^
  File "/home/a/Papertrae/main.py", line 150, in compute_indicators
    np.abs(highs[-20:] - prices[-21:-1])
           ~~~~~~~~~~~~^~~~~~~~~~~~~~~~
ValueError: operands could not be broadcast together with shapes (3,) (2,) 
[2026-04-01 08:48:04] [ERROR] Callback error for HNXDS:VN30F2604: operands could not be broadcast together with shapes (3,) (2,) 
Traceback (most recent call last):
  File "/home/a/Papertrae/venv/lib/python3.12/site-packages/paperbroker/market_data/kafka_client.py", line 424, in _process_message
    callback(instrument, quote)
  File "/home/a/Papertrae/main.py", line 368, in on_quote
    trader.run_strategy()
  File "/home/a/Papertrae/main.py", line 174, in run_strategy
    upper, lower, atr, bb_pct, vol_spike = self.compute_indicators()
                                           ^^^^^^^^^^^^^^^^^^^^^^^^^
  File "/home/a/Papertrae/main.py", line 150, in compute_indicators
    np.abs(highs[-20:] - prices[-21:-1])
           ~~~~~~~~~~~~^~~~~~~~~~~~~~~~
ValueError: operands could not be broadcast together with shapes (3,) (2,) 
[2026-04-01 08:48:05] [ERROR] Callback error for HNXDS:VN30F2604: operands could not be broadcast together with shapes (3,) (2,) 
Traceback (most recent call last):
  File "/home/a/Papertrae/venv/lib/python3.12/site-packages/paperbroker/market_data/kafka_client.py", line 424, in _process_message
    callback(instrument, quote)
  File "/home/a/Papertrae/main.py", line 368, in on_quote
    trader.run_strategy()
  File "/home/a/Papertrae/main.py", line 174, in run_strategy
    upper, lower, atr, bb_pct, vol_spike = self.compute_indicators()
                                           ^^^^^^^^^^^^^^^^^^^^^^^^^
  File "/home/a/Papertrae/main.py", line 150, in compute_indicators
    np.abs(highs[-20:] - prices[-21:-1])
           ~~~~~~~~~~~~^~~~~~~~~~~~~~~~
ValueError: operands could not be broadcast together with shapes (3,) (2,) 
[2026-04-01 08:48:06] [ERROR] Callback error for HNXDS:VN30F2604: operands could not be broadcast together with shapes (3,) (2,) 
Traceback (most recent call last):
  File "/home/a/Papertrae/venv/lib/python3.12/site-packages/paperbroker/market_data/kafka_client.py", line 424, in _process_message
    callback(instrument, quote)
  File "/home/a/Papertrae/main.py", line 368, in on_quote
    trader.run_strategy()
  File "/home/a/Papertrae/main.py", line 174, in run_strategy
    upper, lower, atr, bb_pct, vol_spike = self.compute_indicators()
                                           ^^^^^^^^^^^^^^^^^^^^^^^^^
  File "/home/a/Papertrae/main.py", line 150, in compute_indicators
    np.abs(highs[-20:] - prices[-21:-1])
           ~~~~~~~~~~~~^~~~~~~~~~~~~~~~
ValueError: operands could not be broadcast together with shapes (3,) (2,) 
[2026-04-01 08:48:07] [ERROR] Callback error for HNXDS:VN30F2604: operands could not be broadcast together with shapes (3,) (2,) 
Traceback (most recent call last):
  File "/home/a/Papertrae/venv/lib/python3.12/site-packages/paperbroker/market_data/kafka_client.py", line 424, in _process_message
    callback(instrument, quote)
  File "/home/a/Papertrae/main.py", line 368, in on_quote
    trader.run_strategy()
  File "/home/a/Papertrae/main.py", line 174, in run_strategy
    upper, lower, atr, bb_pct, vol_spike = self.compute_indicators()
                                           ^^^^^^^^^^^^^^^^^^^^^^^^^
  File "/home/a/Papertrae/main.py", line 150, in compute_indicators
    np.abs(highs[-20:] - prices[-21:-1])
           ~~~~~~~~~~~~^~~~~~~~~~~~~~~~
ValueError: operands could not be broadcast together with shapes (3,) (2,) 
[2026-04-01 08:48:08] [ERROR] Callback error for HNXDS:VN30F2604: operands could not be broadcast together with shapes (3,) (2,) 
Traceback (most recent call last):
  File "/home/a/Papertrae/venv/lib/python3.12/site-packages/paperbroker/market_data/kafka_client.py", line 424, in _process_message
    callback(instrument, quote)
  File "/home/a/Papertrae/main.py", line 368, in on_quote
    trader.run_strategy()
  File "/home/a/Papertrae/main.py", line 174, in run_strategy
    upper, lower, atr, bb_pct, vol_spike = self.compute_indicators()
                                           ^^^^^^^^^^^^^^^^^^^^^^^^^
  File "/home/a/Papertrae/main.py", line 150, in compute_indicators
    np.abs(highs[-20:] - prices[-21:-1])
           ~~~~~~~~~~~~^~~~~~~~~~~~~~~~
ValueError: operands could not be broadcast together with shapes (3,) (2,) 
[2026-04-01 08:48:09] [ERROR] Callback error for HNXDS:VN30F2604: operands could not be broadcast together with shapes (3,) (2,) 
Traceback (most recent call last):
  File "/home/a/Papertrae/venv/lib/python3.12/site-packages/paperbroker/market_data/kafka_client.py", line 424, in _process_message
    callback(instrument, quote)
  File "/home/a/Papertrae/main.py", line 368, in on_quote
    trader.run_strategy()
  File "/home/a/Papertrae/main.py", line 174, in run_strategy
    upper, lower, atr, bb_pct, vol_spike = self.compute_indicators()
                                           ^^^^^^^^^^^^^^^^^^^^^^^^^
  File "/home/a/Papertrae/main.py", line 150, in compute_indicators
    np.abs(highs[-20:] - prices[-21:-1])
           ~~~~~~~~~~~~^~~~~~~~~~~~~~~~
ValueError: operands could not be broadcast together with shapes (3,) (2,) 
[2026-04-01 08:48:10] [ERROR] Callback error for HNXDS:VN30F2604: operands could not be broadcast together with shapes (3,) (2,) 
Traceback (most recent call last):
  File "/home/a/Papertrae/venv/lib/python3.12/site-packages/paperbroker/market_data/kafka_client.py", line 424, in _process_message
    callback(instrument, quote)
  File "/home/a/Papertrae/main.py", line 368, in on_quote
    trader.run_strategy()
  File "/home/a/Papertrae/main.py", line 174, in run_strategy
    upper, lower, atr, bb_pct, vol_spike = self.compute_indicators()
                                           ^^^^^^^^^^^^^^^^^^^^^^^^^
  File "/home/a/Papertrae/main.py", line 150, in compute_indicators
    np.abs(highs[-20:] - prices[-21:-1])
           ~~~~~~~~~~~~^~~~~~~~~~~~~~~~
ValueError: operands could not be broadcast together with shapes (3,) (2,) 
[2026-04-01 08:48:11] [ERROR] Callback error for HNXDS:VN30F2604: operands could not be broadcast together with shapes (3,) (2,) 
Traceback (most recent call last):
  File "/home/a/Papertrae/venv/lib/python3.12/site-packages/paperbroker/market_data/kafka_client.py", line 424, in _process_message
    callback(instrument, quote)
  File "/home/a/Papertrae/main.py", line 368, in on_quote
    trader.run_strategy()
  File "/home/a/Papertrae/main.py", line 174, in run_strategy
    upper, lower, atr, bb_pct, vol_spike = self.compute_indicators()
                                           ^^^^^^^^^^^^^^^^^^^^^^^^^
  File "/home/a/Papertrae/main.py", line 150, in compute_indicators
    np.abs(highs[-20:] - prices[-21:-1])
           ~~~~~~~~~~~~^~~~~~~~~~~~~~~~
ValueError: operands could not be broadcast together with shapes (3,) (2,) 
[2026-04-01 08:48:12] [ERROR] Callback error for HNXDS:VN30F2604: operands could not be broadcast together with shapes (3,) (2,) 
Traceback (most recent call last):
  File "/home/a/Papertrae/venv/lib/python3.12/site-packages/paperbroker/market_data/kafka_client.py", line 424, in _process_message
    callback(instrument, quote)
  File "/home/a/Papertrae/main.py", line 368, in on_quote
    trader.run_strategy()
  File "/home/a/Papertrae/main.py", line 174, in run_strategy
    upper, lower, atr, bb_pct, vol_spike = self.compute_indicators()
                                           ^^^^^^^^^^^^^^^^^^^^^^^^^
  File "/home/a/Papertrae/main.py", line 150, in compute_indicators
    np.abs(highs[-20:] - prices[-21:-1])
           ~~~~~~~~~~~~^~~~~~~~~~~~~~~~
ValueError: operands could not be broadcast together with shapes (3,) (2,) 
[2026-04-01 08:48:13] [ERROR] Callback error for HNXDS:VN30F2604: operands could not be broadcast together with shapes (3,) (2,) 
Traceback (most recent call last):
  File "/home/a/Papertrae/venv/lib/python3.12/site-packages/paperbroker/market_data/kafka_client.py", line 424, in _process_message
    callback(instrument, quote)
  File "/home/a/Papertrae/main.py", line 368, in on_quote
    trader.run_strategy()
  File "/home/a/Papertrae/main.py", line 174, in run_strategy
    upper, lower, atr, bb_pct, vol_spike = self.compute_indicators()
                                           ^^^^^^^^^^^^^^^^^^^^^^^^^
  File "/home/a/Papertrae/main.py", line 150, in compute_indicators
    np.abs(highs[-20:] - prices[-21:-1])
           ~~~~~~~~~~~~^~~~~~~~~~~~~~~~
ValueError: operands could not be broadcast together with shapes (3,) (2,) 
[2026-04-01 08:48:14] [ERROR] Callback error for HNXDS:VN30F2604: operands could not be broadcast together with shapes (3,) (2,) 
Traceback (most recent call last):
  File "/home/a/Papertrae/venv/lib/python3.12/site-packages/paperbroker/market_data/kafka_client.py", line 424, in _process_message
    callback(instrument, quote)
  File "/home/a/Papertrae/main.py", line 368, in on_quote
    trader.run_strategy()
  File "/home/a/Papertrae/main.py", line 174, in run_strategy
    upper, lower, atr, bb_pct, vol_spike = self.compute_indicators()
                                           ^^^^^^^^^^^^^^^^^^^^^^^^^
  File "/home/a/Papertrae/main.py", line 150, in compute_indicators
    np.abs(highs[-20:] - prices[-21:-1])
           ~~~~~~~~~~~~^~~~~~~~~~~~~~~~
ValueError: operands could not be broadcast together with shapes (3,) (2,) 
[2026-04-01 08:48:15] [ERROR] Callback error for HNXDS:VN30F2604: operands could not be broadcast together with shapes (3,) (2,) 
Traceback (most recent call last):
  File "/home/a/Papertrae/venv/lib/python3.12/site-packages/paperbroker/market_data/kafka_client.py", line 424, in _process_message
    callback(instrument, quote)
  File "/home/a/Papertrae/main.py", line 368, in on_quote
    trader.run_strategy()
  File "/home/a/Papertrae/main.py", line 174, in run_strategy
    upper, lower, atr, bb_pct, vol_spike = self.compute_indicators()
                                           ^^^^^^^^^^^^^^^^^^^^^^^^^
  File "/home/a/Papertrae/main.py", line 150, in compute_indicators
    np.abs(highs[-20:] - prices[-21:-1])
           ~~~~~~~~~~~~^~~~~~~~~~~~~~~~
ValueError: operands could not be broadcast together with shapes (3,) (2,) 
[2026-04-01 08:48:16] [ERROR] Callback error for HNXDS:VN30F2604: operands could not be broadcast together with shapes (3,) (2,) 
Traceback (most recent call last):
  File "/home/a/Papertrae/venv/lib/python3.12/site-packages/paperbroker/market_data/kafka_client.py", line 424, in _process_message
    callback(instrument, quote)
  File "/home/a/Papertrae/main.py", line 368, in on_quote
    trader.run_strategy()
  File "/home/a/Papertrae/main.py", line 174, in run_strategy
    upper, lower, atr, bb_pct, vol_spike = self.compute_indicators()
                                           ^^^^^^^^^^^^^^^^^^^^^^^^^
  File "/home/a/Papertrae/main.py", line 150, in compute_indicators
    np.abs(highs[-20:] - prices[-21:-1])
           ~~~~~~~~~~~~^~~~~~~~~~~~~~~~
ValueError: operands could not be broadcast together with shapes (3,) (2,) 
[2026-04-01 08:48:17] [ERROR] Callback error for HNXDS:VN30F2604: operands could not be broadcast together with shapes (3,) (2,) 
Traceback (most recent call last):
  File "/home/a/Papertrae/venv/lib/python3.12/site-packages/paperbroker/market_data/kafka_client.py", line 424, in _process_message
    callback(instrument, quote)
  File "/home/a/Papertrae/main.py", line 368, in on_quote
    trader.run_strategy()
  File "/home/a/Papertrae/main.py", line 174, in run_strategy
    upper, lower, atr, bb_pct, vol_spike = self.compute_indicators()
                                           ^^^^^^^^^^^^^^^^^^^^^^^^^
  File "/home/a/Papertrae/main.py", line 150, in compute_indicators
    np.abs(highs[-20:] - prices[-21:-1])
           ~~~~~~~~~~~~^~~~~~~~~~~~~~~~
ValueError: operands could not be broadcast together with shapes (3,) (2,) 
[2026-04-01 08:48:18] [ERROR] Callback error for HNXDS:VN30F2604: operands could not be broadcast together with shapes (3,) (2,) 
Traceback (most recent call last):
  File "/home/a/Papertrae/venv/lib/python3.12/site-packages/paperbroker/market_data/kafka_client.py", line 424, in _process_message
    callback(instrument, quote)
  File "/home/a/Papertrae/main.py", line 368, in on_quote
    trader.run_strategy()
  File "/home/a/Papertrae/main.py", line 174, in run_strategy
    upper, lower, atr, bb_pct, vol_spike = self.compute_indicators()
                                           ^^^^^^^^^^^^^^^^^^^^^^^^^
  File "/home/a/Papertrae/main.py", line 150, in compute_indicators
    np.abs(highs[-20:] - prices[-21:-1])
           ~~~~~~~~~~~~^~~~~~~~~~~~~~~~
ValueError: operands could not be broadcast together with shapes (3,) (2,) 
[2026-04-01 08:48:18] [ERROR] Callback error for HNXDS:VN30F2604: operands could not be broadcast together with shapes (3,) (2,) 
Traceback (most recent call last):
  File "/home/a/Papertrae/venv/lib/python3.12/site-packages/paperbroker/market_data/kafka_client.py", line 424, in _process_message
    callback(instrument, quote)
  File "/home/a/Papertrae/main.py", line 368, in on_quote
    trader.run_strategy()
  File "/home/a/Papertrae/main.py", line 174, in run_strategy
    upper, lower, atr, bb_pct, vol_spike = self.compute_indicators()
                                           ^^^^^^^^^^^^^^^^^^^^^^^^^
  File "/home/a/Papertrae/main.py", line 150, in compute_indicators
    np.abs(highs[-20:] - prices[-21:-1])
           ~~~~~~~~~~~~^~~~~~~~~~~~~~~~
ValueError: operands could not be broadcast together with shapes (3,) (2,) 
[2026-04-01 08:48:19] [ERROR] Callback error for HNXDS:VN30F2604: operands could not be broadcast together with shapes (3,) (2,) 
Traceback (most recent call last):
  File "/home/a/Papertrae/venv/lib/python3.12/site-packages/paperbroker/market_data/kafka_client.py", line 424, in _process_message
    callback(instrument, quote)
  File "/home/a/Papertrae/main.py", line 368, in on_quote
    trader.run_strategy()
  File "/home/a/Papertrae/main.py", line 174, in run_strategy
    upper, lower, atr, bb_pct, vol_spike = self.compute_indicators()
                                           ^^^^^^^^^^^^^^^^^^^^^^^^^
  File "/home/a/Papertrae/main.py", line 150, in compute_indicators
    np.abs(highs[-20:] - prices[-21:-1])
           ~~~~~~~~~~~~^~~~~~~~~~~~~~~~
ValueError: operands could not be broadcast together with shapes (3,) (2,) 
[2026-04-01 08:48:19] [ERROR] Callback error for HNXDS:VN30F2604: operands could not be broadcast together with shapes (3,) (2,) 
Traceback (most recent call last):
  File "/home/a/Papertrae/venv/lib/python3.12/site-packages/paperbroker/market_data/kafka_client.py", line 424, in _process_message
    callback(instrument, quote)
  File "/home/a/Papertrae/main.py", line 368, in on_quote
    trader.run_strategy()
  File "/home/a/Papertrae/main.py", line 174, in run_strategy
    upper, lower, atr, bb_pct, vol_spike = self.compute_indicators()
                                           ^^^^^^^^^^^^^^^^^^^^^^^^^
  File "/home/a/Papertrae/main.py", line 150, in compute_indicators
    np.abs(highs[-20:] - prices[-21:-1])
           ~~~~~~~~~~~~^~~~~~~~~~~~~~~~
ValueError: operands could not be broadcast together with shapes (3,) (2,) 
[2026-04-01 08:48:21] [DEBUG] [TO ADMIN] 8=FIX.4.4|9=101|35=0|34=56|49=0c6ba5672f96498abe52990b491f002c|52=20260401-01:48:21.003|56=SERVER|1=main|553=Group16|10=202|
[2026-04-01 08:48:21] [ERROR] Callback error for HNXDS:VN30F2604: operands could not be broadcast together with shapes (3,) (2,) 
Traceback (most recent call last):
  File "/home/a/Papertrae/venv/lib/python3.12/site-packages/paperbroker/market_data/kafka_client.py", line 424, in _process_message
    callback(instrument, quote)
  File "/home/a/Papertrae/main.py", line 368, in on_quote
    trader.run_strategy()
  File "/home/a/Papertrae/main.py", line 174, in run_strategy
    upper, lower, atr, bb_pct, vol_spike = self.compute_indicators()
                                           ^^^^^^^^^^^^^^^^^^^^^^^^^
  File "/home/a/Papertrae/main.py", line 150, in compute_indicators
    np.abs(highs[-20:] - prices[-21:-1])
           ~~~~~~~~~~~~^~~~~~~~~~~~~~~~
ValueError: operands could not be broadcast together with shapes (3,) (2,) 
[2026-04-01 08:48:22] [DEBUG] [FROM ADMIN] 8=FIX.4.4|9=82|35=0|34=56|49=SERVER|52=20260401-01:48:21.718|56=0c6ba5672f96498abe52990b491f002c|10=076|
[2026-04-01 08:48:23] [ERROR] Callback error for HNXDS:VN30F2604: operands could not be broadcast together with shapes (3,) (2,) 
Traceback (most recent call last):
  File "/home/a/Papertrae/venv/lib/python3.12/site-packages/paperbroker/market_data/kafka_client.py", line 424, in _process_message
    callback(instrument, quote)
  File "/home/a/Papertrae/main.py", line 368, in on_quote
    trader.run_strategy()
  File "/home/a/Papertrae/main.py", line 174, in run_strategy
    upper, lower, atr, bb_pct, vol_spike = self.compute_indicators()
                                           ^^^^^^^^^^^^^^^^^^^^^^^^^
  File "/home/a/Papertrae/main.py", line 150, in compute_indicators
    np.abs(highs[-20:] - prices[-21:-1])
           ~~~~~~~~~~~~^~~~~~~~~~~~~~~~
ValueError: operands could not be broadcast together with shapes (3,) (2,) 
[2026-04-01 08:48:23] [ERROR] Callback error for HNXDS:VN30F2604: operands could not be broadcast together with shapes (3,) (2,) 
Traceback (most recent call last):
  File "/home/a/Papertrae/venv/lib/python3.12/site-packages/paperbroker/market_data/kafka_client.py", line 424, in _process_message
    callback(instrument, quote)
  File "/home/a/Papertrae/main.py", line 368, in on_quote
    trader.run_strategy()
  File "/home/a/Papertrae/main.py", line 174, in run_strategy
    upper, lower, atr, bb_pct, vol_spike = self.compute_indicators()
                                           ^^^^^^^^^^^^^^^^^^^^^^^^^
  File "/home/a/Papertrae/main.py", line 150, in compute_indicators
    np.abs(highs[-20:] - prices[-21:-1])
           ~~~~~~~~~~~~^~~~~~~~~~~~~~~~
ValueError: operands could not be broadcast together with shapes (3,) (2,) 
[2026-04-01 08:48:23] [ERROR] Callback error for HNXDS:VN30F2604: operands could not be broadcast together with shapes (3,) (2,) 
Traceback (most recent call last):
  File "/home/a/Papertrae/venv/lib/python3.12/site-packages/paperbroker/market_data/kafka_client.py", line 424, in _process_message
    callback(instrument, quote)
  File "/home/a/Papertrae/main.py", line 368, in on_quote
    trader.run_strategy()
  File "/home/a/Papertrae/main.py", line 174, in run_strategy
    upper, lower, atr, bb_pct, vol_spike = self.compute_indicators()
                                           ^^^^^^^^^^^^^^^^^^^^^^^^^
  File "/home/a/Papertrae/main.py", line 150, in compute_indicators
    np.abs(highs[-20:] - prices[-21:-1])
           ~~~~~~~~~~~~^~~~~~~~~~~~~~~~
ValueError: operands could not be broadcast together with shapes (3,) (2,) 
[2026-04-01 08:48:24] [ERROR] Callback error for HNXDS:VN30F2604: operands could not be broadcast together with shapes (3,) (2,) 
Traceback (most recent call last):
  File "/home/a/Papertrae/venv/lib/python3.12/site-packages/paperbroker/market_data/kafka_client.py", line 424, in _process_message
    callback(instrument, quote)
  File "/home/a/Papertrae/main.py", line 368, in on_quote
    trader.run_strategy()
  File "/home/a/Papertrae/main.py", line 174, in run_strategy
    upper, lower, atr, bb_pct, vol_spike = self.compute_indicators()
                                           ^^^^^^^^^^^^^^^^^^^^^^^^^
  File "/home/a/Papertrae/main.py", line 150, in compute_indicators
    np.abs(highs[-20:] - prices[-21:-1])
           ~~~~~~~~~~~~^~~~~~~~~~~~~~~~
ValueError: operands could not be broadcast together with shapes (3,) (2,) 
[2026-04-01 08:48:26] [ERROR] Callback error for HNXDS:VN30F2604: operands could not be broadcast together with shapes (3,) (2,) 
Traceback (most recent call last):
  File "/home/a/Papertrae/venv/lib/python3.12/site-packages/paperbroker/market_data/kafka_client.py", line 424, in _process_message
    callback(instrument, quote)
  File "/home/a/Papertrae/main.py", line 368, in on_quote
    trader.run_strategy()
  File "/home/a/Papertrae/main.py", line 174, in run_strategy
    upper, lower, atr, bb_pct, vol_spike = self.compute_indicators()
                                           ^^^^^^^^^^^^^^^^^^^^^^^^^
  File "/home/a/Papertrae/main.py", line 150, in compute_indicators
    np.abs(highs[-20:] - prices[-21:-1])
           ~~~~~~~~~~~~^~~~~~~~~~~~~~~~
ValueError: operands could not be broadcast together with shapes (3,) (2,) 
[2026-04-01 08:48:28] [ERROR] Callback error for HNXDS:VN30F2604: operands could not be broadcast together with shapes (3,) (2,) 
Traceback (most recent call last):
  File "/home/a/Papertrae/venv/lib/python3.12/site-packages/paperbroker/market_data/kafka_client.py", line 424, in _process_message
    callback(instrument, quote)
  File "/home/a/Papertrae/main.py", line 368, in on_quote
    trader.run_strategy()
  File "/home/a/Papertrae/main.py", line 174, in run_strategy
    upper, lower, atr, bb_pct, vol_spike = self.compute_indicators()
                                           ^^^^^^^^^^^^^^^^^^^^^^^^^
  File "/home/a/Papertrae/main.py", line 150, in compute_indicators
    np.abs(highs[-20:] - prices[-21:-1])
           ~~~~~~~~~~~~^~~~~~~~~~~~~~~~
ValueError: operands could not be broadcast together with shapes (3,) (2,) 
[2026-04-01 08:48:29] [ERROR] Callback error for HNXDS:VN30F2604: operands could not be broadcast together with shapes (3,) (2,) 
Traceback (most recent call last):
  File "/home/a/Papertrae/venv/lib/python3.12/site-packages/paperbroker/market_data/kafka_client.py", line 424, in _process_message
    callback(instrument, quote)
  File "/home/a/Papertrae/main.py", line 368, in on_quote
    trader.run_strategy()
  File "/home/a/Papertrae/main.py", line 174, in run_strategy
    upper, lower, atr, bb_pct, vol_spike = self.compute_indicators()
                                           ^^^^^^^^^^^^^^^^^^^^^^^^^
  File "/home/a/Papertrae/main.py", line 150, in compute_indicators
    np.abs(highs[-20:] - prices[-21:-1])
           ~~~~~~~~~~~~^~~~~~~~~~~~~~~~
ValueError: operands could not be broadcast together with shapes (3,) (2,) 
[2026-04-01 08:48:32] [ERROR] Callback error for HNXDS:VN30F2604: operands could not be broadcast together with shapes (3,) (2,) 
Traceback (most recent call last):
  File "/home/a/Papertrae/venv/lib/python3.12/site-packages/paperbroker/market_data/kafka_client.py", line 424, in _process_message
    callback(instrument, quote)
  File "/home/a/Papertrae/main.py", line 368, in on_quote
    trader.run_strategy()
  File "/home/a/Papertrae/main.py", line 174, in run_strategy
    upper, lower, atr, bb_pct, vol_spike = self.compute_indicators()
                                           ^^^^^^^^^^^^^^^^^^^^^^^^^
  File "/home/a/Papertrae/main.py", line 150, in compute_indicators
    np.abs(highs[-20:] - prices[-21:-1])
           ~~~~~~~~~~~~^~~~~~~~~~~~~~~~
ValueError: operands could not be broadcast together with shapes (3,) (2,) 
[2026-04-01 08:48:33] [ERROR] Callback error for HNXDS:VN30F2604: operands could not be broadcast together with shapes (3,) (2,) 
Traceback (most recent call last):
  File "/home/a/Papertrae/venv/lib/python3.12/site-packages/paperbroker/market_data/kafka_client.py", line 424, in _process_message
    callback(instrument, quote)
  File "/home/a/Papertrae/main.py", line 368, in on_quote
    trader.run_strategy()
  File "/home/a/Papertrae/main.py", line 174, in run_strategy
    upper, lower, atr, bb_pct, vol_spike = self.compute_indicators()
                                           ^^^^^^^^^^^^^^^^^^^^^^^^^
  File "/home/a/Papertrae/main.py", line 150, in compute_indicators
    np.abs(highs[-20:] - prices[-21:-1])
           ~~~~~~~~~~~~^~~~~~~~~~~~~~~~
ValueError: operands could not be broadcast together with shapes (3,) (2,) 
[2026-04-01 08:48:33] [ERROR] Callback error for HNXDS:VN30F2604: operands could not be broadcast together with shapes (3,) (2,) 
Traceback (most recent call last):
  File "/home/a/Papertrae/venv/lib/python3.12/site-packages/paperbroker/market_data/kafka_client.py", line 424, in _process_message
    callback(instrument, quote)
  File "/home/a/Papertrae/main.py", line 368, in on_quote
    trader.run_strategy()
  File "/home/a/Papertrae/main.py", line 174, in run_strategy
    upper, lower, atr, bb_pct, vol_spike = self.compute_indicators()
                                           ^^^^^^^^^^^^^^^^^^^^^^^^^
  File "/home/a/Papertrae/main.py", line 150, in compute_indicators
    np.abs(highs[-20:] - prices[-21:-1])
           ~~~~~~~~~~~~^~~~~~~~~~~~~~~~
ValueError: operands could not be broadcast together with shapes (3,) (2,) 
[2026-04-01 08:48:36] [ERROR] Callback error for HNXDS:VN30F2604: operands could not be broadcast together with shapes (3,) (2,) 
Traceback (most recent call last):
  File "/home/a/Papertrae/venv/lib/python3.12/site-packages/paperbroker/market_data/kafka_client.py", line 424, in _process_message
    callback(instrument, quote)
  File "/home/a/Papertrae/main.py", line 368, in on_quote
    trader.run_strategy()
  File "/home/a/Papertrae/main.py", line 174, in run_strategy
    upper, lower, atr, bb_pct, vol_spike = self.compute_indicators()
                                           ^^^^^^^^^^^^^^^^^^^^^^^^^
  File "/home/a/Papertrae/main.py", line 150, in compute_indicators
    np.abs(highs[-20:] - prices[-21:-1])
           ~~~~~~~~~~~~^~~~~~~~~~~~~~~~
ValueError: operands could not be broadcast together with shapes (3,) (2,) 
[2026-04-01 08:48:36] [ERROR] Callback error for HNXDS:VN30F2604: operands could not be broadcast together with shapes (3,) (2,) 
Traceback (most recent call last):
  File "/home/a/Papertrae/venv/lib/python3.12/site-packages/paperbroker/market_data/kafka_client.py", line 424, in _process_message
    callback(instrument, quote)
  File "/home/a/Papertrae/main.py", line 368, in on_quote
    trader.run_strategy()
  File "/home/a/Papertrae/main.py", line 174, in run_strategy
    upper, lower, atr, bb_pct, vol_spike = self.compute_indicators()
                                           ^^^^^^^^^^^^^^^^^^^^^^^^^
  File "/home/a/Papertrae/main.py", line 150, in compute_indicators
    np.abs(highs[-20:] - prices[-21:-1])
           ~~~~~~~~~~~~^~~~~~~~~~~~~~~~
ValueError: operands could not be broadcast together with shapes (3,) (2,) 
[2026-04-01 08:48:38] [ERROR] Callback error for HNXDS:VN30F2604: operands could not be broadcast together with shapes (3,) (2,) 
Traceback (most recent call last):
  File "/home/a/Papertrae/venv/lib/python3.12/site-packages/paperbroker/market_data/kafka_client.py", line 424, in _process_message
    callback(instrument, quote)
  File "/home/a/Papertrae/main.py", line 368, in on_quote
    trader.run_strategy()
  File "/home/a/Papertrae/main.py", line 174, in run_strategy
    upper, lower, atr, bb_pct, vol_spike = self.compute_indicators()
                                           ^^^^^^^^^^^^^^^^^^^^^^^^^
  File "/home/a/Papertrae/main.py", line 150, in compute_indicators
    np.abs(highs[-20:] - prices[-21:-1])
           ~~~~~~~~~~~~^~~~~~~~~~~~~~~~
ValueError: operands could not be broadcast together with shapes (3,) (2,) 
[2026-04-01 08:48:40] [ERROR] Callback error for HNXDS:VN30F2604: operands could not be broadcast together with shapes (3,) (2,) 
Traceback (most recent call last):
  File "/home/a/Papertrae/venv/lib/python3.12/site-packages/paperbroker/market_data/kafka_client.py", line 424, in _process_message
    callback(instrument, quote)
  File "/home/a/Papertrae/main.py", line 368, in on_quote
    trader.run_strategy()
  File "/home/a/Papertrae/main.py", line 174, in run_strategy
    upper, lower, atr, bb_pct, vol_spike = self.compute_indicators()
                                           ^^^^^^^^^^^^^^^^^^^^^^^^^
  File "/home/a/Papertrae/main.py", line 150, in compute_indicators
    np.abs(highs[-20:] - prices[-21:-1])
           ~~~~~~~~~~~~^~~~~~~~~~~~~~~~
ValueError: operands could not be broadcast together with shapes (3,) (2,) 
[2026-04-01 08:48:41] [ERROR] Callback error for HNXDS:VN30F2604: operands could not be broadcast together with shapes (3,) (2,) 
Traceback (most recent call last):
  File "/home/a/Papertrae/venv/lib/python3.12/site-packages/paperbroker/market_data/kafka_client.py", line 424, in _process_message
    callback(instrument, quote)
  File "/home/a/Papertrae/main.py", line 368, in on_quote
    trader.run_strategy()
  File "/home/a/Papertrae/main.py", line 174, in run_strategy
    upper, lower, atr, bb_pct, vol_spike = self.compute_indicators()
                                           ^^^^^^^^^^^^^^^^^^^^^^^^^
  File "/home/a/Papertrae/main.py", line 150, in compute_indicators
    np.abs(highs[-20:] - prices[-21:-1])
           ~~~~~~~~~~~~^~~~~~~~~~~~~~~~
ValueError: operands could not be broadcast together with shapes (3,) (2,) 
[2026-04-01 08:48:43] [ERROR] Callback error for HNXDS:VN30F2604: operands could not be broadcast together with shapes (3,) (2,) 
Traceback (most recent call last):
  File "/home/a/Papertrae/venv/lib/python3.12/site-packages/paperbroker/market_data/kafka_client.py", line 424, in _process_message
    callback(instrument, quote)
  File "/home/a/Papertrae/main.py", line 368, in on_quote
    trader.run_strategy()
  File "/home/a/Papertrae/main.py", line 174, in run_strategy
    upper, lower, atr, bb_pct, vol_spike = self.compute_indicators()
                                           ^^^^^^^^^^^^^^^^^^^^^^^^^
  File "/home/a/Papertrae/main.py", line 150, in compute_indicators
    np.abs(highs[-20:] - prices[-21:-1])
           ~~~~~~~~~~~~^~~~~~~~~~~~~~~~
ValueError: operands could not be broadcast together with shapes (3,) (2,) 
[2026-04-01 08:48:44] [ERROR] Callback error for HNXDS:VN30F2604: operands could not be broadcast together with shapes (3,) (2,) 
Traceback (most recent call last):
  File "/home/a/Papertrae/venv/lib/python3.12/site-packages/paperbroker/market_data/kafka_client.py", line 424, in _process_message
    callback(instrument, quote)
  File "/home/a/Papertrae/main.py", line 368, in on_quote
    trader.run_strategy()
  File "/home/a/Papertrae/main.py", line 174, in run_strategy
    upper, lower, atr, bb_pct, vol_spike = self.compute_indicators()
                                           ^^^^^^^^^^^^^^^^^^^^^^^^^
  File "/home/a/Papertrae/main.py", line 150, in compute_indicators
    np.abs(highs[-20:] - prices[-21:-1])
           ~~~~~~~~~~~~^~~~~~~~~~~~~~~~
ValueError: operands could not be broadcast together with shapes (3,) (2,) 
[2026-04-01 08:48:45] [ERROR] Callback error for HNXDS:VN30F2604: operands could not be broadcast together with shapes (3,) (2,) 
Traceback (most recent call last):
  File "/home/a/Papertrae/venv/lib/python3.12/site-packages/paperbroker/market_data/kafka_client.py", line 424, in _process_message
    callback(instrument, quote)
  File "/home/a/Papertrae/main.py", line 368, in on_quote
    trader.run_strategy()
  File "/home/a/Papertrae/main.py", line 174, in run_strategy
    upper, lower, atr, bb_pct, vol_spike = self.compute_indicators()
                                           ^^^^^^^^^^^^^^^^^^^^^^^^^
  File "/home/a/Papertrae/main.py", line 150, in compute_indicators
    np.abs(highs[-20:] - prices[-21:-1])
           ~~~~~~~~~~~~^~~~~~~~~~~~~~~~
ValueError: operands could not be broadcast together with shapes (3,) (2,) 
[2026-04-01 08:48:49] [ERROR] Callback error for HNXDS:VN30F2604: operands could not be broadcast together with shapes (3,) (2,) 
Traceback (most recent call last):
  File "/home/a/Papertrae/venv/lib/python3.12/site-packages/paperbroker/market_data/kafka_client.py", line 424, in _process_message
    callback(instrument, quote)
  File "/home/a/Papertrae/main.py", line 368, in on_quote
    trader.run_strategy()
  File "/home/a/Papertrae/main.py", line 174, in run_strategy
    upper, lower, atr, bb_pct, vol_spike = self.compute_indicators()
                                           ^^^^^^^^^^^^^^^^^^^^^^^^^
  File "/home/a/Papertrae/main.py", line 150, in compute_indicators
    np.abs(highs[-20:] - prices[-21:-1])
           ~~~~~~~~~~~~^~~~~~~~~~~~~~~~
ValueError: operands could not be broadcast together with shapes (3,) (2,) 
[2026-04-01 08:48:50] [ERROR] Callback error for HNXDS:VN30F2604: operands could not be broadcast together with shapes (3,) (2,) 
Traceback (most recent call last):
  File "/home/a/Papertrae/venv/lib/python3.12/site-packages/paperbroker/market_data/kafka_client.py", line 424, in _process_message
    callback(instrument, quote)
  File "/home/a/Papertrae/main.py", line 368, in on_quote
    trader.run_strategy()
  File "/home/a/Papertrae/main.py", line 174, in run_strategy
    upper, lower, atr, bb_pct, vol_spike = self.compute_indicators()
                                           ^^^^^^^^^^^^^^^^^^^^^^^^^
  File "/home/a/Papertrae/main.py", line 150, in compute_indicators
    np.abs(highs[-20:] - prices[-21:-1])
           ~~~~~~~~~~~~^~~~~~~~~~~~~~~~
ValueError: operands could not be broadcast together with shapes (3,) (2,) 
[2026-04-01 08:48:51] [DEBUG] [TO ADMIN] 8=FIX.4.4|9=101|35=0|34=57|49=0c6ba5672f96498abe52990b491f002c|52=20260401-01:48:51.232|56=SERVER|1=main|553=Group16|10=210|
[2026-04-01 08:48:51] [ERROR] Callback error for HNXDS:VN30F2604: operands could not be broadcast together with shapes (3,) (2,) 
Traceback (most recent call last):
  File "/home/a/Papertrae/venv/lib/python3.12/site-packages/paperbroker/market_data/kafka_client.py", line 424, in _process_message
    callback(instrument, quote)
  File "/home/a/Papertrae/main.py", line 368, in on_quote
    trader.run_strategy()
  File "/home/a/Papertrae/main.py", line 174, in run_strategy
    upper, lower, atr, bb_pct, vol_spike = self.compute_indicators()
                                           ^^^^^^^^^^^^^^^^^^^^^^^^^
  File "/home/a/Papertrae/main.py", line 150, in compute_indicators
    np.abs(highs[-20:] - prices[-21:-1])
           ~~~~~~~~~~~~^~~~~~~~~~~~~~~~
ValueError: operands could not be broadcast together with shapes (3,) (2,) 
[2026-04-01 08:48:51] [DEBUG] [FROM ADMIN] 8=FIX.4.4|9=82|35=0|34=57|49=SERVER|52=20260401-01:48:51.718|56=0c6ba5672f96498abe52990b491f002c|10=080|
[2026-04-01 08:48:53] [ERROR] Callback error for HNXDS:VN30F2604: operands could not be broadcast together with shapes (3,) (2,) 
Traceback (most recent call last):
  File "/home/a/Papertrae/venv/lib/python3.12/site-packages/paperbroker/market_data/kafka_client.py", line 424, in _process_message
    callback(instrument, quote)
  File "/home/a/Papertrae/main.py", line 368, in on_quote
    trader.run_strategy()
  File "/home/a/Papertrae/main.py", line 174, in run_strategy
    upper, lower, atr, bb_pct, vol_spike = self.compute_indicators()
                                           ^^^^^^^^^^^^^^^^^^^^^^^^^
  File "/home/a/Papertrae/main.py", line 150, in compute_indicators
    np.abs(highs[-20:] - prices[-21:-1])
           ~~~~~~~~~~~~^~~~~~~~~~~~~~~~
ValueError: operands could not be broadcast together with shapes (3,) (2,) 
[2026-04-01 08:48:54] [ERROR] Callback error for HNXDS:VN30F2604: operands could not be broadcast together with shapes (3,) (2,) 
Traceback (most recent call last):
  File "/home/a/Papertrae/venv/lib/python3.12/site-packages/paperbroker/market_data/kafka_client.py", line 424, in _process_message
    callback(instrument, quote)
  File "/home/a/Papertrae/main.py", line 368, in on_quote
    trader.run_strategy()
  File "/home/a/Papertrae/main.py", line 174, in run_strategy
    upper, lower, atr, bb_pct, vol_spike = self.compute_indicators()
                                           ^^^^^^^^^^^^^^^^^^^^^^^^^
  File "/home/a/Papertrae/main.py", line 150, in compute_indicators
    np.abs(highs[-20:] - prices[-21:-1])
           ~~~~~~~~~~~~^~~~~~~~~~~~~~~~
ValueError: operands could not be broadcast together with shapes (3,) (2,) 
[2026-04-01 08:48:57] [ERROR] Callback error for HNXDS:VN30F2604: operands could not be broadcast together with shapes (3,) (2,) 
Traceback (most recent call last):
  File "/home/a/Papertrae/venv/lib/python3.12/site-packages/paperbroker/market_data/kafka_client.py", line 424, in _process_message
    callback(instrument, quote)
  File "/home/a/Papertrae/main.py", line 368, in on_quote
    trader.run_strategy()
  File "/home/a/Papertrae/main.py", line 174, in run_strategy
    upper, lower, atr, bb_pct, vol_spike = self.compute_indicators()
                                           ^^^^^^^^^^^^^^^^^^^^^^^^^
  File "/home/a/Papertrae/main.py", line 150, in compute_indicators
    np.abs(highs[-20:] - prices[-21:-1])
           ~~~~~~~~~~~~^~~~~~~~~~~~~~~~
ValueError: operands could not be broadcast together with shapes (3,) (2,) 
[2026-04-01 08:49:00] [ERROR] Callback error for HNXDS:VN30F2604: operands could not be broadcast together with shapes (4,) (3,) 
Traceback (most recent call last):
  File "/home/a/Papertrae/venv/lib/python3.12/site-packages/paperbroker/market_data/kafka_client.py", line 424, in _process_message
    callback(instrument, quote)
  File "/home/a/Papertrae/main.py", line 368, in on_quote
    trader.run_strategy()
  File "/home/a/Papertrae/main.py", line 174, in run_strategy
    upper, lower, atr, bb_pct, vol_spike = self.compute_indicators()
                                           ^^^^^^^^^^^^^^^^^^^^^^^^^
  File "/home/a/Papertrae/main.py", line 150, in compute_indicators
    np.abs(highs[-20:] - prices[-21:-1])
           ~~~~~~~~~~~~^~~~~~~~~~~~~~~~
ValueError: operands could not be broadcast together with shapes (4,) (3,) 
[2026-04-01 08:49:01] [ERROR] Callback error for HNXDS:VN30F2604: operands could not be broadcast together with shapes (4,) (3,) 
Traceback (most recent call last):
  File "/home/a/Papertrae/venv/lib/python3.12/site-packages/paperbroker/market_data/kafka_client.py", line 424, in _process_message
    callback(instrument, quote)
  File "/home/a/Papertrae/main.py", line 368, in on_quote
    trader.run_strategy()
  File "/home/a/Papertrae/main.py", line 174, in run_strategy
    upper, lower, atr, bb_pct, vol_spike = self.compute_indicators()
                                           ^^^^^^^^^^^^^^^^^^^^^^^^^
  File "/home/a/Papertrae/main.py", line 150, in compute_indicators
    np.abs(highs[-20:] - prices[-21:-1])
           ~~~~~~~~~~~~^~~~~~~~~~~~~~~~
ValueError: operands could not be broadcast together with shapes (4,) (3,) 
[2026-04-01 08:49:01] [ERROR] Callback error for HNXDS:VN30F2604: operands could not be broadcast together with shapes (4,) (3,) 
Traceback (most recent call last):
  File "/home/a/Papertrae/venv/lib/python3.12/site-packages/paperbroker/market_data/kafka_client.py", line 424, in _process_message
    callback(instrument, quote)
  File "/home/a/Papertrae/main.py", line 368, in on_quote
    trader.run_strategy()
  File "/home/a/Papertrae/main.py", line 174, in run_strategy
    upper, lower, atr, bb_pct, vol_spike = self.compute_indicators()
                                           ^^^^^^^^^^^^^^^^^^^^^^^^^
  File "/home/a/Papertrae/main.py", line 150, in compute_indicators
    np.abs(highs[-20:] - prices[-21:-1])
           ~~~~~~~~~~~~^~~~~~~~~~~~~~~~
ValueError: operands could not be broadcast together with shapes (4,) (3,) 
[2026-04-01 08:49:03] [ERROR] Callback error for HNXDS:VN30F2604: operands could not be broadcast together with shapes (4,) (3,) 
Traceback (most recent call last):
  File "/home/a/Papertrae/venv/lib/python3.12/site-packages/paperbroker/market_data/kafka_client.py", line 424, in _process_message
    callback(instrument, quote)
  File "/home/a/Papertrae/main.py", line 368, in on_quote
    trader.run_strategy()
  File "/home/a/Papertrae/main.py", line 174, in run_strategy
    upper, lower, atr, bb_pct, vol_spike = self.compute_indicators()
                                           ^^^^^^^^^^^^^^^^^^^^^^^^^
  File "/home/a/Papertrae/main.py", line 150, in compute_indicators
    np.abs(highs[-20:] - prices[-21:-1])
           ~~~~~~~~~~~~^~~~~~~~~~~~~~~~
ValueError: operands could not be broadcast together with shapes (4,) (3,) 
[2026-04-01 08:49:04] [ERROR] Callback error for HNXDS:VN30F2604: operands could not be broadcast together with shapes (4,) (3,) 
Traceback (most recent call last):
  File "/home/a/Papertrae/venv/lib/python3.12/site-packages/paperbroker/market_data/kafka_client.py", line 424, in _process_message
    callback(instrument, quote)
  File "/home/a/Papertrae/main.py", line 368, in on_quote
    trader.run_strategy()
  File "/home/a/Papertrae/main.py", line 174, in run_strategy
    upper, lower, atr, bb_pct, vol_spike = self.compute_indicators()
                                           ^^^^^^^^^^^^^^^^^^^^^^^^^
  File "/home/a/Papertrae/main.py", line 150, in compute_indicators
    np.abs(highs[-20:] - prices[-21:-1])
           ~~~~~~~~~~~~^~~~~~~~~~~~~~~~
ValueError: operands could not be broadcast together with shapes (4,) (3,) 
[2026-04-01 08:49:04] [ERROR] Callback error for HNXDS:VN30F2604: operands could not be broadcast together with shapes (4,) (3,) 
Traceback (most recent call last):
  File "/home/a/Papertrae/venv/lib/python3.12/site-packages/paperbroker/market_data/kafka_client.py", line 424, in _process_message
    callback(instrument, quote)
  File "/home/a/Papertrae/main.py", line 368, in on_quote
    trader.run_strategy()
  File "/home/a/Papertrae/main.py", line 174, in run_strategy
    upper, lower, atr, bb_pct, vol_spike = self.compute_indicators()
                                           ^^^^^^^^^^^^^^^^^^^^^^^^^
  File "/home/a/Papertrae/main.py", line 150, in compute_indicators
    np.abs(highs[-20:] - prices[-21:-1])
           ~~~~~~~~~~~~^~~~~~~~~~~~~~~~
ValueError: operands could not be broadcast together with shapes (4,) (3,) 
[2026-04-01 08:49:05] [ERROR] Callback error for HNXDS:VN30F2604: operands could not be broadcast together with shapes (4,) (3,) 
Traceback (most recent call last):
  File "/home/a/Papertrae/venv/lib/python3.12/site-packages/paperbroker/market_data/kafka_client.py", line 424, in _process_message
    callback(instrument, quote)
  File "/home/a/Papertrae/main.py", line 368, in on_quote
    trader.run_strategy()
  File "/home/a/Papertrae/main.py", line 174, in run_strategy
    upper, lower, atr, bb_pct, vol_spike = self.compute_indicators()
                                           ^^^^^^^^^^^^^^^^^^^^^^^^^
  File "/home/a/Papertrae/main.py", line 150, in compute_indicators
    np.abs(highs[-20:] - prices[-21:-1])
           ~~~~~~~~~~~~^~~~~~~~~~~~~~~~
ValueError: operands could not be broadcast together with shapes (4,) (3,) 
[2026-04-01 08:49:08] [ERROR] Callback error for HNXDS:VN30F2604: operands could not be broadcast together with shapes (4,) (3,) 
Traceback (most recent call last):
  File "/home/a/Papertrae/venv/lib/python3.12/site-packages/paperbroker/market_data/kafka_client.py", line 424, in _process_message
    callback(instrument, quote)
  File "/home/a/Papertrae/main.py", line 368, in on_quote
    trader.run_strategy()
  File "/home/a/Papertrae/main.py", line 174, in run_strategy
    upper, lower, atr, bb_pct, vol_spike = self.compute_indicators()
                                           ^^^^^^^^^^^^^^^^^^^^^^^^^
  File "/home/a/Papertrae/main.py", line 150, in compute_indicators
    np.abs(highs[-20:] - prices[-21:-1])
           ~~~~~~~~~~~~^~~~~~~~~~~~~~~~
ValueError: operands could not be broadcast together with shapes (4,) (3,) 
[2026-04-01 08:49:10] [ERROR] Callback error for HNXDS:VN30F2604: operands could not be broadcast together with shapes (4,) (3,) 
Traceback (most recent call last):
  File "/home/a/Papertrae/venv/lib/python3.12/site-packages/paperbroker/market_data/kafka_client.py", line 424, in _process_message
    callback(instrument, quote)
  File "/home/a/Papertrae/main.py", line 368, in on_quote
    trader.run_strategy()
  File "/home/a/Papertrae/main.py", line 174, in run_strategy
    upper, lower, atr, bb_pct, vol_spike = self.compute_indicators()
                                           ^^^^^^^^^^^^^^^^^^^^^^^^^
  File "/home/a/Papertrae/main.py", line 150, in compute_indicators
    np.abs(highs[-20:] - prices[-21:-1])
           ~~~~~~~~~~~~^~~~~~~~~~~~~~~~
ValueError: operands could not be broadcast together with shapes (4,) (3,) 
[2026-04-01 08:49:12] [ERROR] Callback error for HNXDS:VN30F2604: operands could not be broadcast together with shapes (4,) (3,) 
Traceback (most recent call last):
  File "/home/a/Papertrae/venv/lib/python3.12/site-packages/paperbroker/market_data/kafka_client.py", line 424, in _process_message
    callback(instrument, quote)
  File "/home/a/Papertrae/main.py", line 368, in on_quote
    trader.run_strategy()
  File "/home/a/Papertrae/main.py", line 174, in run_strategy
    upper, lower, atr, bb_pct, vol_spike = self.compute_indicators()
                                           ^^^^^^^^^^^^^^^^^^^^^^^^^
  File "/home/a/Papertrae/main.py", line 150, in compute_indicators
    np.abs(highs[-20:] - prices[-21:-1])
           ~~~~~~~~~~~~^~~~~~~~~~~~~~~~
ValueError: operands could not be broadcast together with shapes (4,) (3,) 
[2026-04-01 08:49:13] [ERROR] Callback error for HNXDS:VN30F2604: operands could not be broadcast together with shapes (4,) (3,) 
Traceback (most recent call last):
  File "/home/a/Papertrae/venv/lib/python3.12/site-packages/paperbroker/market_data/kafka_client.py", line 424, in _process_message
    callback(instrument, quote)
  File "/home/a/Papertrae/main.py", line 368, in on_quote
    trader.run_strategy()
  File "/home/a/Papertrae/main.py", line 174, in run_strategy
    upper, lower, atr, bb_pct, vol_spike = self.compute_indicators()
                                           ^^^^^^^^^^^^^^^^^^^^^^^^^
  File "/home/a/Papertrae/main.py", line 150, in compute_indicators
    np.abs(highs[-20:] - prices[-21:-1])
           ~~~~~~~~~~~~^~~~~~~~~~~~~~~~
ValueError: operands could not be broadcast together with shapes (4,) (3,) 
[2026-04-01 08:49:13] [ERROR] Callback error for HNXDS:VN30F2604: operands could not be broadcast together with shapes (4,) (3,) 
Traceback (most recent call last):
  File "/home/a/Papertrae/venv/lib/python3.12/site-packages/paperbroker/market_data/kafka_client.py", line 424, in _process_message
    callback(instrument, quote)
  File "/home/a/Papertrae/main.py", line 368, in on_quote
    trader.run_strategy()
  File "/home/a/Papertrae/main.py", line 174, in run_strategy
    upper, lower, atr, bb_pct, vol_spike = self.compute_indicators()
                                           ^^^^^^^^^^^^^^^^^^^^^^^^^
  File "/home/a/Papertrae/main.py", line 150, in compute_indicators
    np.abs(highs[-20:] - prices[-21:-1])
           ~~~~~~~~~~~~^~~~~~~~~~~~~~~~
ValueError: operands could not be broadcast together with shapes (4,) (3,) 
[2026-04-01 08:49:15] [ERROR] Callback error for HNXDS:VN30F2604: operands could not be broadcast together with shapes (4,) (3,) 
Traceback (most recent call last):
  File "/home/a/Papertrae/venv/lib/python3.12/site-packages/paperbroker/market_data/kafka_client.py", line 424, in _process_message
    callback(instrument, quote)
  File "/home/a/Papertrae/main.py", line 368, in on_quote
    trader.run_strategy()
  File "/home/a/Papertrae/main.py", line 174, in run_strategy
    upper, lower, atr, bb_pct, vol_spike = self.compute_indicators()
                                           ^^^^^^^^^^^^^^^^^^^^^^^^^
  File "/home/a/Papertrae/main.py", line 150, in compute_indicators
    np.abs(highs[-20:] - prices[-21:-1])
           ~~~~~~~~~~~~^~~~~~~~~~~~~~~~
ValueError: operands could not be broadcast together with shapes (4,) (3,) 
[2026-04-01 08:49:16] [ERROR] Callback error for HNXDS:VN30F2604: operands could not be broadcast together with shapes (4,) (3,) 
Traceback (most recent call last):
  File "/home/a/Papertrae/venv/lib/python3.12/site-packages/paperbroker/market_data/kafka_client.py", line 424, in _process_message
    callback(instrument, quote)
  File "/home/a/Papertrae/main.py", line 368, in on_quote
    trader.run_strategy()
  File "/home/a/Papertrae/main.py", line 174, in run_strategy
    upper, lower, atr, bb_pct, vol_spike = self.compute_indicators()
                                           ^^^^^^^^^^^^^^^^^^^^^^^^^
  File "/home/a/Papertrae/main.py", line 150, in compute_indicators
    np.abs(highs[-20:] - prices[-21:-1])
           ~~~~~~~~~~~~^~~~~~~~~~~~~~~~
ValueError: operands could not be broadcast together with shapes (4,) (3,) 
[2026-04-01 08:49:17] [ERROR] Callback error for HNXDS:VN30F2604: operands could not be broadcast together with shapes (4,) (3,) 
Traceback (most recent call last):
  File "/home/a/Papertrae/venv/lib/python3.12/site-packages/paperbroker/market_data/kafka_client.py", line 424, in _process_message
    callback(instrument, quote)
  File "/home/a/Papertrae/main.py", line 368, in on_quote
    trader.run_strategy()
  File "/home/a/Papertrae/main.py", line 174, in run_strategy
    upper, lower, atr, bb_pct, vol_spike = self.compute_indicators()
                                           ^^^^^^^^^^^^^^^^^^^^^^^^^
  File "/home/a/Papertrae/main.py", line 150, in compute_indicators
    np.abs(highs[-20:] - prices[-21:-1])
           ~~~~~~~~~~~~^~~~~~~~~~~~~~~~
ValueError: operands could not be broadcast together with shapes (4,) (3,) 
[2026-04-01 08:49:18] [ERROR] Callback error for HNXDS:VN30F2604: operands could not be broadcast together with shapes (4,) (3,) 
Traceback (most recent call last):
  File "/home/a/Papertrae/venv/lib/python3.12/site-packages/paperbroker/market_data/kafka_client.py", line 424, in _process_message
    callback(instrument, quote)
  File "/home/a/Papertrae/main.py", line 368, in on_quote
    trader.run_strategy()
  File "/home/a/Papertrae/main.py", line 174, in run_strategy
    upper, lower, atr, bb_pct, vol_spike = self.compute_indicators()
                                           ^^^^^^^^^^^^^^^^^^^^^^^^^
  File "/home/a/Papertrae/main.py", line 150, in compute_indicators
    np.abs(highs[-20:] - prices[-21:-1])
           ~~~~~~~~~~~~^~~~~~~~~~~~~~~~
ValueError: operands could not be broadcast together with shapes (4,) (3,) 
[2026-04-01 08:49:20] [ERROR] Callback error for HNXDS:VN30F2604: operands could not be broadcast together with shapes (4,) (3,) 
Traceback (most recent call last):
  File "/home/a/Papertrae/venv/lib/python3.12/site-packages/paperbroker/market_data/kafka_client.py", line 424, in _process_message
    callback(instrument, quote)
  File "/home/a/Papertrae/main.py", line 368, in on_quote
    trader.run_strategy()
  File "/home/a/Papertrae/main.py", line 174, in run_strategy
    upper, lower, atr, bb_pct, vol_spike = self.compute_indicators()
                                           ^^^^^^^^^^^^^^^^^^^^^^^^^
  File "/home/a/Papertrae/main.py", line 150, in compute_indicators
    np.abs(highs[-20:] - prices[-21:-1])
           ~~~~~~~~~~~~^~~~~~~~~~~~~~~~
ValueError: operands could not be broadcast together with shapes (4,) (3,) 
[2026-04-01 08:49:21] [DEBUG] [TO ADMIN] 8=FIX.4.4|9=101|35=0|34=58|49=0c6ba5672f96498abe52990b491f002c|52=20260401-01:49:21.072|56=SERVER|1=main|553=Group16|10=211|
[2026-04-01 08:49:22] [ERROR] Callback error for HNXDS:VN30F2604: operands could not be broadcast together with shapes (4,) (3,) 
Traceback (most recent call last):
  File "/home/a/Papertrae/venv/lib/python3.12/site-packages/paperbroker/market_data/kafka_client.py", line 424, in _process_message
    callback(instrument, quote)
  File "/home/a/Papertrae/main.py", line 368, in on_quote
    trader.run_strategy()
  File "/home/a/Papertrae/main.py", line 174, in run_strategy
    upper, lower, atr, bb_pct, vol_spike = self.compute_indicators()
                                           ^^^^^^^^^^^^^^^^^^^^^^^^^
  File "/home/a/Papertrae/main.py", line 150, in compute_indicators
    np.abs(highs[-20:] - prices[-21:-1])
           ~~~~~~~~~~~~^~~~~~~~~~~~~~~~
ValueError: operands could not be broadcast together with shapes (4,) (3,) 
[2026-04-01 08:49:22] [DEBUG] [FROM ADMIN] 8=FIX.4.4|9=82|35=0|34=58|49=SERVER|52=20260401-01:49:21.718|56=0c6ba5672f96498abe52990b491f002c|10=079|
[2026-04-01 08:49:25] [ERROR] Callback error for HNXDS:VN30F2604: operands could not be broadcast together with shapes (4,) (3,) 
Traceback (most recent call last):
  File "/home/a/Papertrae/venv/lib/python3.12/site-packages/paperbroker/market_data/kafka_client.py", line 424, in _process_message
    callback(instrument, quote)
  File "/home/a/Papertrae/main.py", line 368, in on_quote
    trader.run_strategy()
  File "/home/a/Papertrae/main.py", line 174, in run_strategy
    upper, lower, atr, bb_pct, vol_spike = self.compute_indicators()
                                           ^^^^^^^^^^^^^^^^^^^^^^^^^
  File "/home/a/Papertrae/main.py", line 150, in compute_indicators
    np.abs(highs[-20:] - prices[-21:-1])
           ~~~~~~~~~~~~^~~~~~~~~~~~~~~~
ValueError: operands could not be broadcast together with shapes (4,) (3,) 
[2026-04-01 08:49:26] [ERROR] Callback error for HNXDS:VN30F2604: operands could not be broadcast together with shapes (4,) (3,) 
Traceback (most recent call last):
  File "/home/a/Papertrae/venv/lib/python3.12/site-packages/paperbroker/market_data/kafka_client.py", line 424, in _process_message
    callback(instrument, quote)
  File "/home/a/Papertrae/main.py", line 368, in on_quote
    trader.run_strategy()
  File "/home/a/Papertrae/main.py", line 174, in run_strategy
    upper, lower, atr, bb_pct, vol_spike = self.compute_indicators()
                                           ^^^^^^^^^^^^^^^^^^^^^^^^^
  File "/home/a/Papertrae/main.py", line 150, in compute_indicators
    np.abs(highs[-20:] - prices[-21:-1])
           ~~~~~~~~~~~~^~~~~~~~~~~~~~~~
ValueError: operands could not be broadcast together with shapes (4,) (3,) 
[2026-04-01 08:49:27] [ERROR] Callback error for HNXDS:VN30F2604: operands could not be broadcast together with shapes (4,) (3,) 
Traceback (most recent call last):
  File "/home/a/Papertrae/venv/lib/python3.12/site-packages/paperbroker/market_data/kafka_client.py", line 424, in _process_message
    callback(instrument, quote)
  File "/home/a/Papertrae/main.py", line 368, in on_quote
    trader.run_strategy()
  File "/home/a/Papertrae/main.py", line 174, in run_strategy
    upper, lower, atr, bb_pct, vol_spike = self.compute_indicators()
                                           ^^^^^^^^^^^^^^^^^^^^^^^^^
  File "/home/a/Papertrae/main.py", line 150, in compute_indicators
    np.abs(highs[-20:] - prices[-21:-1])
           ~~~~~~~~~~~~^~~~~~~~~~~~~~~~
ValueError: operands could not be broadcast together with shapes (4,) (3,) 
[2026-04-01 08:49:28] [ERROR] Callback error for HNXDS:VN30F2604: operands could not be broadcast together with shapes (4,) (3,) 
Traceback (most recent call last):
  File "/home/a/Papertrae/venv/lib/python3.12/site-packages/paperbroker/market_data/kafka_client.py", line 424, in _process_message
    callback(instrument, quote)
  File "/home/a/Papertrae/main.py", line 368, in on_quote
    trader.run_strategy()
  File "/home/a/Papertrae/main.py", line 174, in run_strategy
    upper, lower, atr, bb_pct, vol_spike = self.compute_indicators()
                                           ^^^^^^^^^^^^^^^^^^^^^^^^^
  File "/home/a/Papertrae/main.py", line 150, in compute_indicators
    np.abs(highs[-20:] - prices[-21:-1])
           ~~~~~~~~~~~~^~~~~~~~~~~~~~~~
ValueError: operands could not be broadcast together with shapes (4,) (3,) 
[2026-04-01 08:49:29] [ERROR] Callback error for HNXDS:VN30F2604: operands could not be broadcast together with shapes (4,) (3,) 
Traceback (most recent call last):
  File "/home/a/Papertrae/venv/lib/python3.12/site-packages/paperbroker/market_data/kafka_client.py", line 424, in _process_message
    callback(instrument, quote)
  File "/home/a/Papertrae/main.py", line 368, in on_quote
    trader.run_strategy()
  File "/home/a/Papertrae/main.py", line 174, in run_strategy
    upper, lower, atr, bb_pct, vol_spike = self.compute_indicators()
                                           ^^^^^^^^^^^^^^^^^^^^^^^^^
  File "/home/a/Papertrae/main.py", line 150, in compute_indicators
    np.abs(highs[-20:] - prices[-21:-1])
           ~~~~~~~~~~~~^~~~~~~~~~~~~~~~
ValueError: operands could not be broadcast together with shapes (4,) (3,) 
[2026-04-01 08:49:30] [INFO] Stopping Kafka consumer...
[2026-04-01 08:49:31] [ERROR] Callback error for HNXDS:VN30F2604: operands could not be broadcast together with shapes (4,) (3,) 
Traceback (most recent call last):
  File "/home/a/Papertrae/venv/lib/python3.12/site-packages/paperbroker/market_data/kafka_client.py", line 424, in _process_message
    callback(instrument, quote)
  File "/home/a/Papertrae/main.py", line 368, in on_quote
    trader.run_strategy()
  File "/home/a/Papertrae/main.py", line 174, in run_strategy
    upper, lower, atr, bb_pct, vol_spike = self.compute_indicators()
                                           ^^^^^^^^^^^^^^^^^^^^^^^^^
  File "/home/a/Papertrae/main.py", line 150, in compute_indicators
    np.abs(highs[-20:] - prices[-21:-1])
           ~~~~~~~~~~~~^~~~~~~~~~~~~~~~
ValueError: operands could not be broadcast together with shapes (4,) (3,) 
[2026-04-01 08:49:31] [INFO] Kafka consumer thread stopped
[2026-04-01 08:49:31] [INFO] Kafka consumer stopped
[2026-04-01 08:50:23] [INFO] Session created: FIX.4.4:0c6ba5672f96498abe52990b491f002c->SERVER
[2026-04-01 08:50:23] [DEBUG] FIXSessionManager initialized config=/tmp/paperbroker_pei3kt63.cfg username=Group16
[2026-04-01 08:50:23] [DEBUG] RestSession initialized with base_url: https://papertrade.algotrade.vn/accounting
[2026-04-01 08:50:23] [DEBUG] Registered handler for event 'fix:logon'. Total handlers: 1
[2026-04-01 08:50:23] [DEBUG] Registered handler for event 'fix:order:accepted'. Total handlers: 2
[2026-04-01 08:50:23] [DEBUG] Registered handler for event 'fix:order:filled'. Total handlers: 3
[2026-04-01 08:50:23] [INFO] Starting FIX session...
[2026-04-01 08:50:23] [DEBUG] POST https://papertrade.algotrade.vn/accounting/api/fix-account-info/get-fix-id payload_keys=['username', 'password']
[2026-04-01 08:50:23] [DEBUG] [TO ADMIN] 8=FIX.4.4|9=135|35=A|34=1|49=0c6ba5672f96498abe52990b491f002c|52=20260401-01:50:23.690|56=SERVER|1=main|98=0|108=30|141=Y|553=Group16|554=CqNO5I7KfygR|10=186|
[2026-04-01 08:50:24] [DEBUG] POST https://papertrade.algotrade.vn/accounting/api/fix-account-info/get-fix-id succeeded status_code=200
[2026-04-01 08:50:24] [INFO] event=fix_id_resolved username=Group16 fixAccountID=95bf1129dd2c4e4a96720ec3bfdceb06
[2026-04-01 08:50:24] [DEBUG] [FROM ADMIN] 8=FIX.4.4|9=99|35=A|34=1|49=SERVER|52=20260401-01:50:23.810|56=0c6ba5672f96498abe52990b491f002c|98=0|108=30|141=Y|10=101|
[2026-04-01 08:50:24] [INFO] Logon success: FIX.4.4:0c6ba5672f96498abe52990b491f002c->SERVER
[2026-04-01 08:50:24] [INFO] Order manager session set: FIX.4.4:0c6ba5672f96498abe52990b491f002c->SERVER
[2026-04-01 08:50:24] [DEBUG] Emitting event 'fix:logon' to 1 handler(s)
[2026-04-01 08:50:24] [INFO] Initialized KafkaMarketDataClient: 52.77.119.94:9092, merge_updates=True
[2026-04-01 08:50:24] [INFO] Subscribed to HNXDS:VN30F2604 (topic: real.HNXDS.VN30F2604)
[2026-04-01 08:50:24] [INFO] Starting Kafka consumer for topics: ['real.HNXDS.VN30F2604']
[2026-04-01 08:50:24] [INFO] Kafka consumer thread started
[2026-04-01 08:50:24] [INFO] Kafka consumer started
[2026-04-01 08:50:30] [ERROR] Callback error for HNXDS:VN30F2604: index -1 is out of bounds for axis 0 with size 0
Traceback (most recent call last):
  File "/home/a/Papertrae/venv/lib/python3.12/site-packages/paperbroker/market_data/kafka_client.py", line 424, in _process_message
    callback(instrument, quote)
  File "/home/a/Papertrae/main.py", line 367, in on_quote
    trader.run_strategy(quote.latest_matched_price)
  File "/home/a/Papertrae/main.py", line 173, in run_strategy
    upper, lower, atr, bb_pct, vol_spike = self.compute_indicators()
                                           ^^^^^^^^^^^^^^^^^^^^^^^^^
  File "/home/a/Papertrae/main.py", line 162, in compute_indicators
    vol_spike = vol[-1] > vol[-20:].mean()
                ~~~^^^^
IndexError: index -1 is out of bounds for axis 0 with size 0
[2026-04-01 08:50:31] [ERROR] Callback error for HNXDS:VN30F2604: index -1 is out of bounds for axis 0 with size 0
Traceback (most recent call last):
  File "/home/a/Papertrae/venv/lib/python3.12/site-packages/paperbroker/market_data/kafka_client.py", line 424, in _process_message
    callback(instrument, quote)
  File "/home/a/Papertrae/main.py", line 367, in on_quote
    trader.run_strategy(quote.latest_matched_price)
  File "/home/a/Papertrae/main.py", line 173, in run_strategy
    upper, lower, atr, bb_pct, vol_spike = self.compute_indicators()
                                           ^^^^^^^^^^^^^^^^^^^^^^^^^
  File "/home/a/Papertrae/main.py", line 162, in compute_indicators
    vol_spike = vol[-1] > vol[-20:].mean()
                ~~~^^^^
IndexError: index -1 is out of bounds for axis 0 with size 0
[2026-04-01 08:50:33] [ERROR] Callback error for HNXDS:VN30F2604: index -1 is out of bounds for axis 0 with size 0
Traceback (most recent call last):
  File "/home/a/Papertrae/venv/lib/python3.12/site-packages/paperbroker/market_data/kafka_client.py", line 424, in _process_message
    callback(instrument, quote)
  File "/home/a/Papertrae/main.py", line 367, in on_quote
    trader.run_strategy(quote.latest_matched_price)
  File "/home/a/Papertrae/main.py", line 173, in run_strategy
    upper, lower, atr, bb_pct, vol_spike = self.compute_indicators()
                                           ^^^^^^^^^^^^^^^^^^^^^^^^^
  File "/home/a/Papertrae/main.py", line 162, in compute_indicators
    vol_spike = vol[-1] > vol[-20:].mean()
                ~~~^^^^
IndexError: index -1 is out of bounds for axis 0 with size 0
[2026-04-01 08:50:33] [ERROR] Callback error for HNXDS:VN30F2604: index -1 is out of bounds for axis 0 with size 0
Traceback (most recent call last):
  File "/home/a/Papertrae/venv/lib/python3.12/site-packages/paperbroker/market_data/kafka_client.py", line 424, in _process_message
    callback(instrument, quote)
  File "/home/a/Papertrae/main.py", line 367, in on_quote
    trader.run_strategy(quote.latest_matched_price)
  File "/home/a/Papertrae/main.py", line 173, in run_strategy
    upper, lower, atr, bb_pct, vol_spike = self.compute_indicators()
                                           ^^^^^^^^^^^^^^^^^^^^^^^^^
  File "/home/a/Papertrae/main.py", line 162, in compute_indicators
    vol_spike = vol[-1] > vol[-20:].mean()
                ~~~^^^^
IndexError: index -1 is out of bounds for axis 0 with size 0
[2026-04-01 08:50:35] [ERROR] Callback error for HNXDS:VN30F2604: index -1 is out of bounds for axis 0 with size 0
Traceback (most recent call last):
  File "/home/a/Papertrae/venv/lib/python3.12/site-packages/paperbroker/market_data/kafka_client.py", line 424, in _process_message
    callback(instrument, quote)
  File "/home/a/Papertrae/main.py", line 367, in on_quote
    trader.run_strategy(quote.latest_matched_price)
  File "/home/a/Papertrae/main.py", line 173, in run_strategy
    upper, lower, atr, bb_pct, vol_spike = self.compute_indicators()
                                           ^^^^^^^^^^^^^^^^^^^^^^^^^
  File "/home/a/Papertrae/main.py", line 162, in compute_indicators
    vol_spike = vol[-1] > vol[-20:].mean()
                ~~~^^^^
IndexError: index -1 is out of bounds for axis 0 with size 0
[2026-04-01 08:50:39] [ERROR] Callback error for HNXDS:VN30F2604: index -1 is out of bounds for axis 0 with size 0
Traceback (most recent call last):
  File "/home/a/Papertrae/venv/lib/python3.12/site-packages/paperbroker/market_data/kafka_client.py", line 424, in _process_message
    callback(instrument, quote)
  File "/home/a/Papertrae/main.py", line 367, in on_quote
    trader.run_strategy(quote.latest_matched_price)
  File "/home/a/Papertrae/main.py", line 173, in run_strategy
    upper, lower, atr, bb_pct, vol_spike = self.compute_indicators()
                                           ^^^^^^^^^^^^^^^^^^^^^^^^^
  File "/home/a/Papertrae/main.py", line 162, in compute_indicators
    vol_spike = vol[-1] > vol[-20:].mean()
                ~~~^^^^
IndexError: index -1 is out of bounds for axis 0 with size 0
[2026-04-01 08:50:39] [ERROR] Callback error for HNXDS:VN30F2604: index -1 is out of bounds for axis 0 with size 0
Traceback (most recent call last):
  File "/home/a/Papertrae/venv/lib/python3.12/site-packages/paperbroker/market_data/kafka_client.py", line 424, in _process_message
    callback(instrument, quote)
  File "/home/a/Papertrae/main.py", line 367, in on_quote
    trader.run_strategy(quote.latest_matched_price)
  File "/home/a/Papertrae/main.py", line 173, in run_strategy
    upper, lower, atr, bb_pct, vol_spike = self.compute_indicators()
                                           ^^^^^^^^^^^^^^^^^^^^^^^^^
  File "/home/a/Papertrae/main.py", line 162, in compute_indicators
    vol_spike = vol[-1] > vol[-20:].mean()
                ~~~^^^^
IndexError: index -1 is out of bounds for axis 0 with size 0
[2026-04-01 08:50:40] [ERROR] Callback error for HNXDS:VN30F2604: index -1 is out of bounds for axis 0 with size 0
Traceback (most recent call last):
  File "/home/a/Papertrae/venv/lib/python3.12/site-packages/paperbroker/market_data/kafka_client.py", line 424, in _process_message
