[2026-05-05 09:55:20] [DEBUG] [TO ADMIN] 8=FIX.4.4|9=101|35=5|34=16|49=0c6ba5672f96498abe52990b491f002c|52=20260505-02:55:20.094|56=SERVER|1=main|553=Group16|10=216|
[2026-05-05 09:55:20] [INFO] Session created: FIX.4.4:0c6ba5672f96498abe52990b491f002c->SERVER
[2026-05-05 09:55:20] [DEBUG] FIXSessionManager initialized config=/tmp/paperbroker_hef55myv.cfg username=Group16
[2026-05-05 09:55:20] [DEBUG] RestSession initialized with base_url: https://papertrade.algotrade.vn/accounting
[2026-05-05 09:55:20] [DEBUG] Registered handler for event 'fix:logon'. Total handlers: 1
[2026-05-05 09:55:20] [DEBUG] Registered handler for event 'fix:order:accepted'. Total handlers: 2
[2026-05-05 09:55:20] [DEBUG] Registered handler for event 'fix:order:filled'. Total handlers: 3
[2026-05-05 09:55:20] [INFO] Starting FIX session...
[2026-05-05 09:55:20] [DEBUG] POST https://papertrade.algotrade.vn/accounting/api/fix-account-info/get-fix-id payload_keys=['username', 'password']
[2026-05-05 09:55:20] [DEBUG] [TO ADMIN] 8=FIX.4.4|9=135|35=A|34=1|49=0c6ba5672f96498abe52990b491f002c|52=20260505-02:55:20.626|56=SERVER|1=main|98=0|108=30|141=Y|553=Group16|554=CqNO5I7KfygR|10=193|
[2026-05-05 09:55:21] [DEBUG] POST https://papertrade.algotrade.vn/accounting/api/fix-account-info/get-fix-id succeeded status_code=200
[2026-05-05 09:55:21] [INFO] event=fix_id_resolved username=Group16 fixAccountID=95bf1129dd2c4e4a96720ec3bfdceb06
[2026-05-05 09:55:21] [DEBUG] [FROM ADMIN] 8=FIX.4.4|9=99|35=A|34=1|49=SERVER|52=20260505-02:55:21.129|56=0c6ba5672f96498abe52990b491f002c|98=0|108=30|141=Y|10=113|
[2026-05-05 09:55:21] [INFO] Logon success: FIX.4.4:0c6ba5672f96498abe52990b491f002c->SERVER
[2026-05-05 09:55:21] [INFO] Initialized KafkaMarketDataClient: 52.77.119.94:9092, merge_updates=True
[2026-05-05 09:55:21] [INFO] Order manager session set: FIX.4.4:0c6ba5672f96498abe52990b491f002c->SERVER
[2026-05-05 09:55:21] [INFO] Subscribed to HNXDS:VN30F2605 (topic: real.HNXDS.VN30F2605)
[2026-05-05 09:55:21] [DEBUG] Emitting event 'fix:logon' to 1 handler(s)
[2026-05-05 09:55:21] [INFO] Starting Kafka consumer for topics: ['real.HNXDS.VN30F2605']
[2026-05-05 09:55:21] [INFO] Kafka consumer thread started
[2026-05-05 09:55:21] [INFO] Kafka consumer started
[2026-05-05 09:55:50] [DEBUG] [TO ADMIN] 8=FIX.4.4|9=100|35=0|34=2|49=0c6ba5672f96498abe52990b491f002c|52=20260505-02:55:50.589|56=SERVER|1=main|553=Group16|10=169|
[2026-05-05 09:55:51] [DEBUG] [FROM ADMIN] 8=FIX.4.4|9=81|35=0|34=2|49=SERVER|52=20260505-02:55:51.326|56=0c6ba5672f96498abe52990b491f002c|10=020|
[2026-05-05 09:56:20] [DEBUG] [TO ADMIN] 8=FIX.4.4|9=100|35=0|34=3|49=0c6ba5672f96498abe52990b491f002c|52=20260505-02:56:20.508|56=SERVER|1=main|553=Group16|10=159|
[2026-05-05 09:56:21] [DEBUG] [FROM ADMIN] 8=FIX.4.4|9=81|35=0|34=3|49=SERVER|52=20260505-02:56:21.325|56=0c6ba5672f96498abe52990b491f002c|10=018|
[2026-05-05 09:56:50] [DEBUG] [TO ADMIN] 8=FIX.4.4|9=100|35=0|34=4|49=0c6ba5672f96498abe52990b491f002c|52=20260505-02:56:50.013|56=SERVER|1=main|553=Group16|10=154|
[2026-05-05 09:56:51] [DEBUG] [FROM ADMIN] 8=FIX.4.4|9=81|35=0|34=4|49=SERVER|52=20260505-02:56:51.326|56=0c6ba5672f96498abe52990b491f002c|10=023|
[2026-05-05 09:57:20] [DEBUG] [TO ADMIN] 8=FIX.4.4|9=100|35=0|34=5|49=0c6ba5672f96498abe52990b491f002c|52=20260505-02:57:20.083|56=SERVER|1=main|553=Group16|10=160|
[2026-05-05 09:57:21] [DEBUG] [FROM ADMIN] 8=FIX.4.4|9=81|35=0|34=5|49=SERVER|52=20260505-02:57:21.326|56=0c6ba5672f96498abe52990b491f002c|10=022|
[2026-05-05 09:57:50] [DEBUG] [TO ADMIN] 8=FIX.4.4|9=100|35=0|34=6|49=0c6ba5672f96498abe52990b491f002c|52=20260505-02:57:50.097|56=SERVER|1=main|553=Group16|10=169|
[2026-05-05 09:57:51] [DEBUG] [FROM ADMIN] 8=FIX.4.4|9=81|35=0|34=6|49=SERVER|52=20260505-02:57:51.325|56=0c6ba5672f96498abe52990b491f002c|10=025|
[2026-05-05 09:58:20] [DEBUG] [TO ADMIN] 8=FIX.4.4|9=100|35=0|34=7|49=0c6ba5672f96498abe52990b491f002c|52=20260505-02:58:20.131|56=SERVER|1=main|553=Group16|10=157|
[2026-05-05 09:58:21] [DEBUG] [FROM ADMIN] 8=FIX.4.4|9=81|35=0|34=7|49=SERVER|52=20260505-02:58:21.325|56=0c6ba5672f96498abe52990b491f002c|10=024|
[2026-05-05 09:58:50] [DEBUG] [TO ADMIN] 8=FIX.4.4|9=100|35=0|34=8|49=0c6ba5672f96498abe52990b491f002c|52=20260505-02:58:50.130|56=SERVER|1=main|553=Group16|10=160|
[2026-05-05 09:58:51] [DEBUG] [FROM ADMIN] 8=FIX.4.4|9=81|35=0|34=8|49=SERVER|52=20260505-02:58:51.325|56=0c6ba5672f96498abe52990b491f002c|10=028|
[2026-05-05 09:59:20] [DEBUG] [TO ADMIN] 8=FIX.4.4|9=100|35=0|34=9|49=0c6ba5672f96498abe52990b491f002c|52=20260505-02:59:20.872|56=SERVER|1=main|553=Group16|10=172|
[2026-05-05 09:59:21] [DEBUG] [FROM ADMIN] 8=FIX.4.4|9=81|35=0|34=9|49=SERVER|52=20260505-02:59:21.325|56=0c6ba5672f96498abe52990b491f002c|10=027|
[2026-05-05 09:59:50] [DEBUG] [TO ADMIN] 8=FIX.4.4|9=101|35=0|34=10|49=0c6ba5672f96498abe52990b491f002c|52=20260505-02:59:50.547|56=SERVER|1=main|553=Group16|10=215|
[2026-05-05 09:59:51] [DEBUG] [FROM ADMIN] 8=FIX.4.4|9=82|35=0|34=10|49=SERVER|52=20260505-02:59:51.325|56=0c6ba5672f96498abe52990b491f002c|10=071|
[2026-05-05 10:00:20] [DEBUG] [TO ADMIN] 8=FIX.4.4|9=101|35=0|34=11|49=0c6ba5672f96498abe52990b491f002c|52=20260505-03:00:20.081|56=SERVER|1=main|553=Group16|10=193|
[2026-05-05 10:00:21] [DEBUG] [FROM ADMIN] 8=FIX.4.4|9=82|35=0|34=11|49=SERVER|52=20260505-03:00:21.325|56=0c6ba5672f96498abe52990b491f002c|10=056|
[2026-05-05 10:00:50] [DEBUG] [TO ADMIN] 8=FIX.4.4|9=101|35=0|34=12|49=0c6ba5672f96498abe52990b491f002c|52=20260505-03:00:50.357|56=SERVER|1=main|553=Group16|10=203|
[2026-05-05 10:00:51] [DEBUG] [FROM ADMIN] 8=FIX.4.4|9=82|35=0|34=12|49=SERVER|52=20260505-03:00:51.325|56=0c6ba5672f96498abe52990b491f002c|10=060|
[2026-05-05 10:01:20] [DEBUG] [TO ADMIN] 8=FIX.4.4|9=101|35=0|34=13|49=0c6ba5672f96498abe52990b491f002c|52=20260505-03:01:20.244|56=SERVER|1=main|553=Group16|10=197|
[2026-05-05 10:01:21] [DEBUG] [FROM ADMIN] 8=FIX.4.4|9=82|35=0|34=13|49=SERVER|52=20260505-03:01:21.325|56=0c6ba5672f96498abe52990b491f002c|10=059|
[2026-05-05 10:01:50] [DEBUG] [TO ADMIN] 8=FIX.4.4|9=101|35=0|34=14|49=0c6ba5672f96498abe52990b491f002c|52=20260505-03:01:50.282|56=SERVER|1=main|553=Group16|10=203|
[2026-05-05 10:01:51] [DEBUG] [FROM ADMIN] 8=FIX.4.4|9=82|35=0|34=14|49=SERVER|52=20260505-03:01:51.325|56=0c6ba5672f96498abe52990b491f002c|10=063|
[2026-05-05 10:02:20] [DEBUG] [TO ADMIN] 8=FIX.4.4|9=101|35=0|34=15|49=0c6ba5672f96498abe52990b491f002c|52=20260505-03:02:20.027|56=SERVER|1=main|553=Group16|10=199|
[2026-05-05 10:02:21] [DEBUG] [FROM ADMIN] 8=FIX.4.4|9=82|35=0|34=15|49=SERVER|52=20260505-03:02:21.325|56=0c6ba5672f96498abe52990b491f002c|10=062|
[2026-05-05 10:02:50] [DEBUG] [TO ADMIN] 8=FIX.4.4|9=101|35=0|34=16|49=0c6ba5672f96498abe52990b491f002c|52=20260505-03:02:50.029|56=SERVER|1=main|553=Group16|10=205|
[2026-05-05 10:02:51] [DEBUG] [FROM ADMIN] 8=FIX.4.4|9=82|35=0|34=16|49=SERVER|52=20260505-03:02:51.326|56=0c6ba5672f96498abe52990b491f002c|10=067|
[2026-05-05 10:03:20] [DEBUG] [TO ADMIN] 8=FIX.4.4|9=101|35=0|34=17|49=0c6ba5672f96498abe52990b491f002c|52=20260505-03:03:20.638|56=SERVER|1=main|553=Group16|10=210|
[2026-05-05 10:03:21] [DEBUG] [FROM ADMIN] 8=FIX.4.4|9=82|35=0|34=17|49=SERVER|52=20260505-03:03:21.325|56=0c6ba5672f96498abe52990b491f002c|10=065|
[2026-05-05 10:03:50] [DEBUG] [TO ADMIN] 8=FIX.4.4|9=101|35=0|34=18|49=0c6ba5672f96498abe52990b491f002c|52=20260505-03:03:50.520|56=SERVER|1=main|553=Group16|10=204|
[2026-05-05 10:03:51] [DEBUG] [FROM ADMIN] 8=FIX.4.4|9=82|35=0|34=18|49=SERVER|52=20260505-03:03:51.325|56=0c6ba5672f96498abe52990b491f002c|10=069|
[2026-05-05 10:04:20] [DEBUG] [TO ADMIN] 8=FIX.4.4|9=101|35=0|34=19|49=0c6ba5672f96498abe52990b491f002c|52=20260505-03:04:20.374|56=SERVER|1=main|553=Group16|10=210|
[2026-05-05 10:04:21] [DEBUG] [FROM ADMIN] 8=FIX.4.4|9=82|35=0|34=19|49=SERVER|52=20260505-03:04:21.325|56=0c6ba5672f96498abe52990b491f002c|10=068|
[2026-05-05 10:04:50] [DEBUG] [TO ADMIN] 8=FIX.4.4|9=101|35=0|34=20|49=0c6ba5672f96498abe52990b491f002c|52=20260505-03:04:50.241|56=SERVER|1=main|553=Group16|10=198|
[2026-05-05 10:04:51] [DEBUG] [FROM ADMIN] 8=FIX.4.4|9=82|35=0|34=20|49=SERVER|52=20260505-03:04:51.326|56=0c6ba5672f96498abe52990b491f002c|10=064|
[2026-05-05 10:05:20] [DEBUG] [TO ADMIN] 8=FIX.4.4|9=101|35=0|34=21|49=0c6ba5672f96498abe52990b491f002c|52=20260505-03:05:20.004|56=SERVER|1=main|553=Group16|10=194|
[2026-05-05 10:05:21] [DEBUG] [FROM ADMIN] 8=FIX.4.4|9=82|35=0|34=21|49=SERVER|52=20260505-03:05:21.325|56=0c6ba5672f96498abe52990b491f002c|10=062|
[2026-05-05 10:05:50] [DEBUG] [TO ADMIN] 8=FIX.4.4|9=101|35=0|34=22|49=0c6ba5672f96498abe52990b491f002c|52=20260505-03:05:50.041|56=SERVER|1=main|553=Group16|10=199|
[2026-05-05 10:05:51] [DEBUG] [FROM ADMIN] 8=FIX.4.4|9=82|35=0|34=22|49=SERVER|52=20260505-03:05:51.325|56=0c6ba5672f96498abe52990b491f002c|10=066|
[2026-05-05 10:06:20] [DEBUG] [TO ADMIN] 8=FIX.4.4|9=101|35=0|34=23|49=0c6ba5672f96498abe52990b491f002c|52=20260505-03:06:20.004|56=SERVER|1=main|553=Group16|10=197|
[2026-05-05 10:06:21] [DEBUG] [FROM ADMIN] 8=FIX.4.4|9=82|35=0|34=23|49=SERVER|52=20260505-03:06:21.325|56=0c6ba5672f96498abe52990b491f002c|10=065|
[2026-05-05 10:06:50] [DEBUG] [TO ADMIN] 8=FIX.4.4|9=101|35=0|34=24|49=0c6ba5672f96498abe52990b491f002c|52=20260505-03:06:50.695|56=SERVER|1=main|553=Group16|10=217|
[2026-05-05 10:06:51] [DEBUG] [FROM ADMIN] 8=FIX.4.4|9=82|35=0|34=24|49=SERVER|52=20260505-03:06:51.326|56=0c6ba5672f96498abe52990b491f002c|10=070|
[2026-05-05 10:07:20] [DEBUG] [TO ADMIN] 8=FIX.4.4|9=101|35=0|34=25|49=0c6ba5672f96498abe52990b491f002c|52=20260505-03:07:20.092|56=SERVER|1=main|553=Group16|10=207|
[2026-05-05 10:07:21] [DEBUG] [FROM ADMIN] 8=FIX.4.4|9=82|35=0|34=25|49=SERVER|52=20260505-03:07:21.325|56=0c6ba5672f96498abe52990b491f002c|10=068|
[2026-05-05 10:07:50] [DEBUG] [TO ADMIN] 8=FIX.4.4|9=101|35=0|34=26|49=0c6ba5672f96498abe52990b491f002c|52=20260505-03:07:50.418|56=SERVER|1=main|553=Group16|10=213|
[2026-05-05 10:07:51] [DEBUG] [FROM ADMIN] 8=FIX.4.4|9=82|35=0|34=26|49=SERVER|52=20260505-03:07:51.325|56=0c6ba5672f96498abe52990b491f002c|10=072|
[2026-05-05 10:08:20] [DEBUG] [TO ADMIN] 8=FIX.4.4|9=101|35=0|34=27|49=0c6ba5672f96498abe52990b491f002c|52=20260505-03:08:20.186|56=SERVER|1=main|553=Group16|10=214|
[2026-05-05 10:08:21] [DEBUG] [FROM ADMIN] 8=FIX.4.4|9=82|35=0|34=27|49=SERVER|52=20260505-03:08:21.325|56=0c6ba5672f96498abe52990b491f002c|10=071|
[2026-05-05 10:08:50] [DEBUG] [TO ADMIN] 8=FIX.4.4|9=101|35=0|34=28|49=0c6ba5672f96498abe52990b491f002c|52=20260505-03:08:50.056|56=SERVER|1=main|553=Group16|10=214|
[2026-05-05 10:08:51] [DEBUG] [FROM ADMIN] 8=FIX.4.4|9=82|35=0|34=28|49=SERVER|52=20260505-03:08:51.325|56=0c6ba5672f96498abe52990b491f002c|10=075|
[2026-05-05 10:09:20] [DEBUG] [TO ADMIN] 8=FIX.4.4|9=101|35=0|34=29|49=0c6ba5672f96498abe52990b491f002c|52=20260505-03:09:20.043|56=SERVER|1=main|553=Group16|10=209|
[2026-05-05 10:09:21] [DEBUG] [FROM ADMIN] 8=FIX.4.4|9=82|35=0|34=29|49=SERVER|52=20260505-03:09:21.325|56=0c6ba5672f96498abe52990b491f002c|10=074|
[2026-05-05 10:09:50] [DEBUG] [TO ADMIN] 8=FIX.4.4|9=101|35=0|34=30|49=0c6ba5672f96498abe52990b491f002c|52=20260505-03:09:50.279|56=SERVER|1=main|553=Group16|10=215|
[2026-05-05 10:09:51] [DEBUG] [FROM ADMIN] 8=FIX.4.4|9=82|35=0|34=30|49=SERVER|52=20260505-03:09:51.325|56=0c6ba5672f96498abe52990b491f002c|10=069|
[2026-05-05 10:10:20] [DEBUG] [TO ADMIN] 8=FIX.4.4|9=101|35=0|34=31|49=0c6ba5672f96498abe52990b491f002c|52=20260505-03:10:20.327|56=SERVER|1=main|553=Group16|10=199|
[2026-05-05 10:10:21] [DEBUG] [FROM ADMIN] 8=FIX.4.4|9=82|35=0|34=31|49=SERVER|52=20260505-03:10:21.325|56=0c6ba5672f96498abe52990b491f002c|10=059|
[2026-05-05 10:10:50] [DEBUG] [TO ADMIN] 8=FIX.4.4|9=101|35=0|34=32|49=0c6ba5672f96498abe52990b491f002c|52=20260505-03:10:50.012|56=SERVER|1=main|553=Group16|10=194|
[2026-05-05 10:10:51] [DEBUG] [FROM ADMIN] 8=FIX.4.4|9=82|35=0|34=32|49=SERVER|52=20260505-03:10:51.326|56=0c6ba5672f96498abe52990b491f002c|10=064|
[2026-05-05 10:11:20] [DEBUG] [TO ADMIN] 8=FIX.4.4|9=101|35=0|34=33|49=0c6ba5672f96498abe52990b491f002c|52=20260505-03:11:20.323|56=SERVER|1=main|553=Group16|10=198|
[2026-05-05 10:11:21] [DEBUG] [FROM ADMIN] 8=FIX.4.4|9=82|35=0|34=33|49=SERVER|52=20260505-03:11:21.325|56=0c6ba5672f96498abe52990b491f002c|10=062|
[2026-05-05 10:11:50] [DEBUG] [TO ADMIN] 8=FIX.4.4|9=101|35=0|34=34|49=0c6ba5672f96498abe52990b491f002c|52=20260505-03:11:50.179|56=SERVER|1=main|553=Group16|10=211|
[2026-05-05 10:11:51] [DEBUG] [FROM ADMIN] 8=FIX.4.4|9=82|35=0|34=34|49=SERVER|52=20260505-03:11:51.326|56=0c6ba5672f96498abe52990b491f002c|10=067|
[2026-05-05 10:12:20] [DEBUG] [TO ADMIN] 8=FIX.4.4|9=101|35=0|34=35|49=0c6ba5672f96498abe52990b491f002c|52=20260505-03:12:20.041|56=SERVER|1=main|553=Group16|10=198|
[2026-05-05 10:12:21] [DEBUG] [FROM ADMIN] 8=FIX.4.4|9=82|35=0|34=35|49=SERVER|52=20260505-03:12:21.326|56=0c6ba5672f96498abe52990b491f002c|10=066|
[2026-05-05 10:12:50] [DEBUG] [TO ADMIN] 8=FIX.4.4|9=101|35=0|34=36|49=0c6ba5672f96498abe52990b491f002c|52=20260505-03:12:50.238|56=SERVER|1=main|553=Group16|10=210|
[2026-05-05 10:12:51] [DEBUG] [FROM ADMIN] 8=FIX.4.4|9=82|35=0|34=36|49=SERVER|52=20260505-03:12:51.330|56=0c6ba5672f96498abe52990b491f002c|10=065|
[2026-05-05 10:13:20] [DEBUG] [TO ADMIN] 8=FIX.4.4|9=101|35=0|34=37|49=0c6ba5672f96498abe52990b491f002c|52=20260505-03:13:20.167|56=SERVER|1=main|553=Group16|10=210|
[2026-05-05 10:13:21] [DEBUG] [FROM ADMIN] 8=FIX.4.4|9=82|35=0|34=37|49=SERVER|52=20260505-03:13:21.326|56=0c6ba5672f96498abe52990b491f002c|10=069|
[2026-05-05 10:13:50] [DEBUG] [TO ADMIN] 8=FIX.4.4|9=101|35=0|34=38|49=0c6ba5672f96498abe52990b491f002c|52=20260505-03:13:50.291|56=SERVER|1=main|553=Group16|10=212|
[2026-05-05 10:13:51] [DEBUG] [FROM ADMIN] 8=FIX.4.4|9=82|35=0|34=38|49=SERVER|52=20260505-03:13:51.325|56=0c6ba5672f96498abe52990b491f002c|10=072|
[2026-05-05 10:14:20] [DEBUG] [TO ADMIN] 8=FIX.4.4|9=101|35=0|34=39|49=0c6ba5672f96498abe52990b491f002c|52=20260505-03:14:20.152|56=SERVER|1=main|553=Group16|10=207|
[2026-05-05 10:14:21] [DEBUG] [FROM ADMIN] 8=FIX.4.4|9=82|35=0|34=39|49=SERVER|52=20260505-03:14:21.326|56=0c6ba5672f96498abe52990b491f002c|10=072|
[2026-05-05 10:14:50] [DEBUG] [TO ADMIN] 8=FIX.4.4|9=101|35=0|34=40|49=0c6ba5672f96498abe52990b491f002c|52=20260505-03:14:50.050|56=SERVER|1=main|553=Group16|10=199|
[2026-05-05 10:14:51] [DEBUG] [FROM ADMIN] 8=FIX.4.4|9=82|35=0|34=40|49=SERVER|52=20260505-03:14:51.325|56=0c6ba5672f96498abe52990b491f002c|10=066|
[2026-05-05 10:15:20] [DEBUG] [TO ADMIN] 8=FIX.4.4|9=101|35=0|34=41|49=0c6ba5672f96498abe52990b491f002c|52=20260505-03:15:20.044|56=SERVER|1=main|553=Group16|10=201|
[2026-05-05 10:15:21] [DEBUG] [FROM ADMIN] 8=FIX.4.4|9=82|35=0|34=41|49=SERVER|52=20260505-03:15:21.325|56=0c6ba5672f96498abe52990b491f002c|10=065|
[2026-05-05 10:15:50] [DEBUG] [TO ADMIN] 8=FIX.4.4|9=101|35=0|34=42|49=0c6ba5672f96498abe52990b491f002c|52=20260505-03:15:50.020|56=SERVER|1=main|553=Group16|10=199|
[2026-05-05 10:15:51] [DEBUG] [FROM ADMIN] 8=FIX.4.4|9=82|35=0|34=42|49=SERVER|52=20260505-03:15:51.326|56=0c6ba5672f96498abe52990b491f002c|10=070|
[2026-05-05 10:16:20] [DEBUG] [TO ADMIN] 8=FIX.4.4|9=101|35=0|34=43|49=0c6ba5672f96498abe52990b491f002c|52=20260505-03:16:20.577|56=SERVER|1=main|553=Group16|10=215|
[2026-05-05 10:16:21] [DEBUG] [FROM ADMIN] 8=FIX.4.4|9=82|35=0|34=43|49=SERVER|52=20260505-03:16:21.326|56=0c6ba5672f96498abe52990b491f002c|10=069|
[2026-05-05 10:16:50] [DEBUG] [TO ADMIN] 8=FIX.4.4|9=101|35=0|34=44|49=0c6ba5672f96498abe52990b491f002c|52=20260505-03:16:50.530|56=SERVER|1=main|553=Group16|10=208|
[2026-05-05 10:16:51] [DEBUG] [FROM ADMIN] 8=FIX.4.4|9=82|35=0|34=44|49=SERVER|52=20260505-03:16:51.326|56=0c6ba5672f96498abe52990b491f002c|10=073|
[2026-05-05 10:17:20] [DEBUG] [TO ADMIN] 8=FIX.4.4|9=101|35=0|34=45|49=0c6ba5672f96498abe52990b491f002c|52=20260505-03:17:20.291|56=SERVER|1=main|553=Group16|10=211|
[2026-05-05 10:17:21] [DEBUG] [FROM ADMIN] 8=FIX.4.4|9=82|35=0|34=45|49=SERVER|52=20260505-03:17:21.328|56=0c6ba5672f96498abe52990b491f002c|10=074|
[2026-05-05 10:17:50] [DEBUG] [TO ADMIN] 8=FIX.4.4|9=101|35=0|34=46|49=0c6ba5672f96498abe52990b491f002c|52=20260505-03:17:50.163|56=SERVER|1=main|553=Group16|10=213|
[2026-05-05 10:17:51] [DEBUG] [FROM ADMIN] 8=FIX.4.4|9=82|35=0|34=46|49=SERVER|52=20260505-03:17:51.325|56=0c6ba5672f96498abe52990b491f002c|10=075|
[2026-05-05 10:18:20] [DEBUG] [TO ADMIN] 8=FIX.4.4|9=101|35=0|34=47|49=0c6ba5672f96498abe52990b491f002c|52=20260505-03:18:20.093|56=SERVER|1=main|553=Group16|10=214|
[2026-05-05 10:18:21] [DEBUG] [FROM ADMIN] 8=FIX.4.4|9=82|35=0|34=47|49=SERVER|52=20260505-03:18:21.325|56=0c6ba5672f96498abe52990b491f002c|10=074|
[2026-05-05 10:18:50] [DEBUG] [TO ADMIN] 8=FIX.4.4|9=101|35=0|34=48|49=0c6ba5672f96498abe52990b491f002c|52=20260505-03:18:50.033|56=SERVER|1=main|553=Group16|10=212|
[2026-05-05 10:18:51] [DEBUG] [FROM ADMIN] 8=FIX.4.4|9=82|35=0|34=48|49=SERVER|52=20260505-03:18:51.326|56=0c6ba5672f96498abe52990b491f002c|10=079|
[2026-05-05 10:19:20] [DEBUG] [TO ADMIN] 8=FIX.4.4|9=101|35=0|34=49|49=0c6ba5672f96498abe52990b491f002c|52=20260505-03:19:20.041|56=SERVER|1=main|553=Group16|10=210|
[2026-05-05 10:19:21] [DEBUG] [FROM ADMIN] 8=FIX.4.4|9=82|35=0|34=49|49=SERVER|52=20260505-03:19:21.326|56=0c6ba5672f96498abe52990b491f002c|10=078|
[2026-05-05 10:19:50] [DEBUG] [TO ADMIN] 8=FIX.4.4|9=101|35=0|34=50|49=0c6ba5672f96498abe52990b491f002c|52=20260505-03:19:50.339|56=SERVER|1=main|553=Group16|10=215|
[2026-05-05 10:19:51] [DEBUG] [FROM ADMIN] 8=FIX.4.4|9=82|35=0|34=50|49=SERVER|52=20260505-03:19:51.325|56=0c6ba5672f96498abe52990b491f002c|10=072|
[2026-05-05 10:20:20] [DEBUG] [TO ADMIN] 8=FIX.4.4|9=101|35=0|34=51|49=0c6ba5672f96498abe52990b491f002c|52=20260505-03:20:20.050|56=SERVER|1=main|553=Group16|10=195|
[2026-05-05 10:20:21] [DEBUG] [FROM ADMIN] 8=FIX.4.4|9=82|35=0|34=51|49=SERVER|52=20260505-03:20:21.325|56=0c6ba5672f96498abe52990b491f002c|10=062|
[2026-05-05 10:20:50] [DEBUG] [TO ADMIN] 8=FIX.4.4|9=101|35=0|34=52|49=0c6ba5672f96498abe52990b491f002c|52=20260505-03:20:50.047|56=SERVER|1=main|553=Group16|10=205|
[2026-05-05 10:20:51] [DEBUG] [FROM ADMIN] 8=FIX.4.4|9=82|35=0|34=52|49=SERVER|52=20260505-03:20:51.325|56=0c6ba5672f96498abe52990b491f002c|10=066|
[2026-05-05 10:21:20] [DEBUG] [TO ADMIN] 8=FIX.4.4|9=101|35=0|34=53|49=0c6ba5672f96498abe52990b491f002c|52=20260505-03:21:20.263|56=SERVER|1=main|553=Group16|10=204|
[2026-05-05 10:21:21] [DEBUG] [FROM ADMIN] 8=FIX.4.4|9=82|35=0|34=53|49=SERVER|52=20260505-03:21:21.325|56=0c6ba5672f96498abe52990b491f002c|10=065|
[2026-05-05 10:21:50] [DEBUG] [TO ADMIN] 8=FIX.4.4|9=101|35=0|34=54|49=0c6ba5672f96498abe52990b491f002c|52=20260505-03:21:50.032|56=SERVER|1=main|553=Group16|10=202|
[2026-05-05 10:21:51] [DEBUG] [FROM ADMIN] 8=FIX.4.4|9=82|35=0|34=54|49=SERVER|52=20260505-03:21:51.326|56=0c6ba5672f96498abe52990b491f002c|10=070|
[2026-05-05 10:22:20] [DEBUG] [TO ADMIN] 8=FIX.4.4|9=101|35=0|34=55|49=0c6ba5672f96498abe52990b491f002c|52=20260505-03:22:20.037|56=SERVER|1=main|553=Group16|10=206|
[2026-05-05 10:22:21] [DEBUG] [FROM ADMIN] 8=FIX.4.4|9=82|35=0|34=55|49=SERVER|52=20260505-03:22:21.325|56=0c6ba5672f96498abe52990b491f002c|10=068|
[2026-05-05 10:22:50] [DEBUG] [TO ADMIN] 8=FIX.4.4|9=101|35=0|34=56|49=0c6ba5672f96498abe52990b491f002c|52=20260505-03:22:50.257|56=SERVER|1=main|553=Group16|10=214|
[2026-05-05 10:22:51] [DEBUG] [FROM ADMIN] 8=FIX.4.4|9=82|35=0|34=56|49=SERVER|52=20260505-03:22:51.326|56=0c6ba5672f96498abe52990b491f002c|10=073|
[2026-05-05 10:23:20] [DEBUG] [TO ADMIN] 8=FIX.4.4|9=101|35=0|34=57|49=0c6ba5672f96498abe52990b491f002c|52=20260505-03:23:20.589|56=SERVER|1=main|553=Group16|10=221|
[2026-05-05 10:23:21] [DEBUG] [FROM ADMIN] 8=FIX.4.4|9=82|35=0|34=57|49=SERVER|52=20260505-03:23:21.325|56=0c6ba5672f96498abe52990b491f002c|10=071|
[2026-05-05 10:23:50] [DEBUG] [TO ADMIN] 8=FIX.4.4|9=101|35=0|34=58|49=0c6ba5672f96498abe52990b491f002c|52=20260505-03:23:50.254|56=SERVER|1=main|553=Group16|10=214|
[2026-05-05 10:23:51] [DEBUG] [FROM ADMIN] 8=FIX.4.4|9=82|35=0|34=58|49=SERVER|52=20260505-03:23:51.325|56=0c6ba5672f96498abe52990b491f002c|10=075|
[2026-05-05 10:24:20] [DEBUG] [TO ADMIN] 8=FIX.4.4|9=101|35=0|34=59|49=0c6ba5672f96498abe52990b491f002c|52=20260505-03:24:20.301|56=SERVER|1=main|553=Group16|10=206|
[2026-05-05 10:24:21] [DEBUG] [FROM ADMIN] 8=FIX.4.4|9=82|35=0|34=59|49=SERVER|52=20260505-03:24:21.325|56=0c6ba5672f96498abe52990b491f002c|10=074|
[2026-05-05 10:24:50] [DEBUG] [TO ADMIN] 8=FIX.4.4|9=101|35=0|34=60|49=0c6ba5672f96498abe52990b491f002c|52=20260505-03:24:50.294|56=SERVER|1=main|553=Group16|10=212|
[2026-05-05 10:24:51] [DEBUG] [FROM ADMIN] 8=FIX.4.4|9=82|35=0|34=60|49=SERVER|52=20260505-03:24:51.325|56=0c6ba5672f96498abe52990b491f002c|10=069|
[2026-05-05 10:25:20] [DEBUG] [TO ADMIN] 8=FIX.4.4|9=101|35=0|34=61|49=0c6ba5672f96498abe52990b491f002c|52=20260505-03:25:20.221|56=SERVER|1=main|553=Group16|10=201|
[2026-05-05 10:25:21] [DEBUG] [FROM ADMIN] 8=FIX.4.4|9=82|35=0|34=61|49=SERVER|52=20260505-03:25:21.325|56=0c6ba5672f96498abe52990b491f002c|10=068|
[2026-05-05 10:25:50] [DEBUG] [TO ADMIN] 8=FIX.4.4|9=101|35=0|34=62|49=0c6ba5672f96498abe52990b491f002c|52=20260505-03:25:50.084|56=SERVER|1=main|553=Group16|10=212|
[2026-05-05 10:25:51] [DEBUG] [FROM ADMIN] 8=FIX.4.4|9=82|35=0|34=62|49=SERVER|52=20260505-03:25:51.326|56=0c6ba5672f96498abe52990b491f002c|10=073|
[2026-05-05 10:26:20] [DEBUG] [TO ADMIN] 8=FIX.4.4|9=101|35=0|34=63|49=0c6ba5672f96498abe52990b491f002c|52=20260505-03:26:20.579|56=SERVER|1=main|553=Group16|10=220|
[2026-05-05 10:26:21] [DEBUG] [FROM ADMIN] 8=FIX.4.4|9=82|35=0|34=63|49=SERVER|52=20260505-03:26:21.325|56=0c6ba5672f96498abe52990b491f002c|10=071|
[2026-05-05 10:26:50] [DEBUG] [TO ADMIN] 8=FIX.4.4|9=101|35=0|34=64|49=0c6ba5672f96498abe52990b491f002c|52=20260505-03:26:50.514|56=SERVER|1=main|553=Group16|10=213|
[2026-05-05 10:26:51] [DEBUG] [FROM ADMIN] 8=FIX.4.4|9=82|35=0|34=64|49=SERVER|52=20260505-03:26:51.325|56=0c6ba5672f96498abe52990b491f002c|10=075|
[2026-05-05 10:27:20] [DEBUG] [TO ADMIN] 8=FIX.4.4|9=101|35=0|34=65|49=0c6ba5672f96498abe52990b491f002c|52=20260505-03:27:20.667|56=SERVER|1=main|553=Group16|10=221|
[2026-05-05 10:27:21] [DEBUG] [FROM ADMIN] 8=FIX.4.4|9=82|35=0|34=65|49=SERVER|52=20260505-03:27:21.326|56=0c6ba5672f96498abe52990b491f002c|10=075|
[2026-05-05 10:27:50] [DEBUG] [TO ADMIN] 8=FIX.4.4|9=101|35=0|34=66|49=0c6ba5672f96498abe52990b491f002c|52=20260505-03:27:50.014|56=SERVER|1=main|553=Group16|10=211|
[2026-05-05 10:27:51] [DEBUG] [FROM ADMIN] 8=FIX.4.4|9=82|35=0|34=66|49=SERVER|52=20260505-03:27:51.326|56=0c6ba5672f96498abe52990b491f002c|10=079|
[2026-05-05 10:28:20] [DEBUG] [TO ADMIN] 8=FIX.4.4|9=101|35=0|34=67|49=0c6ba5672f96498abe52990b491f002c|52=20260505-03:28:20.137|56=SERVER|1=main|553=Group16|10=216|
[2026-05-05 10:28:22] [DEBUG] [FROM ADMIN] 8=FIX.4.4|9=82|35=0|34=67|49=SERVER|52=20260505-03:28:21.325|56=0c6ba5672f96498abe52990b491f002c|10=077|
[2026-05-05 10:28:50] [DEBUG] [TO ADMIN] 8=FIX.4.4|9=101|35=0|34=68|49=0c6ba5672f96498abe52990b491f002c|52=20260505-03:28:50.160|56=SERVER|1=main|553=Group16|10=216|
[2026-05-05 10:28:51] [DEBUG] [FROM ADMIN] 8=FIX.4.4|9=82|35=0|34=68|49=SERVER|52=20260505-03:28:51.325|56=0c6ba5672f96498abe52990b491f002c|10=081|
[2026-05-05 10:29:20] [DEBUG] [TO ADMIN] 8=FIX.4.4|9=101|35=0|34=69|49=0c6ba5672f96498abe52990b491f002c|52=20260505-03:29:20.061|56=SERVER|1=main|553=Group16|10=215|
[2026-05-05 10:29:21] [DEBUG] [FROM ADMIN] 8=FIX.4.4|9=82|35=0|34=69|49=SERVER|52=20260505-03:29:21.325|56=0c6ba5672f96498abe52990b491f002c|10=080|
[2026-05-05 10:29:50] [DEBUG] [TO ADMIN] 8=FIX.4.4|9=101|35=0|34=70|49=0c6ba5672f96498abe52990b491f002c|52=20260505-03:29:50.148|56=SERVER|1=main|553=Group16|10=216|
[2026-05-05 10:29:51] [DEBUG] [FROM ADMIN] 8=FIX.4.4|9=82|35=0|34=70|49=SERVER|52=20260505-03:29:51.325|56=0c6ba5672f96498abe52990b491f002c|10=075|
[2026-05-05 10:30:20] [DEBUG] [TO ADMIN] 8=FIX.4.4|9=101|35=0|34=71|49=0c6ba5672f96498abe52990b491f002c|52=20260505-03:30:20.088|56=SERVER|1=main|553=Group16|10=209|
[2026-05-05 10:30:21] [DEBUG] [FROM ADMIN] 8=FIX.4.4|9=82|35=0|34=71|49=SERVER|52=20260505-03:30:21.325|56=0c6ba5672f96498abe52990b491f002c|10=065|
[2026-05-05 10:30:50] [DEBUG] [TO ADMIN] 8=FIX.4.4|9=101|35=0|34=72|49=0c6ba5672f96498abe52990b491f002c|52=20260505-03:30:50.733|56=SERVER|1=main|553=Group16|10=210|
[2026-05-05 10:30:51] [DEBUG] [FROM ADMIN] 8=FIX.4.4|9=82|35=0|34=72|49=SERVER|52=20260505-03:30:51.325|56=0c6ba5672f96498abe52990b491f002c|10=069|
[2026-05-05 10:31:20] [DEBUG] [TO ADMIN] 8=FIX.4.4|9=101|35=0|34=73|49=0c6ba5672f96498abe52990b491f002c|52=20260505-03:31:20.005|56=SERVER|1=main|553=Group16|10=201|
[2026-05-05 10:31:21] [DEBUG] [FROM ADMIN] 8=FIX.4.4|9=82|35=0|34=73|49=SERVER|52=20260505-03:31:21.325|56=0c6ba5672f96498abe52990b491f002c|10=068|
[2026-05-05 10:31:50] [DEBUG] [TO ADMIN] 8=FIX.4.4|9=101|35=0|34=74|49=0c6ba5672f96498abe52990b491f002c|52=20260505-03:31:50.333|56=SERVER|1=main|553=Group16|10=209|
[2026-05-05 10:31:51] [DEBUG] [FROM ADMIN] 8=FIX.4.4|9=82|35=0|34=74|49=SERVER|52=20260505-03:31:51.325|56=0c6ba5672f96498abe52990b491f002c|10=072|
[2026-05-05 10:32:20] [DEBUG] [TO ADMIN] 8=FIX.4.4|9=101|35=0|34=75|49=0c6ba5672f96498abe52990b491f002c|52=20260505-03:32:20.102|56=SERVER|1=main|553=Group16|10=202|
[2026-05-05 10:32:21] [DEBUG] [FROM ADMIN] 8=FIX.4.4|9=82|35=0|34=75|49=SERVER|52=20260505-03:32:21.326|56=0c6ba5672f96498abe52990b491f002c|10=072|
[2026-05-05 10:32:50] [DEBUG] [TO ADMIN] 8=FIX.4.4|9=101|35=0|34=76|49=0c6ba5672f96498abe52990b491f002c|52=20260505-03:32:50.037|56=SERVER|1=main|553=Group16|10=213|
[2026-05-05 10:32:51] [DEBUG] [FROM ADMIN] 8=FIX.4.4|9=82|35=0|34=76|49=SERVER|52=20260505-03:32:51.325|56=0c6ba5672f96498abe52990b491f002c|10=075|
[2026-05-05 10:33:20] [DEBUG] [TO ADMIN] 8=FIX.4.4|9=101|35=0|34=77|49=0c6ba5672f96498abe52990b491f002c|52=20260505-03:33:20.089|56=SERVER|1=main|553=Group16|10=219|
[2026-05-05 10:33:21] [DEBUG] [FROM ADMIN] 8=FIX.4.4|9=82|35=0|34=77|49=SERVER|52=20260505-03:33:21.325|56=0c6ba5672f96498abe52990b491f002c|10=074|
[2026-05-05 10:33:50] [DEBUG] [TO ADMIN] 8=FIX.4.4|9=101|35=0|34=78|49=0c6ba5672f96498abe52990b491f002c|52=20260505-03:33:50.400|56=SERVER|1=main|553=Group16|10=210|
[2026-05-05 10:33:51] [DEBUG] [FROM ADMIN] 8=FIX.4.4|9=82|35=0|34=78|49=SERVER|52=20260505-03:33:51.326|56=0c6ba5672f96498abe52990b491f002c|10=079|
[2026-05-05 10:34:20] [DEBUG] [TO ADMIN] 8=FIX.4.4|9=101|35=0|34=79|49=0c6ba5672f96498abe52990b491f002c|52=20260505-03:34:20.244|56=SERVER|1=main|553=Group16|10=215|
[2026-05-05 10:34:21] [DEBUG] [FROM ADMIN] 8=FIX.4.4|9=82|35=0|34=79|49=SERVER|52=20260505-03:34:21.326|56=0c6ba5672f96498abe52990b491f002c|10=078|
[2026-05-05 10:34:50] [DEBUG] [TO ADMIN] 8=FIX.4.4|9=101|35=0|34=80|49=0c6ba5672f96498abe52990b491f002c|52=20260505-03:34:50.061|56=SERVER|1=main|553=Group16|10=207|
[2026-05-05 10:34:51] [DEBUG] [FROM ADMIN] 8=FIX.4.4|9=82|35=0|34=80|49=SERVER|52=20260505-03:34:51.325|56=0c6ba5672f96498abe52990b491f002c|10=072|
[2026-05-05 10:35:20] [DEBUG] [TO ADMIN] 8=FIX.4.4|9=101|35=0|34=81|49=0c6ba5672f96498abe52990b491f002c|52=20260505-03:35:20.413|56=SERVER|1=main|553=Group16|10=207|
[2026-05-05 10:35:22] [DEBUG] [FROM ADMIN] 8=FIX.4.4|9=82|35=0|34=81|49=SERVER|52=20260505-03:35:21.325|56=0c6ba5672f96498abe52990b491f002c|10=071|
[2026-05-05 10:35:50] [DEBUG] [TO ADMIN] 8=FIX.4.4|9=101|35=0|34=82|49=0c6ba5672f96498abe52990b491f002c|52=20260505-03:35:50.055|56=SERVER|1=main|553=Group16|10=213|
[2026-05-05 10:35:51] [DEBUG] [FROM ADMIN] 8=FIX.4.4|9=82|35=0|34=82|49=SERVER|52=20260505-03:35:51.325|56=0c6ba5672f96498abe52990b491f002c|10=075|
[2026-05-05 10:36:20] [DEBUG] [TO ADMIN] 8=FIX.4.4|9=101|35=0|34=83|49=0c6ba5672f96498abe52990b491f002c|52=20260505-03:36:20.077|56=SERVER|1=main|553=Group16|10=216|
[2026-05-05 10:36:21] [DEBUG] [FROM ADMIN] 8=FIX.4.4|9=82|35=0|34=83|49=SERVER|52=20260505-03:36:21.325|56=0c6ba5672f96498abe52990b491f002c|10=074|
[2026-05-05 10:36:50] [DEBUG] [TO ADMIN] 8=FIX.4.4|9=101|35=0|34=84|49=0c6ba5672f96498abe52990b491f002c|52=20260505-03:36:50.101|56=SERVER|1=main|553=Group16|10=208|
[2026-05-05 10:36:51] [DEBUG] [FROM ADMIN] 8=FIX.4.4|9=82|35=0|34=84|49=SERVER|52=20260505-03:36:51.325|56=0c6ba5672f96498abe52990b491f002c|10=078|
[2026-05-05 10:37:20] [DEBUG] [TO ADMIN] 8=FIX.4.4|9=101|35=0|34=85|49=0c6ba5672f96498abe52990b491f002c|52=20260505-03:37:20.008|56=SERVER|1=main|553=Group16|10=213|
[2026-05-05 10:37:21] [DEBUG] [FROM ADMIN] 8=FIX.4.4|9=82|35=0|34=85|49=SERVER|52=20260505-03:37:21.326|56=0c6ba5672f96498abe52990b491f002c|10=078|
[2026-05-05 10:37:50] [DEBUG] [TO ADMIN] 8=FIX.4.4|9=101|35=0|34=86|49=0c6ba5672f96498abe52990b491f002c|52=20260505-03:37:50.028|56=SERVER|1=main|553=Group16|10=219|
[2026-05-05 10:37:51] [DEBUG] [FROM ADMIN] 8=FIX.4.4|9=82|35=0|34=86|49=SERVER|52=20260505-03:37:51.325|56=0c6ba5672f96498abe52990b491f002c|10=081|
[2026-05-05 10:38:20] [DEBUG] [TO ADMIN] 8=FIX.4.4|9=101|35=0|34=87|49=0c6ba5672f96498abe52990b491f002c|52=20260505-03:38:20.680|56=SERVER|1=main|553=Group16|10=222|
[2026-05-05 10:38:21] [DEBUG] [FROM ADMIN] 8=FIX.4.4|9=82|35=0|34=87|49=SERVER|52=20260505-03:38:21.325|56=0c6ba5672f96498abe52990b491f002c|10=080|
[2026-05-05 10:38:50] [DEBUG] [TO ADMIN] 8=FIX.4.4|9=101|35=0|34=88|49=0c6ba5672f96498abe52990b491f002c|52=20260505-03:38:50.410|56=SERVER|1=main|553=Group16|10=217|
[2026-05-05 10:38:51] [DEBUG] [FROM ADMIN] 8=FIX.4.4|9=82|35=0|34=88|49=SERVER|52=20260505-03:38:51.326|56=0c6ba5672f96498abe52990b491f002c|10=085|
[2026-05-05 10:39:20] [DEBUG] [TO ADMIN] 8=FIX.4.4|9=101|35=0|34=89|49=0c6ba5672f96498abe52990b491f002c|52=20260505-03:39:20.299|56=SERVER|1=main|553=Group16|10=231|
[2026-05-05 10:39:21] [DEBUG] [FROM ADMIN] 8=FIX.4.4|9=82|35=0|34=89|49=SERVER|52=20260505-03:39:21.325|56=0c6ba5672f96498abe52990b491f002c|10=083|
[2026-05-05 10:39:50] [DEBUG] [TO ADMIN] 8=FIX.4.4|9=101|35=0|34=90|49=0c6ba5672f96498abe52990b491f002c|52=20260505-03:39:50.028|56=SERVER|1=main|553=Group16|10=216|
[2026-05-05 10:39:51] [DEBUG] [FROM ADMIN] 8=FIX.4.4|9=82|35=0|34=90|49=SERVER|52=20260505-03:39:51.326|56=0c6ba5672f96498abe52990b491f002c|10=079|
[2026-05-05 10:40:20] [DEBUG] [TO ADMIN] 8=FIX.4.4|9=101|35=0|34=91|49=0c6ba5672f96498abe52990b491f002c|52=20260505-03:40:20.745|56=SERVER|1=main|553=Group16|10=212|
[2026-05-05 10:40:21] [DEBUG] [FROM ADMIN] 8=FIX.4.4|9=82|35=0|34=91|49=SERVER|52=20260505-03:40:21.325|56=0c6ba5672f96498abe52990b491f002c|10=068|
[2026-05-05 10:40:50] [DEBUG] [TO ADMIN] 8=FIX.4.4|9=101|35=0|34=92|49=0c6ba5672f96498abe52990b491f002c|52=20260505-03:40:50.182|56=SERVER|1=main|553=Group16|10=211|
[2026-05-05 10:40:51] [DEBUG] [FROM ADMIN] 8=FIX.4.4|9=82|35=0|34=92|49=SERVER|52=20260505-03:40:51.325|56=0c6ba5672f96498abe52990b491f002c|10=072|
[2026-05-05 10:41:20] [DEBUG] [TO ADMIN] 8=FIX.4.4|9=101|35=0|34=93|49=0c6ba5672f96498abe52990b491f002c|52=20260505-03:41:20.393|56=SERVER|1=main|553=Group16|10=214|
[2026-05-05 10:41:21] [DEBUG] [FROM ADMIN] 8=FIX.4.4|9=82|35=0|34=93|49=SERVER|52=20260505-03:41:21.325|56=0c6ba5672f96498abe52990b491f002c|10=071|
[2026-05-05 10:41:50] [DEBUG] [TO ADMIN] 8=FIX.4.4|9=101|35=0|34=94|49=0c6ba5672f96498abe52990b491f002c|52=20260505-03:41:50.543|56=SERVER|1=main|553=Group16|10=215|
[2026-05-05 10:41:51] [DEBUG] [FROM ADMIN] 8=FIX.4.4|9=82|35=0|34=94|49=SERVER|52=20260505-03:41:51.325|56=0c6ba5672f96498abe52990b491f002c|10=075|
[2026-05-05 10:42:20] [DEBUG] [TO ADMIN] 8=FIX.4.4|9=101|35=0|34=95|49=0c6ba5672f96498abe52990b491f002c|52=20260505-03:42:20.343|56=SERVER|1=main|553=Group16|10=212|
[2026-05-05 10:42:21] [DEBUG] [FROM ADMIN] 8=FIX.4.4|9=82|35=0|34=95|49=SERVER|52=20260505-03:42:21.326|56=0c6ba5672f96498abe52990b491f002c|10=075|
